{
  "_format": "hh-sol-artifact-1",
  "contractName": "CertificationContract",
  "sourceName": "contracts/CertificationContract.sol",
  "abi": [
    {
      "inputs": [],
      "stateMutability": "nonpayable",
      "type": "constructor"
    },
    {
      "inputs": [],
      "name": "AccessControlBadConfirmation",
      "type": "error"
    },
    {
      "inputs": [
        {
          "internalType": "address",
          "name": "account",
          "type": "address"
        },
        {
          "internalType": "bytes32",
          "name": "neededRole",
          "type": "bytes32"
        }
      ],
      "name": "AccessControlUnauthorizedAccount",
      "type": "error"
    },
    {
      "inputs": [],
      "name": "EnforcedPause",
      "type": "error"
    },
    {
      "inputs": [],
      "name": "ExpectedPause",
      "type": "error"
    },
    {
      "inputs": [],
      "name": "ReentrancyGuardReentrantCall",
      "type": "error"
    },
    {
      "anonymous": false,
      "inputs": [
        {
          "indexed": true,
          "internalType": "uint256",
          "name": "certificationId",
          "type": "uint256"
        },
        {
          "indexed": true,
          "internalType": "address",
          "name": "holder",
          "type": "address"
        },
        {
          "indexed": true,
          "internalType": "address",
          "name": "certifier",
          "type": "address"
        }
      ],
      "name": "CertificationIssued",
      "type": "event"
    },
    {
      "anonymous": false,
      "inputs": [
        {
          "indexed": true,
          "internalType": "uint256",
          "name": "certificationId",
          "type": "uint256"
        },
        {
          "indexed": false,
          "internalType": "uint256",
          "name": "newExpiryDate",
          "type": "uint256"
        }
      ],
      "name": "CertificationRenewed",
      "type": "event"
    },
    {
      "anonymous": false,
      "inputs": [
        {
          "indexed": true,
          "internalType": "uint256",
          "name": "certificationId",
          "type": "uint256"
        },
        {
          "indexed": false,
          "internalType": "string",
          "name": "reason",
          "type": "string"
        }
      ],
      "name": "CertificationRevoked",
      "type": "event"
    },
    {
      "anonymous": false,
      "inputs": [
        {
          "indexed": true,
          "internalType": "uint256",
          "name": "certificationId",
          "type": "uint256"
        },
        {
          "indexed": true,
          "internalType": "address",
          "name": "verifier",
          "type": "address"
        }
      ],
      "name": "CertificationVerified",
      "type": "event"
    },
    {
      "anonymous": false,
      "inputs": [
        {
          "indexed": true,
          "internalType": "address",
          "name": "certifier",
          "type": "address"
        },
        {
          "indexed": false,
          "internalType": "string",
          "name": "name",
          "type": "string"
        },
        {
          "indexed": false,
          "internalType": "uint256",
          "name": "timestamp",
          "type": "uint256"
        }
      ],
      "name": "CertifierRegistered",
      "type": "event"
    },
    {
      "anonymous": false,
      "inputs": [
        {
          "indexed": false,
          "internalType": "address",
          "name": "account",
          "type": "address"
        }
      ],
      "name": "Paused",
      "type": "event"
    },
    {
      "anonymous": false,
      "inputs": [
        {
          "indexed": true,
          "internalType": "bytes32",
          "name": "role",
          "type": "bytes32"
        },
        {
          "indexed": true,
          "internalType": "bytes32",
          "name": "previousAdminRole",
          "type": "bytes32"
        },
        {
          "indexed": true,
          "internalType": "bytes32",
          "name": "newAdminRole",
          "type": "bytes32"
        }
      ],
      "name": "RoleAdminChanged",
      "type": "event"
    },
    {
      "anonymous": false,
      "inputs": [
        {
          "indexed": true,
          "internalType": "bytes32",
          "name": "role",
          "type": "bytes32"
        },
        {
          "indexed": true,
          "internalType": "address",
          "name": "account",
          "type": "address"
        },
        {
          "indexed": true,
          "internalType": "address",
          "name": "sender",
          "type": "address"
        }
      ],
      "name": "RoleGranted",
      "type": "event"
    },
    {
      "anonymous": false,
      "inputs": [
        {
          "indexed": true,
          "internalType": "bytes32",
          "name": "role",
          "type": "bytes32"
        },
        {
          "indexed": true,
          "internalType": "address",
          "name": "account",
          "type": "address"
        },
        {
          "indexed": true,
          "internalType": "address",
          "name": "sender",
          "type": "address"
        }
      ],
      "name": "RoleRevoked",
      "type": "event"
    },
    {
      "anonymous": false,
      "inputs": [
        {
          "indexed": true,
          "internalType": "uint256",
          "name": "certificationId",
          "type": "uint256"
        },
        {
          "indexed": true,
          "internalType": "address",
          "name": "endorser",
          "type": "address"
        }
      ],
      "name": "SkillEndorsed",
      "type": "event"
    },
    {
      "anonymous": false,
      "inputs": [
        {
          "indexed": false,
          "internalType": "address",
          "name": "account",
          "type": "address"
        }
      ],
      "name": "Unpaused",
      "type": "event"
    },
    {
      "anonymous": false,
      "inputs": [
        {
          "indexed": true,
          "internalType": "uint256",
          "name": "certificationId",
          "type": "uint256"
        },
        {
          "indexed": true,
          "internalType": "address",
          "name": "certifier",
          "type": "address"
        }
      ],
      "name": "VerificationApproved",
      "type": "event"
    },
    {
      "anonymous": false,
      "inputs": [
        {
          "indexed": true,
          "internalType": "uint256",
          "name": "certificationId",
          "type": "uint256"
        },
        {
          "indexed": true,
          "internalType": "address",
          "name": "certifier",
          "type": "address"
        },
        {
          "indexed": false,
          "internalType": "string",
          "name": "reason",
          "type": "string"
        }
      ],
      "name": "VerificationRejected",
      "type": "event"
    },
    {
      "anonymous": false,
      "inputs": [
        {
          "indexed": true,
          "internalType": "uint256",
          "name": "certificationId",
          "type": "uint256"
        },
        {
          "indexed": true,
          "internalType": "address",
          "name": "holder",
          "type": "address"
        },
        {
          "indexed": true,
          "internalType": "address",
          "name": "certifier",
          "type": "address"
        }
      ],
      "name": "VerificationRequested",
      "type": "event"
    },
    {
      "inputs": [],
      "name": "CERTIFIER_ROLE",
      "outputs": [
        {
          "internalType": "bytes32",
          "name": "",
          "type": "bytes32"
        }
      ],
      "stateMutability": "view",
      "type": "function"
    },
    {
      "inputs": [],
      "name": "DEFAULT_ADMIN_ROLE",
      "outputs": [
        {
          "internalType": "bytes32",
          "name": "",
          "type": "bytes32"
        }
      ],
      "stateMutability": "view",
      "type": "function"
    },
    {
      "inputs": [],
      "name": "VERIFIER_ROLE",
      "outputs": [
        {
          "internalType": "bytes32",
          "name": "",
          "type": "bytes32"
        }
      ],
      "stateMutability": "view",
      "type": "function"
    },
    {
      "inputs": [
        {
          "internalType": "address",
          "name": "_certifier",
          "type": "address"
        }
      ],
      "name": "accreditCertifier",
      "outputs": [],
      "stateMutability": "nonpayable",
      "type": "function"
    },
    {
      "inputs": [
        {
          "internalType": "uint256",
          "name": "",
          "type": "uint256"
        }
      ],
      "name": "allCertifiers",
      "outputs": [
        {
          "internalType": "address",
          "name": "",
          "type": "address"
        }
      ],
      "stateMutability": "view",
      "type": "function"
    },
    {
      "inputs": [
        {
          "internalType": "uint256",
          "name": "_certificationId",
          "type": "uint256"
        }
      ],
      "name": "approveRecordVerification",
      "outputs": [],
      "stateMutability": "nonpayable",
      "type": "function"
    },
    {
      "inputs": [
        {
          "internalType": "uint256",
          "name": "",
          "type": "uint256"
        },
        {
          "internalType": "uint256",
          "name": "",
          "type": "uint256"
        }
      ],
      "name": "certificationEndorsements",
      "outputs": [
        {
          "internalType": "uint256",
          "name": "certificationId",
          "type": "uint256"
        },
        {
          "internalType": "address",
          "name": "endorser",
          "type": "address"
        },
        {
          "internalType": "string",
          "name": "endorserName",
          "type": "string"
        },
        {
          "internalType": "string",
          "name": "comments",
          "type": "string"
        },
        {
          "internalType": "uint256",
          "name": "endorsementDate",
          "type": "uint256"
        }
      ],
      "stateMutability": "view",
      "type": "function"
    },
    {
      "inputs": [
        {
          "internalType": "uint256",
          "name": "",
          "type": "uint256"
        }
      ],
      "name": "certifications",
      "outputs": [
        {
          "internalType": "uint256",
          "name": "id",
          "type": "uint256"
        },
        {
          "internalType": "address",
          "name": "holder",
          "type": "address"
        },
        {
          "internalType": "address",
          "name": "certifier",
          "type": "address"
        },
        {
          "internalType": "string",
          "name": "certifierName",
          "type": "string"
        },
        {
          "internalType": "string",
          "name": "certificationName",
          "type": "string"
        },
        {
          "internalType": "string",
          "name": "skillDomain",
          "type": "string"
        },
        {
          "internalType": "enum CertificationContract.CertificationType",
          "name": "certType",
          "type": "uint8"
        },
        {
          "internalType": "enum CertificationContract.CertificationStatus",
          "name": "status",
          "type": "uint8"
        },
        {
          "internalType": "uint256",
          "name": "issueDate",
          "type": "uint256"
        },
        {
          "internalType": "uint256",
          "name": "expiryDate",
          "type": "uint256"
        },
        {
          "internalType": "string",
          "name": "credentialHash",
          "type": "string"
        },
        {
          "internalType": "string",
          "name": "metadataHash",
          "type": "string"
        },
        {
          "internalType": "string",
          "name": "documentHash",
          "type": "string"
        },
        {
          "internalType": "bool",
          "name": "isVerified",
          "type": "bool"
        },
        {
          "internalType": "uint256",
          "name": "createdAt",
          "type": "uint256"
        },
        {
          "internalType": "uint256",
          "name": "updatedAt",
          "type": "uint256"
        }
      ],
      "stateMutability": "view",
      "type": "function"
    },
    {
      "inputs": [
        {
          "internalType": "address",
          "name": "",
          "type": "address"
        },
        {
          "internalType": "uint256",
          "name": "",
          "type": "uint256"
        }
      ],
      "name": "certifierPendingVerifications",
      "outputs": [
        {
          "internalType": "uint256",
          "name": "",
          "type": "uint256"
        }
      ],
      "stateMutability": "view",
      "type": "function"
    },
    {
      "inputs": [
        {
          "internalType": "address",
          "name": "",
          "type": "address"
        }
      ],
      "name": "certifiers",
      "outputs": [
        {
          "internalType": "address",
          "name": "certifierAddress",
          "type": "address"
        },
        {
          "internalType": "string",
          "name": "name",
          "type": "string"
        },
        {
          "internalType": "string",
          "name": "website",
          "type": "string"
        },
        {
          "internalType": "string",
          "name": "registrationNumber",
          "type": "string"
        },
        {
          "internalType": "bool",
          "name": "isAccredited",
          "type": "bool"
        },
        {
          "internalType": "bool",
          "name": "isActive",
          "type": "bool"
        },
        {
          "internalType": "uint256",
          "name": "registeredAt",
          "type": "uint256"
        }
      ],
      "stateMutability": "view",
      "type": "function"
    },
    {
      "inputs": [
        {
          "internalType": "uint256",
          "name": "_certificationId",
          "type": "uint256"
        },
        {
          "internalType": "string",
          "name": "_comments",
          "type": "string"
        }
      ],
      "name": "endorseSkill",
      "outputs": [],
      "stateMutability": "nonpayable",
      "type": "function"
    },
    {
      "inputs": [],
      "name": "getAllCertifiers",
      "outputs": [
        {
          "internalType": "address[]",
          "name": "",
          "type": "address[]"
        }
      ],
      "stateMutability": "view",
      "type": "function"
    },
    {
      "inputs": [
        {
          "internalType": "uint256",
          "name": "_certificationId",
          "type": "uint256"
        }
      ],
      "name": "getCertification",
      "outputs": [
        {
          "components": [
            {
              "internalType": "uint256",
              "name": "id",
              "type": "uint256"
            },
            {
              "internalType": "address",
              "name": "holder",
              "type": "address"
            },
            {
              "internalType": "address",
              "name": "certifier",
              "type": "address"
            },
            {
              "internalType": "string",
              "name": "certifierName",
              "type": "string"
            },
            {
              "internalType": "string",
              "name": "certificationName",
              "type": "string"
            },
            {
              "internalType": "string",
              "name": "skillDomain",
              "type": "string"
            },
            {
              "internalType": "enum CertificationContract.CertificationType",
              "name": "certType",
              "type": "uint8"
            },
            {
              "internalType": "enum CertificationContract.CertificationStatus",
              "name": "status",
              "type": "uint8"
            },
            {
              "internalType": "uint256",
              "name": "issueDate",
              "type": "uint256"
            },
            {
              "internalType": "uint256",
              "name": "expiryDate",
              "type": "uint256"
            },
            {
              "internalType": "string",
              "name": "credentialHash",
              "type": "string"
            },
            {
              "internalType": "string",
              "name": "metadataHash",
              "type": "string"
            },
            {
              "internalType": "string",
              "name": "documentHash",
              "type": "string"
            },
            {
              "internalType": "bool",
              "name": "isVerified",
              "type": "bool"
            },
            {
              "internalType": "uint256",
              "name": "createdAt",
              "type": "uint256"
            },
            {
              "internalType": "uint256",
              "name": "updatedAt",
              "type": "uint256"
            }
          ],
          "internalType": "struct CertificationContract.Certification",
          "name": "",
          "type": "tuple"
        }
      ],
      "stateMutability": "view",
      "type": "function"
    },
    {
      "inputs": [
        {
          "internalType": "uint256",
          "name": "_certificationId",
          "type": "uint256"
        }
      ],
      "name": "getCertificationEndorsements",
      "outputs": [
        {
          "components": [
            {
              "internalType": "uint256",
              "name": "certificationId",
              "type": "uint256"
            },
            {
              "internalType": "address",
              "name": "endorser",
              "type": "address"
            },
            {
              "internalType": "string",
              "name": "endorserName",
              "type": "string"
            },
            {
              "internalType": "string",
              "name": "comments",
              "type": "string"
            },
            {
              "internalType": "uint256",
              "name": "endorsementDate",
              "type": "uint256"
            }
          ],
          "internalType": "struct CertificationContract.SkillEndorsement[]",
          "name": "",
          "type": "tuple[]"
        }
      ],
      "stateMutability": "view",
      "type": "function"
    },
    {
      "inputs": [
        {
          "internalType": "enum CertificationContract.CertificationType",
          "name": "_type",
          "type": "uint8"
        }
      ],
      "name": "getCertificationTypeString",
      "outputs": [
        {
          "internalType": "string",
          "name": "",
          "type": "string"
        }
      ],
      "stateMutability": "pure",
      "type": "function"
    },
    {
      "inputs": [
        {
          "internalType": "string",
          "name": "_skillDomain",
          "type": "string"
        }
      ],
      "name": "getCertificationsBySkillDomain",
      "outputs": [
        {
          "internalType": "uint256[]",
          "name": "",
          "type": "uint256[]"
        }
      ],
      "stateMutability": "view",
      "type": "function"
    },
    {
      "inputs": [
        {
          "internalType": "address",
          "name": "_certifier",
          "type": "address"
        }
      ],
      "name": "getCertifierInfo",
      "outputs": [
        {
          "components": [
            {
              "internalType": "address",
              "name": "certifierAddress",
              "type": "address"
            },
            {
              "internalType": "string",
              "name": "name",
              "type": "string"
            },
            {
              "internalType": "string",
              "name": "website",
              "type": "string"
            },
            {
              "internalType": "string",
              "name": "registrationNumber",
              "type": "string"
            },
            {
              "internalType": "bool",
              "name": "isAccredited",
              "type": "bool"
            },
            {
              "internalType": "bool",
              "name": "isActive",
              "type": "bool"
            },
            {
              "internalType": "uint256",
              "name": "registeredAt",
              "type": "uint256"
            }
          ],
          "internalType": "struct CertificationContract.Certifier",
          "name": "",
          "type": "tuple"
        }
      ],
      "stateMutability": "view",
      "type": "function"
    },
    {
      "inputs": [
        {
          "internalType": "address",
          "name": "_certifier",
          "type": "address"
        }
      ],
      "name": "getCertifierPendingVerifications",
      "outputs": [
        {
          "internalType": "uint256[]",
          "name": "",
          "type": "uint256[]"
        }
      ],
      "stateMutability": "view",
      "type": "function"
    },
    {
      "inputs": [
        {
          "internalType": "address",
          "name": "_holder",
          "type": "address"
        }
      ],
      "name": "getHolderCertifications",
      "outputs": [
        {
          "internalType": "uint256[]",
          "name": "",
          "type": "uint256[]"
        }
      ],
      "stateMutability": "view",
      "type": "function"
    },
    {
      "inputs": [
        {
          "internalType": "bytes32",
          "name": "role",
          "type": "bytes32"
        }
      ],
      "name": "getRoleAdmin",
      "outputs": [
        {
          "internalType": "bytes32",
          "name": "",
          "type": "bytes32"
        }
      ],
      "stateMutability": "view",
      "type": "function"
    },
    {
      "inputs": [
        {
          "internalType": "bytes32",
          "name": "role",
          "type": "bytes32"
        },
        {
          "internalType": "address",
          "name": "account",
          "type": "address"
        }
      ],
      "name": "grantRole",
      "outputs": [],
      "stateMutability": "nonpayable",
      "type": "function"
    },
    {
      "inputs": [
        {
          "internalType": "bytes32",
          "name": "role",
          "type": "bytes32"
        },
        {
          "internalType": "address",
          "name": "account",
          "type": "address"
        }
      ],
      "name": "hasRole",
      "outputs": [
        {
          "internalType": "bool",
          "name": "",
          "type": "bool"
        }
      ],
      "stateMutability": "view",
      "type": "function"
    },
    {
      "inputs": [
        {
          "internalType": "address",
          "name": "",
          "type": "address"
        },
        {
          "internalType": "uint256",
          "name": "",
          "type": "uint256"
        }
      ],
      "name": "holderCertifications",
      "outputs": [
        {
          "internalType": "uint256",
          "name": "",
          "type": "uint256"
        }
      ],
      "stateMutability": "view",
      "type": "function"
    },
    {
      "inputs": [
        {
          "internalType": "address",
          "name": "",
          "type": "address"
        }
      ],
      "name": "isRegisteredCertifier",
      "outputs": [
        {
          "internalType": "bool",
          "name": "",
          "type": "bool"
        }
      ],
      "stateMutability": "view",
      "type": "function"
    },
    {
      "inputs": [
        {
          "internalType": "address",
          "name": "_holder",
          "type": "address"
        },
        {
          "internalType": "string",
          "name": "_certificationName",
          "type": "string"
        },
        {
          "internalType": "string",
          "name": "_skillDomain",
          "type": "string"
        },
        {
          "internalType": "enum CertificationContract.CertificationType",
          "name": "_certType",
          "type": "uint8"
        },
        {
          "internalType": "uint256",
          "name": "_expiryDate",
          "type": "uint256"
        },
        {
          "internalType": "string",
          "name": "_credentialHash",
          "type": "string"
        },
        {
          "internalType": "string",
          "name": "_metadataHash",
          "type": "string"
        },
        {
          "internalType": "string",
          "name": "_documentHash",
          "type": "string"
        }
      ],
      "name": "issueCertification",
      "outputs": [],
      "stateMutability": "nonpayable",
      "type": "function"
    },
    {
      "inputs": [],
      "name": "pause",
      "outputs": [],
      "stateMutability": "nonpayable",
      "type": "function"
    },
    {
      "inputs": [],
      "name": "paused",
      "outputs": [
        {
          "internalType": "bool",
          "name": "",
          "type": "bool"
        }
      ],
      "stateMutability": "view",
      "type": "function"
    },
    {
      "inputs": [
        {
          "internalType": "string",
          "name": "_name",
          "type": "string"
        },
        {
          "internalType": "string",
          "name": "_website",
          "type": "string"
        },
        {
          "internalType": "string",
          "name": "_registrationNumber",
          "type": "string"
        }
      ],
      "name": "registerCertifier",
      "outputs": [],
      "stateMutability": "nonpayable",
      "type": "function"
    },
    {
      "inputs": [
        {
          "internalType": "uint256",
          "name": "_certificationId",
          "type": "uint256"
        },
        {
          "internalType": "string",
          "name": "_reason",
          "type": "string"
        }
      ],
      "name": "rejectRecordVerification",
      "outputs": [],
      "stateMutability": "nonpayable",
      "type": "function"
    },
    {
      "inputs": [
        {
          "internalType": "uint256",
          "name": "_certificationId",
          "type": "uint256"
        },
        {
          "internalType": "uint256",
          "name": "_newExpiryDate",
          "type": "uint256"
        }
      ],
      "name": "renewCertification",
      "outputs": [],
      "stateMutability": "nonpayable",
      "type": "function"
    },
    {
      "inputs": [
        {
          "internalType": "bytes32",
          "name": "role",
          "type": "bytes32"
        },
        {
          "internalType": "address",
          "name": "callerConfirmation",
          "type": "address"
        }
      ],
      "name": "renounceRole",
      "outputs": [],
      "stateMutability": "nonpayable",
      "type": "function"
    },
    {
      "inputs": [
        {
          "internalType": "uint256",
          "name": "_certificationId",
          "type": "uint256"
        }
      ],
      "name": "requestRecordVerification",
      "outputs": [],
      "stateMutability": "nonpayable",
      "type": "function"
    },
    {
      "inputs": [
        {
          "internalType": "uint256",
          "name": "_certificationId",
          "type": "uint256"
        },
        {
          "internalType": "string",
          "name": "_reason",
          "type": "string"
        }
      ],
      "name": "revokeCertification",
      "outputs": [],
      "stateMutability": "nonpayable",
      "type": "function"
    },
    {
      "inputs": [
        {
          "internalType": "bytes32",
          "name": "role",
          "type": "bytes32"
        },
        {
          "internalType": "address",
          "name": "account",
          "type": "address"
        }
      ],
      "name": "revokeRole",
      "outputs": [],
      "stateMutability": "nonpayable",
      "type": "function"
    },
    {
      "inputs": [
        {
          "internalType": "string",
          "name": "",
          "type": "string"
        },
        {
          "internalType": "uint256",
          "name": "",
          "type": "uint256"
        }
      ],
      "name": "skillDomainCertifications",
      "outputs": [
        {
          "internalType": "uint256",
          "name": "",
          "type": "uint256"
        }
      ],
      "stateMutability": "view",
      "type": "function"
    },
    {
      "inputs": [
        {
          "internalType": "bytes4",
          "name": "interfaceId",
          "type": "bytes4"
        }
      ],
      "name": "supportsInterface",
      "outputs": [
        {
          "internalType": "bool",
          "name": "",
          "type": "bool"
        }
      ],
      "stateMutability": "view",
      "type": "function"
    },
    {
      "inputs": [],
      "name": "unpause",
      "outputs": [],
      "stateMutability": "nonpayable",
      "type": "function"
    },
    {
      "inputs": [],
      "name": "updateCertificationStatus",
      "outputs": [],
      "stateMutability": "nonpayable",
      "type": "function"
    },
    {
      "inputs": [
        {
          "internalType": "bytes32",
          "name": "",
          "type": "bytes32"
        }
      ],
      "name": "usedCredentialHashes",
      "outputs": [
        {
          "internalType": "bool",
          "name": "",
          "type": "bool"
        }
      ],
      "stateMutability": "view",
      "type": "function"
    },
    {
      "inputs": [
        {
          "internalType": "uint256",
          "name": "",
          "type": "uint256"
        }
      ],
      "name": "verificationRequested",
      "outputs": [
        {
          "internalType": "bool",
          "name": "",
          "type": "bool"
        }
      ],
      "stateMutability": "view",
      "type": "function"
    },
    {
      "inputs": [
        {
          "internalType": "uint256",
          "name": "_certificationId",
          "type": "uint256"
        }
      ],
      "name": "verifyCertification",
      "outputs": [],
      "stateMutability": "nonpayable",
      "type": "function"
    }
  ],
  "bytecode": "0x6080604052346200003b57600180556001600c556200001e3362000040565b506200002a33620000c0565b5060405161408e9081620001638239f35b600080fd5b6001600160a01b031660008181527fad3228b676f7d3cd4284a5443f17f1962b36e491b30a40b2405849e597ba5fb5602052604081205490919060ff16620000bc57818052816020526040822081835260205260408220600160ff198254161790553391600080516020620041f18339815191528180a4600190565b5090565b6001600160a01b031660008181527f1da0b5176dfe03406af5a6eed66ca01dda9b45ac4da671c3fa379cb93717ef8160205260408120549091907f0ce23c3e399818cfee81a7ab0880f714e53d7672b08df0fa62f2843416e1ea099060ff166200015d57808352826020526040832082845260205260408320600160ff19825416179055600080516020620041f1833981519152339380a4600190565b50509056fe608080604052600436101561001357600080fd5b60003560e01c90816301ffc9a7146135bd57508063046d22bb146134ba5780630a5a81df146134325780630bb73edd146133095780631807746a14613234578063240003e9146131ea578063248a9ca3146131bb5780632f2ff15d1461317c5780632fe7ba20146130b457806336568abe1461306d5780633c0359a414612ef45780633d7f6e2c14612ec35780633f1280b914612e815780633f4ba83a14612e1757806341a51e4f14612cbf5780634a25c70214612b3d5780634c997d1f1461256c578063528dbd6c146123d55780635c975abb146123b25780635d42b2b9146122ef57806369d0b517146122b45780636b09d90c146122755780636e8076331461222b57806371c8e563146121345780638456cb59146120da5780638f5b063a14611f6857806391d1485414611f1b5780639f06c39514611db9578063a217fddf14611d9d578063a6ba956f14611d01578063ae53cdd214611c88578063aeb1e07114611b68578063bbc4893a14610e9e578063bf3353c714610e5d578063d547741f14610e1c578063ddd6cb4f14610c7d578063dfe43d9614610c4c578063e765d37414610be9578063e7705db614610bae578063eb050a6e146105d05763ec981eac146101e257600080fd5b346105cb5760203660031901126105cb5760006101e0604051610204816136ad565b82815282602082015282604082015260608082015260606080820152606060a08201528260c08201528260e08201528261010082015282610120820152606061014082015260606101608201526060610180820152826101a0820152826101c082015201526004358060005260036020526102856040600020541515613c6c565b60005260036020526040600020600e604051916102a1836136ad565b8054835260018101546001600160a01b03908116602085015260028201541660408401526102d16003820161382c565b60608401526102e26004820161382c565b60808401526102f36005820161382c565b60a084015261031e60ff600683015461031182821660c08801613c18565b60081c1660e08501613c24565b600781015461010084015260088101546101208401526103406009820161382c565b610140840152610352600a820161382c565b610160840152610364600b820161382c565b610180840152600c81015460ff1615156101a0840152600d8101546101c084015201546101e082015260208101516001600160a01b0316331480156105b5575b801561057d575b8015610545575b156104ee576040518091602082528051602083015260018060a01b03602082015116604083015260018060a01b0360408201511660608301526101e06104c96104b161049961044461042e610418606088015161020060808b01526102208a01906138f5565b6080880151898203601f190160a08b01526138f5565b60a0870151888203601f190160c08a01526138f5565b61045660c087015160e089019061391a565b61046960e0870151610100890190613927565b610100860151610120880152610120860151610140880152610140860151601f19888303016101608901526138f5565b610160850151868203601f19016101808801526138f5565b610180840151858203601f19016101a08701526138f5565b916101a081015115156101c08501526101c08101518285015201516102008301520390f35b60405162461bcd60e51b815260206004820152602960248201527f4e6f7420617574686f72697a656420746f20766965772074686973206365727460448201526834b334b1b0ba34b7b760b91b6064820152608490fd5b503360009081527fad3228b676f7d3cd4284a5443f17f1962b36e491b30a40b2405849e597ba5fb5602052604090205460ff166103b2565b503360009081527f1da0b5176dfe03406af5a6eed66ca01dda9b45ac4da671c3fa379cb93717ef81602052604090205460ff166103ab565b5060408101516001600160a01b031633146103a4565b600080fd5b346105cb576105de3661375b565b906105e7613b84565b6105ef613b66565b8060005260036020526106086040600020541515613c6c565b806000526003602052604060002060405190610623826136ad565b8054825260018101546001600160a01b0390811660208401908152600283015482166040850152909283919061065b6003850161382c565b606082015261066c6004850161382c565b608082015261067d6005850161382c565b60a08201526101e0600e60068601549561069d60ff881660c08601613c18565b6106b160ff60e086019860081c1688613c24565b600781015461010085015260088101546101208501526106d36009820161382c565b6101408501526106e5600a820161382c565b6101608501526106f7600b820161382c565b61018085015260ff600c8201541615156101a0850152600d8101546101c0850152015491015251163314610b5b57516004811015610b4557610af15781600052600860205260406000209260008454905b818110610a7b57506040519461075d86613677565b848652602086019133835260405193602085018581106001600160401b0382111761098a5760405260008552604088019485526060880152426080880152600160401b81101561098a576107b69160018201815561394a565b939093610a655785518455600184019151166001600160601b0360a01b825416179055519283516001600160401b03811161098a576107f860028401546137f2565b601f8111610a1a575b506020601f82116001146109ab5781929394956000926109a0575b50508160011b916000199060031b1c19161760028301555b6003820160608201518051906001600160401b03821161098a5761085883546137f2565b601f8111610942575b50602090601f83116001146108d457918060809492600496946000926108c9575b50508160011b916000199060031b1c19161790555b015191015533907f1d19f92195dab27cf57ec6dbbf63bbee7e47fae250a3b1b44b66d1f1436e01fb600080a360018055005b015190508880610882565b90601f198316918460005260206000209260005b81811061092a5750926001928592600498966080989610610911575b505050811b019055610897565b015160001960f88460031b161c19169055888080610904565b929360206001819287860151815501950193016108e8565b836000526020600020601f840160051c81019160208510610980575b601f0160051c01905b8181106109745750610861565b60008155600101610967565b909150819061095e565b634e487b7160e01b600052604160045260246000fd5b01519050858061081c565b6002840160005260206000209060005b601f1984168110610a02575060019394959683601f198116106109e9575b505050811b016002830155610834565b015160001960f88460031b161c191690558580806109d9565b9091602060018192858b0151815501930191016109bb565b600284016000526020600020601f830160051c81019160208410610a5b575b601f0160051c01905b818110610a4f5750610801565b60008155600101610a42565b9091508190610a39565b634e487b7160e01b600052600060045260246000fd5b610a85818761394a565b506001015484163314610aa057610a9b90613bf3565b610748565b60405162461bcd60e51b815260206004820152602360248201527f416c726561647920656e646f727365642074686973206365727469666963617460448201526234b7b760e91b6064820152608490fd5b60405162461bcd60e51b815260206004820152602660248201527f43616e206f6e6c7920656e646f727365206163746976652063657274696669636044820152656174696f6e7360d01b6064820152608490fd5b634e487b7160e01b600052602160045260246000fd5b60405162461bcd60e51b815260206004820152602560248201527f43616e6e6f7420656e646f72736520796f7572206f776e20636572746966696360448201526430ba34b7b760d91b6064820152608490fd5b346105cb5760003660031901126105cb5760206040517f0ce23c3e399818cfee81a7ab0880f714e53d7672b08df0fa62f2843416e1ea098152f35b346105cb5760203660031901126105cb57610c02613610565b610c0a613966565b6001600160a01b0316600081815260066020526040902054610c2e9060ff16613ba7565b6000908152600560205260409020600401805460ff19166001179055005b346105cb5760203660031901126105cb57600435600052600a602052602060ff604060002054166040519015158152f35b346105cb576020806003193601126105cb57600435610c9a613b84565b610ca2613b66565b8060005260038252610cba6040600020541515613c6c565b60008181526003835260409020600101546001600160a01b039081163303610dbd578160005260038352610cf960ff600c604060002001541615613eeb565b81600052600a835260ff60406000205416610d7857600b9082600052600a84526040600020600160ff198254161790556003845260026040600020015416928360005252610d4b816040600020613c30565b33907f94ea9519a26f9cef618942be536c77d0af6bd419afe375eeb30875b20b82d294600080a460018055005b60405162461bcd60e51b815260048101849052601e60248201527f566572696669636174696f6e20616c72656164792072657175657374656400006044820152606490fd5b60405162461bcd60e51b815260048101849052603160248201527f4f6e6c792063657274696669636174696f6e20686f6c6465722063616e207065604482015270393337b936903a3434b99030b1ba34b7b760791b6064820152608490fd5b346105cb5760403660031901126105cb57610e5b600435610e3b613626565b90806000526000602052610e566001604060002001546139a0565b613af1565b005b346105cb5760203660031901126105cb5760043560098110156105cb57610e86610e9a91613d1b565b6040519182916020835260208301906138f5565b0390f35b346105cb576101003660031901126105cb57610eb8613610565b6024356001600160401b0381116105cb57610ed7903690600401613705565b6044356001600160401b0381116105cb57610ef6903690600401613705565b90600960643510156105cb5760a4356001600160401b0381116105cb57610f21903690600401613705565b9160c4356001600160401b0381116105cb57610f41903690600401613705565b9160e4356001600160401b0381116105cb57610f61903690600401613705565b610f69613b84565b610f71613b66565b3360009081527ffe618c914587dd7ba3e1acd37a967f49c0ddd40aac12fbb6ca27c0d60e34d9d1602052604090205460ff1615611b2a576001600160a01b03861615611aec57336000526006602052610fd160ff60406000205416613ba7565b815115611a9c57825115611a5757426084351115611a08578451156119c357604051602081019061101c6020828161100f8b878151938492016138d2565b81010380845201826136e4565b5190209384600052600760205260ff6040600020541661197e57600c549561104387613bf3565b600c5533600052600560205260016040600020019361108560405195611068876136ad565b8987526001600160a01b038b16602088015233604088015261382c565b606086015260808501528460a08501526110a460643560c08601613c18565b600060e08501524261010085015260843561012085015261014084015261016083015261018082015260006101a0820152426101c0820152426101e08201528360005260036020526040600020815181556001810160018060a01b03602084015116906001600160601b0360a01b9182825416179055600282019060018060a01b036040850151169082541617905560608201518051906001600160401b03821161098a57819061115860038501546137f2565b601f811161192b575b50602090601f83116001146118b9576000926118ae575b50508160011b916000199060031b1c19161760038201555b60808201518051906001600160401b03821161098a5781906111b560048501546137f2565b601f811161185b575b50602090601f83116001146117e9576000926117de575b50508160011b916000199060031b1c19161760048201555b60a08201518051906001600160401b03821161098a57819061121260058501546137f2565b601f811161178b575b50602090601f83116001146117195760009261170e575b50508160011b916000199060031b1c19161760058201555b60c08201516009811015610b45576006820190815460e08501516004811015610b455761ff0060ff9160081b1692169061ffff191617179055610100820151600782015561012082015160088201556101408201518051906001600160401b03821161098a5781906112bf60098501546137f2565b601f81116116bb575b50602090601f83116001146116495760009261163e575b50508160011b916000199060031b1c19161760098201555b6101608201518051906001600160401b03821161098a57819061131d600a8501546137f2565b601f81116115eb575b50602090601f83116001146115795760009261156e575b50508160011b916000199060031b1c191617600a8201555b6101808201519182516001600160401b03811161098a57869361137b600b8501546137f2565b601f8111611515575b50602090601f8311600114611492576101e06020948461143799956114289895600e95600092611487575b50508160011b916000199060031b1c191617600b8501555b6113e76101a08201511515600c86019060ff801983541691151516179055565b6101c0810151600d850155015191015560018060a01b03881660005260048252611415846040600020613c30565b81604051938285809451938492016138d2565b81016009815203019020613c30565b6000908152600760205260408120805460ff1916600117905533926001600160a01b031691907f7775693ca20baf716972e9e2bb047c92e646fc7bbeae5c6a302e117ba98bf4549080a460018055005b015190508e806113af565b90600b850160005260206000209160005b601f19851681106114fa57506020946001856114289895600e956101e0956114379d99601f198116106114e1575b505050811b01600b8501556113c7565b015160001960f88460031b161c191690558e80806114d1565b8183015184558a9750600190930192602092830192016114a3565b909192939450600b85016000526020600020601f840160051c810160208510611567575b90899695949392915b601f830160051c82018110611558575050611384565b600081558a9750600101611542565b5080611539565b01519050888061133d565b9250600a84016000526020600020906000935b601f19841685106115d0576001945083601f198116106115b7575b505050811b01600a820155611355565b015160001960f88460031b161c191690558880806115a7565b8181015183556020948501946001909301929091019061158c565b909150600a84016000526020600020601f840160051c810160208510611637575b90849392915b601f830160051c82018110611628575050611326565b60008155859450600101611612565b508061160c565b0151905088806112df565b9250600984016000526020600020906000935b601f19841685106116a0576001945083601f19811610611687575b505050811b0160098201556112f7565b015160001960f88460031b161c19169055888080611677565b8181015183556020948501946001909301929091019061165c565b909150600984016000526020600020601f840160051c810160208510611707575b90849392915b601f830160051c820181106116f85750506112c8565b600081558594506001016116e2565b50806116dc565b015190508880611232565b9250600584016000526020600020906000935b601f1984168510611770576001945083601f19811610611757575b505050811b01600582015561124a565b015160001960f88460031b161c19169055888080611747565b8181015183556020948501946001909301929091019061172c565b909150600584016000526020600020601f840160051c8101602085106117d7575b90849392915b601f830160051c820181106117c857505061121b565b600081558594506001016117b2565b50806117ac565b0151905088806111d5565b9250600484016000526020600020906000935b601f1984168510611840576001945083601f19811610611827575b505050811b0160048201556111ed565b015160001960f88460031b161c19169055888080611817565b818101518355602094850194600190930192909101906117fc565b909150600484016000526020600020601f840160051c8101602085106118a7575b90849392915b601f830160051c820181106118985750506111be565b60008155859450600101611882565b508061187c565b015190508880611178565b9250600384016000526020600020906000935b601f1984168510611910576001945083601f198116106118f7575b505050811b016003820155611190565b015160001960f88460031b161c191690558880806118e7565b818101518355602094850194600190930192909101906118cc565b909150600384016000526020600020601f840160051c810160208510611977575b90849392915b601f830160051c82018110611968575050611161565b60008155859450600101611952565b508061194c565b60405162461bcd60e51b815260206004820152601c60248201527f43726564656e7469616c206861736820616c72656164792075736564000000006044820152606490fd5b60405162461bcd60e51b815260206004820152601f60248201527f43726564656e7469616c20686173682063616e6e6f7420626520656d707479006044820152606490fd5b60405162461bcd60e51b815260206004820152602160248201527f4578706972792064617465206d75737420626520696e207468652066757475726044820152606560f81b6064820152608490fd5b60405162461bcd60e51b815260206004820152601c60248201527f536b696c6c20646f6d61696e2063616e6e6f7420626520656d707479000000006044820152606490fd5b60405162461bcd60e51b815260206004820152602260248201527f43657274696669636174696f6e206e616d652063616e6e6f7420626520656d70604482015261747960f01b6064820152608490fd5b60405162461bcd60e51b8152602060048201526016602482015275496e76616c696420686f6c646572206164647265737360501b6044820152606490fd5b60405163e2517d3f60e01b81523360048201527f65cb1d8422cdf0328f26b49e42e9f4524474c431da623cbe0ea455f1b67c9f776024820152604490fd5b346105cb57611b763661375b565b90611b7f613b84565b611b87613b66565b8060005260209160038352611ba26040600020541515613c6c565b8160005260038352611bc560018060a01b03600260406000200154163314613cb8565b8160005260038352604060002092600684019384549460ff8660081c166004811015610b4557600214611c43576102007f5f76f29d70d3bf9134033ed263aeb68f6318cf93d121b34277047cdfd52d75f0959661ff001916179055600e42910155611c3a6040519282849384528301906138f5565b0390a260018055005b60405162461bcd60e51b815260048101849052601d60248201527f43657274696669636174696f6e20616c7265616479207265766f6b65640000006044820152606490fd5b346105cb5760403660031901126105cb576004356001600160401b0381116105cb57611cb8903690600401613705565b611cd460206024359281604051938285809451938492016138d2565b8101600981520301902080548210156105cb57602091611cf3916137da565b90546040519160031b1c8152f35b346105cb57611d0f36613934565b90600052600860205260406000209081548110156105cb57611d309161394a565b50805460018201546001600160a01b031691611d93611d516002830161382c565b91611d856004611d636003840161382c565b920154936040519687968752602087015260a0604087015260a08601906138f5565b9084820360608601526138f5565b9060808301520390f35b346105cb5760003660031901126105cb57602060405160008152f35b346105cb576020806003193601126105cb5760043590611dd7613b84565b611ddf613b66565b8160005260038152611df76040600020541515613c6c565b7f0ce23c3e399818cfee81a7ab0880f714e53d7672b08df0fa62f2843416e1ea098060005260008252604060002033600052825260ff6040600020541615611efd57508160005260038152604060002090600c82019081549060ff8216611eb957906006600192838060a01b0360028701541660005252611e7f60ff60406000205416613ba7565b60ff1916179055600e4291015533907f2f52cd930e6cfca92f0ba9d7796686d682f6dc8a90b504f03dfd6e901d212bab600080a360018055005b6064906040519062461bcd60e51b82526004820152601e60248201527f43657274696669636174696f6e20616c726561647920766572696669656400006044820152fd5b6044906040519063e2517d3f60e01b82523360048301526024820152fd5b346105cb5760403660031901126105cb57611f34613626565b600435600052600060205260406000209060018060a01b0316600052602052602060ff604060002054166040519015158152f35b346105cb576020806003193601126105cb57611f82613610565b9060405190611f9082613692565b6000825260609182828201528260408201528280820152608081016000905260a081016000905260c00160009052600160a01b60019003809316806000526006825260406000205460ff16611fe490613ba7565b6000526005815260406000209060405192611ffe84613692565b8254851684526120106001840161382c565b848301908152906120236002850161382c565b604086019081526120366003860161382c565b90828701918252600486015493608088019660ff86161515885260a089019560081c60ff1615158652600501549560c08901968752604051998a99828b52511690890152516040880160e090526101008801612091916138f5565b905190601f19938489830301908901526120aa916138f5565b9051918682030160808701526120bf916138f5565b9251151560a085015251151560c08401525160e08301520390f35b346105cb5760003660031901126105cb576120f3613966565b6120fb613b66565b600160ff1960025416176002557f62e78cea01bee320cd4e420270b5ea74000d11b0c9f74754ebdbfc544b05a2586020604051338152a1005b346105cb5760003660031901126105cb5761214d613b84565b336000526020600481526040600020604051808284829454938481520190600052846000209260005b86828210612215578461218b818603826136e4565b60005b815181101561220f57828160051b8301015160005260038352604060002090600682019182549260089360ff81861c16946004861015610b45576121e295159081612201575b506121e7575b505050613bf3565b61218e565b6101009061ff001916179055600e429101558480806121da565b9050830154421015886121d4565b60018055005b8554845260019586019587955093019201612176565b346105cb5760403660031901126105cb57612244613610565b6001600160a01b03166000908152600b60205260409020805460243591908210156105cb57602091611cf3916137da565b346105cb5760203660031901126105cb576001600160a01b03612296613610565b166000526006602052602060ff604060002054166040519015158152f35b346105cb5760003660031901126105cb5760206040517f65cb1d8422cdf0328f26b49e42e9f4524474c431da623cbe0ea455f1b67c9f778152f35b346105cb5760203660031901126105cb576001600160a01b0380612311613610565b16600052600560205260406000209081541661232f6001830161382c565b9161233c6002820161382c565b60ff61239361234d6003850161382c565b6123856005600487015496015494612377604051998a998a5260e060208b015260e08a01906138f5565b9088820360408a01526138f5565b9086820360608801526138f5565b928181161515608086015260081c16151560a084015260c08301520390f35b346105cb5760003660031901126105cb57602060ff600254166040519015158152f35b346105cb576123e336613934565b906123ec613b84565b6123f4613b66565b8060005260206003815261240e6040600020541515613c6c565b816000526003815261243160018060a01b03600260406000200154163314613cb8565b4283111561251a578160005260038152604060002092600684019384549460ff8660081c166004811015610b4557801590811561250f575b50156124b2577feddda2082f27331f57388c33cddb44e264893f24f7720a77a989f9db28f17dc2949583600884015561ff0019169055600e42910155604051908152a260018055005b60405162461bcd60e51b815260048101859052602f60248201527f43616e6e6f742072656e6577207265766f6b6564206f722073757370656e646560448201526e321031b2b93a34b334b1b0ba34b7b760891b6064820152608490fd5b600191501487612469565b6084906040519062461bcd60e51b82526004820152602560248201527f4e6577206578706972792064617465206d75737420626520696e207468652066604482015264757475726560d81b6064820152fd5b346105cb5760603660031901126105cb576004356001600160401b0381116105cb5761259c903690600401613705565b6024356001600160401b0381116105cb576125bb903690600401613705565b906044356001600160401b0381116105cb576125db903690600401613705565b906125e4613b84565b6125ec613b66565b33600052600660205260ff60406000205416612af857805115612ab3576040519161261683613692565b33835260208301938285526040840152606083015260006080830152600160a08301524260c083015233600052600560205260406000209260018060a01b038351166001600160601b0360a01b855416178455519283516001600160401b03811161098a5761268860018301546137f2565b601f8111612a6c575b506020601f82116001146129fd5781929394956000926129f2575b50508160011b916000199060031b1c19161760018201555b60408301519283516001600160401b03811161098a576126e760028401546137f2565b601f81116129ab575b506020601f821160011461293c578192939495600092612931575b50508160011b916000199060031b1c19161760028301555b60608101518051906001600160401b03821161098a5761274660038501546137f2565b601f81116128ea575b50602090601f83116001146128755791806005949260c09460009261286a575b50508160011b916000199060031b1c19161760038501555b600484016127a760808301511515829060ff801983541691151516179055565b60a0820151815461ff00191690151560081b61ff00161790550151910155336000908152600660205260409020805460ff19166001179055600d54600160401b81101561098a578060016127fe9201600d5561378d565b81549060031b9033821b9160018060a01b03901b1916179055612820336139c6565b507f62bbdd6d952dde8b30f36b48db2c7ad229601ff2efe2a8365c941644e7cc87df612857604051926040845260408401906138f5565b914260208201528033930390a260018055005b01519050878061276f565b906003850160005260206000209160005b601f19851681106128d25750926005949260019260c09583601f198116106128b9575b505050811b016003850155612787565b015160001960f88460031b161c191690558780806128a9565b91926020600181928685015181550194019201612886565b600385016000526020600020601f840160051c81016020851061292a575b601f830160051c8201811061291e57505061274f565b60008155600101612908565b5080612908565b01519050858061270b565b6002840160005260206000209060005b601f1984168110612993575060019394959683601f1981161061297a575b505050811b016002830155612723565b015160001960f88460031b161c1916905585808061296a565b9091602060018192858b01518155019301910161294c565b600284016000526020600020601f830160051c8101602084106129eb575b601f830160051c820181106129df5750506126f0565b600081556001016129c9565b50806129c9565b0151905085806126ac565b6001830160005260206000209060005b601f1984168110612a54575060019394959683601f19811610612a3b575b505050811b0160018201556126c4565b015160001960f88460031b161c19169055858080612a2b565b9091602060018192858b015181550193019101612a0d565b600183016000526020600020601f830160051c810160208410612aac575b601f830160051c82018110612aa0575050612691565b60008155600101612a8a565b5080612a8a565b60405162461bcd60e51b815260206004820152601e60248201527f436572746966696572206e616d652063616e6e6f7420626520656d70747900006044820152606490fd5b60405162461bcd60e51b815260206004820152601c60248201527f43657274696669657220616c72656164792072656769737465726564000000006044820152606490fd5b346105cb576020806003193601126105cb576004359081600052600391828252612b6d6040600020541515613c6c565b60005260088152604060002080546001600160401b03811161098a579160405192600594612b9f8383881b01866136e4565b8185526000938452828420838601949187865b858510612c5a5750878787604051928184019082855251809152604081818601961b85010192916000955b828710612bea5785850386f35b909192938280600192603f1989820301855287519081518152848060a01b03838301511683820152612c40612c2d604084015160a08060408601528401906138f5565b60608085015190848303908501526138f5565b916080809101519101529601920196019592919092612bdd565b908660019260409a989a51612c6e81613677565b86548152848060a01b03858801541683820152612c8d6002880161382c565b6040820152612c9d86880161382c565b6060820152600487015460808201528152019301930192918890979597612bb2565b346105cb576020806003193601126105cb576001600160a01b03612ce1613610565b163381148015612dd5575b8015612db3575b15612d595760005260048152604060002090604051908181845491828152019360005281600020916000905b828210612d4257610e9a85612d36818903826136e4565b6040519182918261363c565b835486529485019460019384019390910190612d1f565b60405162461bcd60e51b815260048101839052602c60248201527f4e6f7420617574686f72697a656420746f207669657720686f6c64657220636560448201526b7274696669636174696f6e7360a01b6064820152608490fd5b506000805260008252604060002033600052825260ff60406000205416612cf3565b507f0ce23c3e399818cfee81a7ab0880f714e53d7672b08df0fa62f2843416e1ea0960005260008252604060002033600052825260ff60406000205416612cec565b346105cb5760003660031901126105cb57612e30613966565b60025460ff811615612e6f5760ff19166002557f5db9ee0a495bf2e6ff9c91a7834c1ba4fdd244a5e8aa4e537bd38aeae4b073aa6020604051338152a1005b604051638dfc202b60e01b8152600490fd5b346105cb5760203660031901126105cb57600435600d548110156105cb57612eaa60209161378d565b905460405160039290921b1c6001600160a01b03168152f35b346105cb5760203660031901126105cb576004356000526007602052602060ff604060002054166040519015158152f35b346105cb5760203660031901126105cb5760043560005260036020526040600020805490600160a01b6001900390816001820154169160028201541660038201612f3d9061382c565b91612f4a6004820161382c565b612f566005830161382c565b6006830154600784015490600885015460098601612f739061382c565b92612f80600a880161382c565b94612f8d600b890161382c565b96600c89015460ff169a600d8a015499600e01549a6040519e8f9e8f9182526020820152604001528c6102006060819201528d01612fca916138f5565b8c810360808e0152612fdb916138f5565b8b810360a08d0152612fec916138f5565b92612ffd60c08c0160ff831661391a565b60e08b019060081c60ff169061301291613927565b6101008a0152610120890152878103610140890152613030916138f5565b868103610160880152613042916138f5565b858103610180870152613054916138f5565b9215156101a08501526101c08401526101e08301520390f35b346105cb5760403660031901126105cb57613086613626565b336001600160a01b038216036130a257610e5b90600435613af1565b60405163334bd91960e11b8152600490fd5b346105cb5760003660031901126105cb5760405180600d5480835260208093018091600d6000527fd7b6990105719101dabeb77144f2a3385c8033acd3af97e9423a695e81ad1eb59060005b8682821061315f578686613116828803836136e4565b604051928392818401908285525180915260408401929160005b82811061313f57505050500390f35b83516001600160a01b031685528695509381019392810192600101613130565b83546001600160a01b031685529093019260019283019201613100565b346105cb5760403660031901126105cb57610e5b60043561319b613626565b908060005260006020526131b66001604060002001546139a0565b613a78565b346105cb5760203660031901126105cb5760043560005260006020526020600160406000200154604051908152f35b346105cb5760403660031901126105cb57613203613610565b6001600160a01b03166000908152600460205260409020805460243591908210156105cb57602091611cf3916137da565b346105cb576132423661375b565b9061324b613b84565b613253613b66565b806000527f88dd5bfcd1480d8239680a502b1605b86fc91d0b0751a8793e970bd485c364cb613300602093600385526132926040600020541515613c6c565b83600052600385526132b560018060a01b03600260406000200154163314613cb8565b83600052600a85526132ce60ff60406000205416613f37565b83600052600a8552604060002060ff1981541690556132ed8433613f83565b60405191829186835233968301906138f5565b0390a360018055005b346105cb576020806003193601126105cb5760043590613327613b84565b61332f613b66565b81600052600381526133476040600020541515613c6c565b816000526003815261336a60018060a01b03600260406000200154163314613cb8565b81600052600a815261338360ff60406000205416613f37565b81600052600381526133a060ff600c604060002001541615613eeb565b8160005260038152600a604060002091600c83019260ff1993600185825416179055600e429101555260406000209081541690556133de8133613f83565b33817fb0362fc6491538fb6678490452845f8ad657e21a73e47a0ee8d96382b743c164600080a333907f2f52cd930e6cfca92f0ba9d7796686d682f6dc8a90b504f03dfd6e901d212bab600080a360018055005b346105cb576020806003193601126105cb576004356001600160401b0381116105cb5781611415613467923690600401613705565b8101600981520301902090604051908181845491828152019360005281600020916000905b8282106134a357610e9a85612d36818903826136e4565b83548652948501946001938401939091019061348c565b346105cb576020806003193601126105cb576001600160a01b036134dc613610565b16338114801561359b575b1561354157600052600b8152604060002090604051908181845491828152019360005281600020916000905b82821061352a57610e9a85612d36818903826136e4565b835486529485019460019384019390910190613513565b60405162461bcd60e51b815260048101839052602c60248201527f4e6f7420617574686f72697a656420746f20766965772070656e64696e67207660448201526b6572696669636174696f6e7360a01b6064820152608490fd5b506000805260008252604060002033600052825260ff604060002054166134e7565b346105cb5760203660031901126105cb576004359063ffffffff60e01b82168092036105cb57602091637965db0b60e01b81149081156135ff575b5015158152f35b6301ffc9a760e01b149050836135f8565b600435906001600160a01b03821682036105cb57565b602435906001600160a01b03821682036105cb57565b6020908160408183019282815285518094520193019160005b828110613663575050505090565b835185529381019392810192600101613655565b60a081019081106001600160401b0382111761098a57604052565b60e081019081106001600160401b0382111761098a57604052565b61020081019081106001600160401b0382111761098a57604052565b604081019081106001600160401b0382111761098a57604052565b90601f801991011681019081106001600160401b0382111761098a57604052565b81601f820112156105cb578035906001600160401b03821161098a5760405192613739601f8401601f1916602001856136e4565b828452602083830101116105cb57816000926020809301838601378301015290565b9060406003198301126105cb5760043591602435906001600160401b0382116105cb5761378a91600401613705565b90565b600d548110156137c457600d6000527fd7b6990105719101dabeb77144f2a3385c8033acd3af97e9423a695e81ad1eb50190600090565b634e487b7160e01b600052603260045260246000fd5b80548210156137c45760005260206000200190600090565b90600182811c92168015613822575b602083101461380c57565b634e487b7160e01b600052602260045260246000fd5b91607f1691613801565b9060405191826000825492613840846137f2565b9081845260019485811690816000146138af575060011461386c575b505061386a925003836136e4565b565b9093915060005260209081600020936000915b81831061389757505061386a9350820101388061385c565b8554888401850152948501948794509183019161387f565b91505061386a94506020925060ff191682840152151560051b820101388061385c565b60005b8381106138e55750506000910152565b81810151838201526020016138d5565b9060209161390e815180928185528580860191016138d2565b601f01601f1916010190565b906009821015610b455752565b906004821015610b455752565b60409060031901126105cb576004359060243590565b80548210156137c4576000526005602060002091020190600090565b3360009081527fad3228b676f7d3cd4284a5443f17f1962b36e491b30a40b2405849e597ba5fb5602052604081205460ff1615611efd5750565b80600052600060205260406000203360005260205260ff6040600020541615611efd5750565b6001600160a01b031660008181527ffe618c914587dd7ba3e1acd37a967f49c0ddd40aac12fbb6ca27c0d60e34d9d160205260408120549091907f65cb1d8422cdf0328f26b49e42e9f4524474c431da623cbe0ea455f1b67c9f779060ff16613a7357808352826020526040832082845260205260408320600160ff198254161790557f2f8788117e7eff1d82e926ec794901d17c78024a50270940304540a733656f0d339380a4600190565b505090565b9060009180835282602052604083209160018060a01b03169182845260205260ff60408420541615600014613a7357808352826020526040832082845260205260408320600160ff198254161790557f2f8788117e7eff1d82e926ec794901d17c78024a50270940304540a733656f0d339380a4600190565b9060009180835282602052604083209160018060a01b03169182845260205260ff604084205416600014613a735780835282602052604083208284526020526040832060ff1981541690557ff6391f5c32d9c69d2a47ea670b442974b53935d1edc7fd64eb21e047a839171b339380a4600190565b60ff60025416613b7257565b60405163d93c066560e01b8152600490fd5b600260015414613b95576002600155565b604051633ee5aeb560e01b8152600490fd5b15613bae57565b60405162461bcd60e51b815260206004820152601860248201527f436572746966696572206e6f74207265676973746572656400000000000000006044820152606490fd5b6000198114613c025760010190565b634e487b7160e01b600052601160045260246000fd5b6009821015610b455752565b6004821015610b455752565b90815491600160401b83101561098a5782613c5391600161386a950181556137da565b90919082549060031b91821b91600019901b1916179055565b15613c7357565b60405162461bcd60e51b815260206004820152601c60248201527f43657274696669636174696f6e20646f6573206e6f74206578697374000000006044820152606490fd5b15613cbf57565b60405162461bcd60e51b815260206004820152602e60248201527f4f6e6c792069737375696e67206365727469666965722063616e20706572666f60448201526d3936903a3434b99030b1ba34b7b760911b6064820152608490fd5b6009811015610b45578015613ebf5760018114613e855760028114613e575760038114613e325760048114613e0d5760058114613de35760068114613db257600714613d8257604051613d6d816136c9565b600581526427ba3432b960d91b602082015290565b604051613d8e816136c9565b601481527329b0b332ba3c9021b2b93a34b334b1b0ba34b7b760611b602082015290565b50604051613dbf816136c9565b60148152734c616e67756167652050726f66696369656e637960601b602082015290565b50604051613df0816136c9565b600d81526c4f6e6c696e6520436f7572736560981b602082015290565b50604051613e1a816136c9565b60088152670426f6f7463616d760c41b602082015290565b50604051613e3f816136c9565b60088152670576f726b73686f760c41b602082015290565b50604051613e64816136c9565b601181527021b7bab939b29021b7b6b83632ba34b7b760791b602082015290565b50604051613e92816136c9565b601a81527f50726f66657373696f6e616c2043657274696669636174696f6e000000000000602082015290565b50604051613ecc816136c9565b600f81526e151958da1b9a58d85b0814dada5b1b608a1b602082015290565b15613ef257565b60405162461bcd60e51b815260206004820152601760248201527f5265636f726420616c72656164792076657269666965640000000000000000006044820152606490fd5b15613f3e57565b60405162461bcd60e51b815260206004820152601a60248201527f566572696669636174696f6e206e6f74207265717565737465640000000000006044820152606490fd5b6001600160a01b03166000908152600b60205260408120909190825b815480821015614051578390613fb583856137da565b929054600393841b1c14613fd3575050613fce90613bf3565b613f9f565b92935093906000199283810190811161403d5790613c53613ff761400493876137da565b905490881b1c91866137da565b8254908115614029575081019261401b84846137da565b81939154921b1b1916905555565b634e487b7160e01b81526031600452602490fd5b634e487b7160e01b83526011600452602483fd5b505050505056fea2646970667358221220b0eec4c8fb578c1c4c48adddf2434763358a1dfff325b869643d993b013c72eb64736f6c634300081400332f8788117e7eff1d82e926ec794901d17c78024a50270940304540a733656f0d",
  "linkReferences": {},
  "deployedLinkReferences": {}
}