{
  "_format": "hh-sol-artifact-1",
  "contractName": "EducationContract",
  "sourceName": "contracts/EducationContract.sol",
  "abi": [
    {
      "inputs": [],
      "stateMutability": "nonpayable",
      "type": "constructor"
    },
    {
      "inputs": [],
      "name": "AccessControlBadConfirmation",
      "type": "error"
    },
    {
      "inputs": [
        {
          "internalType": "address",
          "name": "account",
          "type": "address"
        },
        {
          "internalType": "bytes32",
          "name": "neededRole",
          "type": "bytes32"
        }
      ],
      "name": "AccessControlUnauthorizedAccount",
      "type": "error"
    },
    {
      "inputs": [],
      "name": "EnforcedPause",
      "type": "error"
    },
    {
      "inputs": [],
      "name": "ExpectedPause",
      "type": "error"
    },
    {
      "inputs": [],
      "name": "ReentrancyGuardReentrantCall",
      "type": "error"
    },
    {
      "anonymous": false,
      "inputs": [
        {
          "indexed": true,
          "internalType": "uint256",
          "name": "recordId",
          "type": "uint256"
        },
        {
          "indexed": true,
          "internalType": "address",
          "name": "student",
          "type": "address"
        },
        {
          "indexed": true,
          "internalType": "address",
          "name": "institution",
          "type": "address"
        }
      ],
      "name": "EducationRecordAdded",
      "type": "event"
    },
    {
      "anonymous": false,
      "inputs": [
        {
          "indexed": true,
          "internalType": "uint256",
          "name": "recordId",
          "type": "uint256"
        },
        {
          "indexed": false,
          "internalType": "enum EducationContract.EducationStatus",
          "name": "newStatus",
          "type": "uint8"
        }
      ],
      "name": "EducationRecordUpdated",
      "type": "event"
    },
    {
      "anonymous": false,
      "inputs": [
        {
          "indexed": true,
          "internalType": "uint256",
          "name": "recordId",
          "type": "uint256"
        },
        {
          "indexed": true,
          "internalType": "address",
          "name": "verifier",
          "type": "address"
        }
      ],
      "name": "EducationRecordVerified",
      "type": "event"
    },
    {
      "anonymous": false,
      "inputs": [
        {
          "indexed": true,
          "internalType": "uint256",
          "name": "recordId",
          "type": "uint256"
        },
        {
          "indexed": false,
          "internalType": "string",
          "name": "newGrade",
          "type": "string"
        }
      ],
      "name": "GradeUpdated",
      "type": "event"
    },
    {
      "anonymous": false,
      "inputs": [
        {
          "indexed": true,
          "internalType": "address",
          "name": "institution",
          "type": "address"
        },
        {
          "indexed": false,
          "internalType": "string",
          "name": "name",
          "type": "string"
        },
        {
          "indexed": false,
          "internalType": "uint256",
          "name": "timestamp",
          "type": "uint256"
        }
      ],
      "name": "InstitutionRegistered",
      "type": "event"
    },
    {
      "anonymous": false,
      "inputs": [
        {
          "indexed": false,
          "internalType": "address",
          "name": "account",
          "type": "address"
        }
      ],
      "name": "Paused",
      "type": "event"
    },
    {
      "anonymous": false,
      "inputs": [
        {
          "indexed": true,
          "internalType": "bytes32",
          "name": "role",
          "type": "bytes32"
        },
        {
          "indexed": true,
          "internalType": "bytes32",
          "name": "previousAdminRole",
          "type": "bytes32"
        },
        {
          "indexed": true,
          "internalType": "bytes32",
          "name": "newAdminRole",
          "type": "bytes32"
        }
      ],
      "name": "RoleAdminChanged",
      "type": "event"
    },
    {
      "anonymous": false,
      "inputs": [
        {
          "indexed": true,
          "internalType": "bytes32",
          "name": "role",
          "type": "bytes32"
        },
        {
          "indexed": true,
          "internalType": "address",
          "name": "account",
          "type": "address"
        },
        {
          "indexed": true,
          "internalType": "address",
          "name": "sender",
          "type": "address"
        }
      ],
      "name": "RoleGranted",
      "type": "event"
    },
    {
      "anonymous": false,
      "inputs": [
        {
          "indexed": true,
          "internalType": "bytes32",
          "name": "role",
          "type": "bytes32"
        },
        {
          "indexed": true,
          "internalType": "address",
          "name": "account",
          "type": "address"
        },
        {
          "indexed": true,
          "internalType": "address",
          "name": "sender",
          "type": "address"
        }
      ],
      "name": "RoleRevoked",
      "type": "event"
    },
    {
      "anonymous": false,
      "inputs": [
        {
          "indexed": false,
          "internalType": "address",
          "name": "account",
          "type": "address"
        }
      ],
      "name": "Unpaused",
      "type": "event"
    },
    {
      "anonymous": false,
      "inputs": [
        {
          "indexed": true,
          "internalType": "uint256",
          "name": "recordId",
          "type": "uint256"
        },
        {
          "indexed": true,
          "internalType": "address",
          "name": "institution",
          "type": "address"
        }
      ],
      "name": "VerificationApproved",
      "type": "event"
    },
    {
      "anonymous": false,
      "inputs": [
        {
          "indexed": true,
          "internalType": "uint256",
          "name": "recordId",
          "type": "uint256"
        },
        {
          "indexed": true,
          "internalType": "address",
          "name": "institution",
          "type": "address"
        },
        {
          "indexed": false,
          "internalType": "string",
          "name": "reason",
          "type": "string"
        }
      ],
      "name": "VerificationRejected",
      "type": "event"
    },
    {
      "anonymous": false,
      "inputs": [
        {
          "indexed": true,
          "internalType": "uint256",
          "name": "recordId",
          "type": "uint256"
        },
        {
          "indexed": true,
          "internalType": "address",
          "name": "student",
          "type": "address"
        },
        {
          "indexed": true,
          "internalType": "address",
          "name": "institution",
          "type": "address"
        }
      ],
      "name": "VerificationRequested",
      "type": "event"
    },
    {
      "inputs": [],
      "name": "DEFAULT_ADMIN_ROLE",
      "outputs": [
        {
          "internalType": "bytes32",
          "name": "",
          "type": "bytes32"
        }
      ],
      "stateMutability": "view",
      "type": "function"
    },
    {
      "inputs": [],
      "name": "INSTITUTION_ROLE",
      "outputs": [
        {
          "internalType": "bytes32",
          "name": "",
          "type": "bytes32"
        }
      ],
      "stateMutability": "view",
      "type": "function"
    },
    {
      "inputs": [],
      "name": "VERIFIER_ROLE",
      "outputs": [
        {
          "internalType": "bytes32",
          "name": "",
          "type": "bytes32"
        }
      ],
      "stateMutability": "view",
      "type": "function"
    },
    {
      "inputs": [
        {
          "internalType": "address",
          "name": "_institution",
          "type": "address"
        }
      ],
      "name": "accreditInstitution",
      "outputs": [],
      "stateMutability": "nonpayable",
      "type": "function"
    },
    {
      "inputs": [
        {
          "internalType": "address",
          "name": "_student",
          "type": "address"
        },
        {
          "internalType": "string",
          "name": "_degree",
          "type": "string"
        },
        {
          "internalType": "string",
          "name": "_fieldOfStudy",
          "type": "string"
        },
        {
          "internalType": "enum EducationContract.EducationLevel",
          "name": "_level",
          "type": "uint8"
        },
        {
          "internalType": "uint256",
          "name": "_startDate",
          "type": "uint256"
        },
        {
          "internalType": "uint256",
          "name": "_endDate",
          "type": "uint256"
        },
        {
          "internalType": "string",
          "name": "_credentialHash",
          "type": "string"
        },
        {
          "internalType": "string",
          "name": "_documentHash",
          "type": "string"
        }
      ],
      "name": "addEducationRecord",
      "outputs": [],
      "stateMutability": "nonpayable",
      "type": "function"
    },
    {
      "inputs": [
        {
          "internalType": "uint256",
          "name": "",
          "type": "uint256"
        }
      ],
      "name": "allInstitutions",
      "outputs": [
        {
          "internalType": "address",
          "name": "",
          "type": "address"
        }
      ],
      "stateMutability": "view",
      "type": "function"
    },
    {
      "inputs": [
        {
          "internalType": "uint256",
          "name": "_recordId",
          "type": "uint256"
        }
      ],
      "name": "approveRecordVerification",
      "outputs": [],
      "stateMutability": "nonpayable",
      "type": "function"
    },
    {
      "inputs": [
        {
          "internalType": "address",
          "name": "_institution",
          "type": "address"
        }
      ],
      "name": "deactivateInstitution",
      "outputs": [],
      "stateMutability": "nonpayable",
      "type": "function"
    },
    {
      "inputs": [
        {
          "internalType": "uint256",
          "name": "",
          "type": "uint256"
        }
      ],
      "name": "educationRecords",
      "outputs": [
        {
          "internalType": "uint256",
          "name": "id",
          "type": "uint256"
        },
        {
          "internalType": "address",
          "name": "student",
          "type": "address"
        },
        {
          "internalType": "address",
          "name": "institution",
          "type": "address"
        },
        {
          "internalType": "string",
          "name": "institutionName",
          "type": "string"
        },
        {
          "internalType": "string",
          "name": "degree",
          "type": "string"
        },
        {
          "internalType": "string",
          "name": "fieldOfStudy",
          "type": "string"
        },
        {
          "internalType": "enum EducationContract.EducationLevel",
          "name": "level",
          "type": "uint8"
        },
        {
          "internalType": "enum EducationContract.EducationStatus",
          "name": "status",
          "type": "uint8"
        },
        {
          "internalType": "uint256",
          "name": "startDate",
          "type": "uint256"
        },
        {
          "internalType": "uint256",
          "name": "endDate",
          "type": "uint256"
        },
        {
          "internalType": "string",
          "name": "grade",
          "type": "string"
        },
        {
          "internalType": "string",
          "name": "credentialHash",
          "type": "string"
        },
        {
          "internalType": "string",
          "name": "documentHash",
          "type": "string"
        },
        {
          "internalType": "bool",
          "name": "isVerified",
          "type": "bool"
        },
        {
          "internalType": "uint256",
          "name": "createdAt",
          "type": "uint256"
        },
        {
          "internalType": "uint256",
          "name": "updatedAt",
          "type": "uint256"
        }
      ],
      "stateMutability": "view",
      "type": "function"
    },
    {
      "inputs": [],
      "name": "getAllInstitutions",
      "outputs": [
        {
          "internalType": "address[]",
          "name": "",
          "type": "address[]"
        }
      ],
      "stateMutability": "view",
      "type": "function"
    },
    {
      "inputs": [
        {
          "internalType": "enum EducationContract.EducationLevel",
          "name": "_level",
          "type": "uint8"
        }
      ],
      "name": "getEducationLevelString",
      "outputs": [
        {
          "internalType": "string",
          "name": "",
          "type": "string"
        }
      ],
      "stateMutability": "pure",
      "type": "function"
    },
    {
      "inputs": [
        {
          "internalType": "uint256",
          "name": "_recordId",
          "type": "uint256"
        }
      ],
      "name": "getEducationRecord",
      "outputs": [
        {
          "components": [
            {
              "internalType": "uint256",
              "name": "id",
              "type": "uint256"
            },
            {
              "internalType": "address",
              "name": "student",
              "type": "address"
            },
            {
              "internalType": "address",
              "name": "institution",
              "type": "address"
            },
            {
              "internalType": "string",
              "name": "institutionName",
              "type": "string"
            },
            {
              "internalType": "string",
              "name": "degree",
              "type": "string"
            },
            {
              "internalType": "string",
              "name": "fieldOfStudy",
              "type": "string"
            },
            {
              "internalType": "enum EducationContract.EducationLevel",
              "name": "level",
              "type": "uint8"
            },
            {
              "internalType": "enum EducationContract.EducationStatus",
              "name": "status",
              "type": "uint8"
            },
            {
              "internalType": "uint256",
              "name": "startDate",
              "type": "uint256"
            },
            {
              "internalType": "uint256",
              "name": "endDate",
              "type": "uint256"
            },
            {
              "internalType": "string",
              "name": "grade",
              "type": "string"
            },
            {
              "internalType": "string",
              "name": "credentialHash",
              "type": "string"
            },
            {
              "internalType": "string",
              "name": "documentHash",
              "type": "string"
            },
            {
              "internalType": "bool",
              "name": "isVerified",
              "type": "bool"
            },
            {
              "internalType": "uint256",
              "name": "createdAt",
              "type": "uint256"
            },
            {
              "internalType": "uint256",
              "name": "updatedAt",
              "type": "uint256"
            }
          ],
          "internalType": "struct EducationContract.EducationRecord",
          "name": "",
          "type": "tuple"
        }
      ],
      "stateMutability": "view",
      "type": "function"
    },
    {
      "inputs": [
        {
          "internalType": "enum EducationContract.EducationStatus",
          "name": "_status",
          "type": "uint8"
        }
      ],
      "name": "getEducationStatusString",
      "outputs": [
        {
          "internalType": "string",
          "name": "",
          "type": "string"
        }
      ],
      "stateMutability": "pure",
      "type": "function"
    },
    {
      "inputs": [
        {
          "internalType": "address",
          "name": "_institution",
          "type": "address"
        }
      ],
      "name": "getInstitutionInfo",
      "outputs": [
        {
          "components": [
            {
              "internalType": "address",
              "name": "institutionAddress",
              "type": "address"
            },
            {
              "internalType": "string",
              "name": "name",
              "type": "string"
            },
            {
              "internalType": "string",
              "name": "registrationNumber",
              "type": "string"
            },
            {
              "internalType": "string",
              "name": "country",
              "type": "string"
            },
            {
              "internalType": "bool",
              "name": "isAccredited",
              "type": "bool"
            },
            {
              "internalType": "bool",
              "name": "isActive",
              "type": "bool"
            },
            {
              "internalType": "uint256",
              "name": "registeredAt",
              "type": "uint256"
            }
          ],
          "internalType": "struct EducationContract.Institution",
          "name": "",
          "type": "tuple"
        }
      ],
      "stateMutability": "view",
      "type": "function"
    },
    {
      "inputs": [
        {
          "internalType": "address",
          "name": "_institution",
          "type": "address"
        }
      ],
      "name": "getInstitutionPendingVerifications",
      "outputs": [
        {
          "internalType": "uint256[]",
          "name": "",
          "type": "uint256[]"
        }
      ],
      "stateMutability": "view",
      "type": "function"
    },
    {
      "inputs": [
        {
          "internalType": "bytes32",
          "name": "role",
          "type": "bytes32"
        }
      ],
      "name": "getRoleAdmin",
      "outputs": [
        {
          "internalType": "bytes32",
          "name": "",
          "type": "bytes32"
        }
      ],
      "stateMutability": "view",
      "type": "function"
    },
    {
      "inputs": [
        {
          "internalType": "address",
          "name": "_student",
          "type": "address"
        }
      ],
      "name": "getStudentRecords",
      "outputs": [
        {
          "internalType": "uint256[]",
          "name": "",
          "type": "uint256[]"
        }
      ],
      "stateMutability": "view",
      "type": "function"
    },
    {
      "inputs": [
        {
          "internalType": "bytes32",
          "name": "role",
          "type": "bytes32"
        },
        {
          "internalType": "address",
          "name": "account",
          "type": "address"
        }
      ],
      "name": "grantRole",
      "outputs": [],
      "stateMutability": "nonpayable",
      "type": "function"
    },
    {
      "inputs": [
        {
          "internalType": "bytes32",
          "name": "role",
          "type": "bytes32"
        },
        {
          "internalType": "address",
          "name": "account",
          "type": "address"
        }
      ],
      "name": "hasRole",
      "outputs": [
        {
          "internalType": "bool",
          "name": "",
          "type": "bool"
        }
      ],
      "stateMutability": "view",
      "type": "function"
    },
    {
      "inputs": [
        {
          "internalType": "address",
          "name": "",
          "type": "address"
        },
        {
          "internalType": "uint256",
          "name": "",
          "type": "uint256"
        }
      ],
      "name": "institutionPendingVerifications",
      "outputs": [
        {
          "internalType": "uint256",
          "name": "",
          "type": "uint256"
        }
      ],
      "stateMutability": "view",
      "type": "function"
    },
    {
      "inputs": [
        {
          "internalType": "address",
          "name": "",
          "type": "address"
        }
      ],
      "name": "institutions",
      "outputs": [
        {
          "internalType": "address",
          "name": "institutionAddress",
          "type": "address"
        },
        {
          "internalType": "string",
          "name": "name",
          "type": "string"
        },
        {
          "internalType": "string",
          "name": "registrationNumber",
          "type": "string"
        },
        {
          "internalType": "string",
          "name": "country",
          "type": "string"
        },
        {
          "internalType": "bool",
          "name": "isAccredited",
          "type": "bool"
        },
        {
          "internalType": "bool",
          "name": "isActive",
          "type": "bool"
        },
        {
          "internalType": "uint256",
          "name": "registeredAt",
          "type": "uint256"
        }
      ],
      "stateMutability": "view",
      "type": "function"
    },
    {
      "inputs": [
        {
          "internalType": "address",
          "name": "",
          "type": "address"
        }
      ],
      "name": "isRegisteredInstitution",
      "outputs": [
        {
          "internalType": "bool",
          "name": "",
          "type": "bool"
        }
      ],
      "stateMutability": "view",
      "type": "function"
    },
    {
      "inputs": [],
      "name": "pause",
      "outputs": [],
      "stateMutability": "nonpayable",
      "type": "function"
    },
    {
      "inputs": [],
      "name": "paused",
      "outputs": [
        {
          "internalType": "bool",
          "name": "",
          "type": "bool"
        }
      ],
      "stateMutability": "view",
      "type": "function"
    },
    {
      "inputs": [
        {
          "internalType": "string",
          "name": "_name",
          "type": "string"
        },
        {
          "internalType": "string",
          "name": "_registrationNumber",
          "type": "string"
        },
        {
          "internalType": "string",
          "name": "_country",
          "type": "string"
        }
      ],
      "name": "registerInstitution",
      "outputs": [],
      "stateMutability": "nonpayable",
      "type": "function"
    },
    {
      "inputs": [
        {
          "internalType": "uint256",
          "name": "_recordId",
          "type": "uint256"
        },
        {
          "internalType": "string",
          "name": "_reason",
          "type": "string"
        }
      ],
      "name": "rejectRecordVerification",
      "outputs": [],
      "stateMutability": "nonpayable",
      "type": "function"
    },
    {
      "inputs": [
        {
          "internalType": "bytes32",
          "name": "role",
          "type": "bytes32"
        },
        {
          "internalType": "address",
          "name": "callerConfirmation",
          "type": "address"
        }
      ],
      "name": "renounceRole",
      "outputs": [],
      "stateMutability": "nonpayable",
      "type": "function"
    },
    {
      "inputs": [
        {
          "internalType": "uint256",
          "name": "_recordId",
          "type": "uint256"
        }
      ],
      "name": "requestRecordVerification",
      "outputs": [],
      "stateMutability": "nonpayable",
      "type": "function"
    },
    {
      "inputs": [
        {
          "internalType": "bytes32",
          "name": "role",
          "type": "bytes32"
        },
        {
          "internalType": "address",
          "name": "account",
          "type": "address"
        }
      ],
      "name": "revokeRole",
      "outputs": [],
      "stateMutability": "nonpayable",
      "type": "function"
    },
    {
      "inputs": [
        {
          "internalType": "address",
          "name": "",
          "type": "address"
        },
        {
          "internalType": "uint256",
          "name": "",
          "type": "uint256"
        }
      ],
      "name": "studentRecords",
      "outputs": [
        {
          "internalType": "uint256",
          "name": "",
          "type": "uint256"
        }
      ],
      "stateMutability": "view",
      "type": "function"
    },
    {
      "inputs": [
        {
          "internalType": "bytes4",
          "name": "interfaceId",
          "type": "bytes4"
        }
      ],
      "name": "supportsInterface",
      "outputs": [
        {
          "internalType": "bool",
          "name": "",
          "type": "bool"
        }
      ],
      "stateMutability": "view",
      "type": "function"
    },
    {
      "inputs": [],
      "name": "unpause",
      "outputs": [],
      "stateMutability": "nonpayable",
      "type": "function"
    },
    {
      "inputs": [
        {
          "internalType": "uint256",
          "name": "_recordId",
          "type": "uint256"
        },
        {
          "internalType": "enum EducationContract.EducationStatus",
          "name": "_newStatus",
          "type": "uint8"
        }
      ],
      "name": "updateEducationStatus",
      "outputs": [],
      "stateMutability": "nonpayable",
      "type": "function"
    },
    {
      "inputs": [
        {
          "internalType": "uint256",
          "name": "_recordId",
          "type": "uint256"
        },
        {
          "internalType": "string",
          "name": "_grade",
          "type": "string"
        }
      ],
      "name": "updateGrade",
      "outputs": [],
      "stateMutability": "nonpayable",
      "type": "function"
    },
    {
      "inputs": [
        {
          "internalType": "bytes32",
          "name": "",
          "type": "bytes32"
        }
      ],
      "name": "usedCredentialHashes",
      "outputs": [
        {
          "internalType": "bool",
          "name": "",
          "type": "bool"
        }
      ],
      "stateMutability": "view",
      "type": "function"
    },
    {
      "inputs": [
        {
          "internalType": "uint256",
          "name": "",
          "type": "uint256"
        }
      ],
      "name": "verificationRequested",
      "outputs": [
        {
          "internalType": "bool",
          "name": "",
          "type": "bool"
        }
      ],
      "stateMutability": "view",
      "type": "function"
    },
    {
      "inputs": [
        {
          "internalType": "uint256",
          "name": "_recordId",
          "type": "uint256"
        }
      ],
      "name": "verifyEducationRecord",
      "outputs": [],
      "stateMutability": "nonpayable",
      "type": "function"
    }
  ],
  "bytecode": "0x6080604052346200003b57600180556001600a556200001e3362000040565b506200002a33620000c0565b5060405161387b9081620001638239f35b600080fd5b6001600160a01b031660008181527fad3228b676f7d3cd4284a5443f17f1962b36e491b30a40b2405849e597ba5fb5602052604081205490919060ff16620000bc57818052816020526040822081835260205260408220600160ff198254161790553391600080516020620039de8339815191528180a4600190565b5090565b6001600160a01b031660008181527f1da0b5176dfe03406af5a6eed66ca01dda9b45ac4da671c3fa379cb93717ef8160205260408120549091907f0ce23c3e399818cfee81a7ab0880f714e53d7672b08df0fa62f2843416e1ea099060ff166200015d57808352826020526040832082845260205260408320600160ff19825416179055600080516020620039de833981519152339380a4600190565b50509056fe608080604052600436101561001357600080fd5b60003560e01c90816301ffc9a714612cf6575080630bb73edd14612bcd5780630ceda96c14612aca5780631807746a146129f55780631b929c21146129cc578063248a9ca31461299d5780632f2ff15d1461295e57806336568abe146129175780633d7f6e2c146128e65780633da1816814611c505780633f4ba83a14611be65780634104180e14611b1e5780634fe6e765146119ae57806350841ab71461183157806351d1df47146116bf57806354d41eb51461167d57806355e293931461161a578063588bc76d146114a15780635c975abb1461147e57806378b06d791461109c5780637b656ada14611052578063835301bc14610f435780638456cb5914610ee95780638ea0534b14610e9157806391d1485414610e44578063a11f122a14610c25578063a217fddf14610c09578063abf7d796146105c6578063b2d9767f14610503578063c6bd734e146104a2578063d547741f14610461578063d6a7b06314610438578063d93ec2b6146103f9578063ddd6cb4f14610268578063dfe43d9614610237578063e7705db6146101fc5763eafeb4ca146101b657600080fd5b346101f75760203660031901126101f75760043560048110156101f7576101df6101f391613622565b604051918291602083526020830190612ece565b0390f35b600080fd5b346101f75760003660031901126101f75760206040517f0ce23c3e399818cfee81a7ab0880f714e53d7672b08df0fa62f2843416e1ea098152f35b346101f75760203660031901126101f7576004356000526008602052602060ff604060002054166040519015158152f35b346101f7576020806003193601126101f75760043561028561325e565b61028d613240565b80600052600382526102a56040600020541515613365565b60008181526003835260409020600101546001600160a01b0390811633036103a85781600052600383526102e460ff600c604060002001541615613416565b816000526008835260ff604060002054166103635760099082600052600884526040600020600160ff198254161790556003845260026040600020015416928360005252610336816040600020613329565b33907f94ea9519a26f9cef618942be536c77d0af6bd419afe375eeb30875b20b82d294600080a460018055005b60405162461bcd60e51b815260048101849052601e60248201527f566572696669636174696f6e20616c72656164792072657175657374656400006044820152606490fd5b60405162461bcd60e51b8152600481018490526024808201527f4f6e6c792073747564656e742063616e20706572666f726d20746869732061636044820152633a34b7b760e11b6064820152608490fd5b346101f75760203660031901126101f7576001600160a01b0361041a612e5a565b166000526006602052602060ff604060002054166040519015158152f35b346101f75760203660031901126101f757600435600a8110156101f7576101df6101f391613462565b346101f75760403660031901126101f7576104a0600435610480612e44565b9080600052600060205261049b60016040600020015461308c565b6131cb565b005b346101f75760203660031901126101f7576104bb612e5a565b6104c3613052565b6001600160a01b03166000818152600660205260409020546104e79060ff16613281565b6000908152600560205260409020600401805461ff0019169055005b346101f75760203660031901126101f7576001600160a01b0380610525612e5a565b16600052600560205260406000209081541661054360018301612f92565b9161055060028201612f92565b60ff6105a761056160038501612f92565b610599600560048701549601549461058b604051998a998a5260e060208b015260e08a0190612ece565b9088820360408a0152612ece565b908682036060880152612ece565b928181161515608086015260081c16151560a084015260c08301520390f35b346101f75760603660031901126101f7576004356001600160401b0381116101f7576105f6903690600401612dbc565b6024356001600160401b0381116101f757610615903690600401612dbc565b906044356001600160401b0381116101f757610635903690600401612dbc565b9061063e61325e565b610646613240565b33600052600660205260ff60406000205416610bc457805115610b8057825115610b2f576040519161067783612d65565b33835260208301938285526040840152606083015260006080830152600160a08301524260c083015233600052600560205260406000209260018060a01b038351166bffffffffffffffffffffffff60a01b855416178455519283516001600160401b0381116108d0576106ee6001830154612f58565b601f8111610ae8575b506020601f8211600114610a79578192939495600092610a6e575b50508160011b916000199060031b1c19161760018201555b60408301519283516001600160401b0381116108d05761074d6002840154612f58565b601f8111610a27575b506020601f82116001146109b85781929394956000926109ad575b50508160011b916000199060031b1c19161760028301555b60608101518051906001600160401b0382116108d0576107ac6003850154612f58565b601f8111610966575b50602090601f83116001146108f15791806005949260c0946000926108e6575b50508160011b916000199060031b1c19161760038501555b6004840161080d60808301511515829060ff801983541691151516179055565b60a0820151815461ff00191690151560081b61ff00161790550151910155336000908152600660205260409020805460ff19166001179055600b54600160401b8110156108d0578060016108649201600b55612ef3565b81549060031b9033821b9160018060a01b03901b1916179055610886336130b2565b507f7c0f5cc09780e7fbbb9700dc48f49cdadcdf5d8c8a674b8a8725af30071dc82f6108bd60405192604084526040840190612ece565b914260208201528033930390a260018055005b634e487b7160e01b600052604160045260246000fd5b0151905087806107d5565b906003850160005260206000209160005b601f198516811061094e5750926005949260019260c09583601f19811610610935575b505050811b0160038501556107ed565b015160001960f88460031b161c19169055878080610925565b91926020600181928685015181550194019201610902565b600385016000526020600020601f840160051c8101602085106109a6575b601f830160051c8201811061099a5750506107b5565b60008155600101610984565b5080610984565b015190508580610771565b6002840160005260206000209060005b601f1984168110610a0f575060019394959683601f198116106109f6575b505050811b016002830155610789565b015160001960f88460031b161c191690558580806109e6565b9091602060018192858b0151815501930191016109c8565b600284016000526020600020601f830160051c810160208410610a67575b601f830160051c82018110610a5b575050610756565b60008155600101610a45565b5080610a45565b015190508580610712565b6001830160005260206000209060005b601f1984168110610ad0575060019394959683601f19811610610ab7575b505050811b01600182015561072a565b015160001960f88460031b161c19169055858080610aa7565b9091602060018192858b015181550193019101610a89565b600183016000526020600020601f830160051c810160208410610b28575b601f830160051c82018110610b1c5750506106f7565b60008155600101610b06565b5080610b06565b60405162461bcd60e51b815260206004820152602360248201527f526567697374726174696f6e206e756d6265722063616e6e6f7420626520656d60448201526270747960e81b6064820152608490fd5b606460405162461bcd60e51b815260206004820152602060248201527f496e737469747574696f6e206e616d652063616e6e6f7420626520656d7074796044820152fd5b60405162461bcd60e51b815260206004820152601e60248201527f496e737469747574696f6e20616c7265616479207265676973746572656400006044820152606490fd5b346101f75760003660031901126101f757602060405160008152f35b346101f757610c3336612e12565b90610c3c61325e565b610c44613240565b8060005260209160038352610c5f6040600020541515613365565b8160005260038352610c8260018060a01b036002604060002001541633146133b1565b805115610e0757816000526003835260406000209260098401938251946001600160401b0386116108d057610cb78154612f58565b601f8111610dc1575b5082601f8711600114610d3c5795807ffd0dd042a956329339e534ae02b95605647e440841ad0a0dc52777d60f1bfc3d9697600091610d31575b508160011b916000199060031b1c19161790555b600e42910155610d28604051928284938452830190612ece565b0390a260018055005b905085015188610cfa565b601f1987169082600052846000209160005b818110610daa57509188917ffd0dd042a956329339e534ae02b95605647e440841ad0a0dc52777d60f1bfc3d989960019410610d91575b5050811b019055610d0e565b87015160001960f88460031b161c191690558880610d85565b91928660018192868b015181550194019201610d4e565b8160005283600020601f880160051c810191858910610dfd575b601f0160051c01905b818110610df15750610cc0565b60008155600101610de4565b9091508190610ddb565b60405162461bcd60e51b815260048101849052601560248201527447726164652063616e6e6f7420626520656d70747960581b6044820152606490fd5b346101f75760403660031901126101f757610e5d612e44565b600435600052600060205260406000209060018060a01b0316600052602052602060ff604060002054166040519015158152f35b346101f75760403660031901126101f757610eaa612e5a565b6001600160a01b03166000908152600960205260409020805460243591908210156101f757602091610edb91612f40565b90546040519160031b1c8152f35b346101f75760003660031901126101f757610f02613052565b610f0a613240565b600160ff1960025416176002557f62e78cea01bee320cd4e420270b5ea74000d11b0c9f74754ebdbfc544b05a2586020604051338152a1005b346101f7576020806003193601126101f7576001600160a01b03610f65612e5a565b163381148015611030575b15610fd65760005260098152604060002090604051908181845491828152019360005281600020916000905b828210610fbf576101f385610fb381890382612d9b565b60405191829182612e70565b835486529485019460019384019390910190610f9c565b60405162461bcd60e51b815260048101839052602c60248201527f4e6f7420617574686f72697a656420746f20766965772070656e64696e67207660448201526b6572696669636174696f6e7360a01b6064820152608490fd5b506000805260008252604060002033600052825260ff60406000205416610f70565b346101f75760403660031901126101f75761106b612e5a565b6001600160a01b03166000908152600460205260409020805460243591908210156101f757602091610edb91612f40565b346101f75760203660031901126101f75760006101e06040516110be81612d49565b82815282602082015282604082015260608082015260606080820152606060a08201528260c08201528260e08201528261010082015282610120820152606061014082015260606101608201526060610180820152826101a0820152826101c0820152015260043580600052600360205261113f6040600020541515613365565b60005260036020526040600020600e6040519161115b83612d49565b8054835260018101546001600160a01b039081166020850152600282015416604084015261118b60038201612f92565b606084015261119c60048201612f92565b60808401526111ad60058201612f92565b60a08401526111d860ff60068301546111cb82821660c088016132f2565b60081c1660e085016132fe565b600781015461010084015260088101546101208401526111fa60098201612f92565b61014084015261120c600a8201612f92565b61016084015261121e600b8201612f92565b610180840152600c81015460ff1615156101a0840152600d8101546101c084015201546101e082015260208101516001600160a01b031633148015611468575b8015611430575b80156113f8575b156113a8576040518091602082528051602083015260018060a01b03602082015116604083015260018060a01b0360408201511660608301526101e061138361136b6113536112fe6112e86112d2606088015161020060808b01526102208a0190612ece565b6080880151898203601f190160a08b0152612ece565b60a0870151888203601f190160c08a0152612ece565b61131060c087015160e0890190613038565b61132360e0870151610100890190613045565b610100860151610120880152610120860151610140880152610140860151601f1988830301610160890152612ece565b610160850151868203601f1901610180880152612ece565b610180840151858203601f19016101a0870152612ece565b916101a081015115156101c08501526101c08101518285015201516102008301520390f35b60405162461bcd60e51b815260206004820152602260248201527f4e6f7420617574686f72697a656420746f20766965772074686973207265636f6044820152611c9960f21b6064820152608490fd5b503360009081527fad3228b676f7d3cd4284a5443f17f1962b36e491b30a40b2405849e597ba5fb5602052604090205460ff1661126c565b503360009081527f1da0b5176dfe03406af5a6eed66ca01dda9b45ac4da671c3fa379cb93717ef81602052604090205460ff16611265565b5060408101516001600160a01b0316331461125e565b346101f75760003660031901126101f757602060ff600254166040519015158152f35b346101f75760203660031901126101f75760043560005260036020526040600020805490600160a01b60019003908160018201541691600282015416600382016114ea90612f92565b916114f760048201612f92565b61150360058301612f92565b600683015460078401549060088501546009860161152090612f92565b9261152d600a8801612f92565b9461153a600b8901612f92565b96600c89015460ff169a600d8a015499600e01549a6040519e8f9e8f9182526020820152604001528c6102006060819201528d0161157791612ece565b8c810360808e015261158891612ece565b8b810360a08d015261159991612ece565b926115aa60c08c0160ff8316613038565b60e08b019060081c60ff16906115bf91613045565b6101008a01526101208901528781036101408901526115dd91612ece565b8681036101608801526115ef91612ece565b85810361018087015261160191612ece565b9215156101a08501526101c08401526101e08301520390f35b346101f75760203660031901126101f757611633612e5a565b61163b613052565b6001600160a01b031660008181526006602052604090205461165f9060ff16613281565b6000908152600560205260409020600401805460ff19166001179055005b346101f75760203660031901126101f757600435600b548110156101f7576116a6602091612ef3565b905460405160039290921b1c6001600160a01b03168152f35b346101f7576020806003193601126101f7576116d9612e5a565b90604051906116e782612d65565b6000825260609182828201528260408201528280820152608081016000905260a081016000905260c00160009052600160a01b60019003809316806000526006825260406000205460ff1661173b90613281565b600052600581526040600020906040519261175584612d65565b82548516845261176760018401612f92565b8483019081529061177a60028501612f92565b6040860190815261178d60038601612f92565b90828701918252600486015493608088019660ff86161515885260a089019560081c60ff1615158652600501549560c08901968752604051998a99828b52511690890152516040880160e0905261010088016117e891612ece565b905190601f199384898303019089015261180191612ece565b90519186820301608087015261181691612ece565b9251151560a085015251151560c08401525160e08301520390f35b346101f7576020806003193601126101f7576001600160a01b03611853612e5a565b16338114801561197e575b801561193c575b801561191a575b156118c65760005260048152604060002090604051908181845491828152019360005281600020916000905b8282106118af576101f385610fb381890382612d9b565b835486529485019460019384019390910190611898565b60405162461bcd60e51b815260048101839052602660248201527f4e6f7420617574686f72697a656420746f20766965772073747564656e74207260448201526565636f72647360d01b6064820152608490fd5b506000805260008252604060002033600052825260ff6040600020541661186c565b507f0ce23c3e399818cfee81a7ab0880f714e53d7672b08df0fa62f2843416e1ea0960005260008252604060002033600052825260ff60406000205416611865565b5060008051602061382683398151915260005260008252604060002033600052825260ff6040600020541661185e565b346101f75760403660031901126101f75760043560243560048110156101f7576119d661325e565b6119de613240565b8160005260036020526119f76040600020541515613365565b816000526003602052611a1b60018060a01b036002604060002001541633146133b1565b816000526003602052604060002090600682019060ff825460081c166004811015611b08578114611ab7577f6ba225ab518f4b4a314fd8d71d48f2263bd9ac0b8553e63532ef6eb06db3e01192611a748260209461330a565b42600e8201556001821480611aaa575b611a9e575b50611a976040518092613045565ba260018055005b60084291015584611a89565b5042600882015411611a84565b60405162461bcd60e51b815260206004820152602360248201527f53746174757320697320616c72656164792073657420746f20746869732076616044820152626c756560e81b6064820152608490fd5b634e487b7160e01b600052602160045260246000fd5b346101f75760003660031901126101f75760405180600b5480835260208093018091600b6000527f0175b7a638427703f0dbe7bb9bbf987a2551717b34e79f33b5b1008d1fa01db99060005b86828210611bc9578686611b8082880383612d9b565b604051928392818401908285525180915260408401929160005b828110611ba957505050500390f35b83516001600160a01b031685528695509381019392810192600101611b9a565b83546001600160a01b031685529093019260019283019201611b6a565b346101f75760003660031901126101f757611bff613052565b60025460ff811615611c3e5760ff19166002557f5db9ee0a495bf2e6ff9c91a7834c1ba4fdd244a5e8aa4e537bd38aeae4b073aa6020604051338152a1005b604051638dfc202b60e01b8152600490fd5b346101f7576101003660031901126101f757611c6a612e5a565b6024356001600160401b0381116101f757611c89903690600401612dbc565b6044356001600160401b0381116101f757611ca8903690600401612dbc565b600a60643510156101f75760c4356001600160401b0381116101f757611cd2903690600401612dbc565b9060e4356001600160401b0381116101f757611cf2903690600401612dbc565b611cfa61325e565b611d02613240565b3360009081527f6e5b6ea180bfa34b9e2cec8a38343dd4c56148361307ce1b217a55dac3e7354060205260409020546000805160206138268339815191529060ff16156128c857506001600160a01b0385161561288357336000526006602052611d7360ff60406000205416613281565b83511561284557608435151580612839575b156127ff5760843560a435106127b05782511561276b576040516020810190611dc66020828751611db98187858c01612eab565b8101038084520182612d9b565b5190209283600052600760205260ff6040600020541661272657611e67600a5495611df0876132cd565b600a55336000908152600560205260409020600101944260a4351161271e576001915b611e4060405197611e2389612d49565b8a89526001600160a01b038c1660208a01523360408a0152612f92565b6060880152608087015260a0860152611e5e60643560c087016132f2565b60e085016132fe565b60843561010084015260a4356101208401526040518060208101106001600160401b036020830111176108d057602081016040526000815261014084015261016083015261018082015260006101a0820152426101c0820152426101e0820152826000526003602052604060002090805182556001820160018060a01b03602083015116906bffffffffffffffffffffffff60a01b9182825416179055600283019060018060a01b036040840151169082541617905560608101518051906001600160401b0382116108d0578190611f426003860154612f58565b601f81116126cb575b50602090601f83116001146126595760009261264e575b50508160011b916000199060031b1c19161760038301555b60808101518051906001600160401b0382116108d0578190611f9f6004860154612f58565b601f81116125fb575b50602090601f83116001146125895760009261257e575b50508160011b916000199060031b1c19161760048301555b60a08101518051906001600160401b0382116108d0578190611ffc6005860154612f58565b601f811161252b575b50602090601f83116001146124b9576000926124ae575b50508160011b916000199060031b1c19161760058301555b60c0810151600a811015611b085760ff8019600685015416911617600683015560e08101516004811015611b085761206f906006840161330a565b610100810151600783015561012081015160088301556101408101518051906001600160401b0382116108d05781906120ab6009860154612f58565b601f811161245b575b50602090601f83116001146123e9576000926123de575b50508160011b916000199060031b1c19161760098301555b6101608101518051906001600160401b0382116108d0578190612109600a860154612f58565b601f811161238b575b50602090601f83116001146123195760009261230e575b50508160011b916000199060031b1c191617600a8301555b6101808101518051906001600160401b0382116108d057612165600b850154612f58565b601f81116122c7575b50602090601f8311600114612251579180600e94926101e094600092612246575b50508160011b916000199060031b1c191617600b8501555b6121c76101a08201511515600c86019060ff801983541691151516179055565b6101c0810151600d850155015191015560018060a01b03831660005260046020526121f6826040600020613329565b6000908152600760205260408120805460ff1916600117905533926001600160a01b031691907fcc9c2c01b8045a81e023ed658361f39a634c9a27c63e62a663f5ecd3dfd0961b9080a460018055005b01519050898061218f565b90600b850160005260206000209160005b601f19851681106122af575092600e94926001926101e09583601f19811610612296575b505050811b01600b8501556121a7565b015160001960f88460031b161c19169055898080612286565b91926020600181928685015181550194019201612262565b600b85016000526020600020601f840160051c810160208510612307575b601f830160051c820181106122fb57505061216e565b600081556001016122e5565b50806122e5565b015190508780612129565b9250600a85016000526020600020906000935b601f1984168510612370576001945083601f19811610612357575b505050811b01600a830155612141565b015160001960f88460031b161c19169055878080612347565b8181015183556020948501946001909301929091019061232c565b909150600a85016000526020600020601f840160051c8101602085106123d7575b90849392915b601f830160051c820181106123c8575050612112565b600081558594506001016123b2565b50806123ac565b0151905087806120cb565b9250600985016000526020600020906000935b601f1984168510612440576001945083601f19811610612427575b505050811b0160098301556120e3565b015160001960f88460031b161c19169055878080612417565b818101518355602094850194600190930192909101906123fc565b909150600985016000526020600020601f840160051c8101602085106124a7575b90849392915b601f830160051c820181106124985750506120b4565b60008155859450600101612482565b508061247c565b01519050878061201c565b9250600585016000526020600020906000935b601f1984168510612510576001945083601f198116106124f7575b505050811b016005830155612034565b015160001960f88460031b161c191690558780806124e7565b818101518355602094850194600190930192909101906124cc565b909150600585016000526020600020601f840160051c810160208510612577575b90849392915b601f830160051c82018110612568575050612005565b60008155859450600101612552565b508061254c565b015190508780611fbf565b9250600485016000526020600020906000935b601f19841685106125e0576001945083601f198116106125c7575b505050811b016004830155611fd7565b015160001960f88460031b161c191690558780806125b7565b8181015183556020948501946001909301929091019061259c565b909150600485016000526020600020601f840160051c810160208510612647575b90849392915b601f830160051c82018110612638575050611fa8565b60008155859450600101612622565b508061261c565b015190508780611f62565b9250600385016000526020600020906000935b601f19841685106126b0576001945083601f19811610612697575b505050811b016003830155611f7a565b015160001960f88460031b161c19169055878080612687565b8181015183556020948501946001909301929091019061266c565b909150600385016000526020600020601f840160051c810160208510612717575b90849392915b601f830160051c82018110612708575050611f4b565b600081558594506001016126f2565b50806126ec565b600091611e13565b60405162461bcd60e51b815260206004820152601c60248201527f43726564656e7469616c206861736820616c72656164792075736564000000006044820152606490fd5b60405162461bcd60e51b815260206004820152601f60248201527f43726564656e7469616c20686173682063616e6e6f7420626520656d707479006044820152606490fd5b60405162461bcd60e51b815260206004820152602160248201527f456e642064617465206d757374206265206166746572207374617274206461746044820152606560f81b6064820152608490fd5b60405162461bcd60e51b8152602060048201526012602482015271496e76616c6964207374617274206461746560701b6044820152606490fd5b50426084351115611d85565b60405162461bcd60e51b81526020600482015260166024820152754465677265652063616e6e6f7420626520656d70747960501b6044820152606490fd5b60405162461bcd60e51b815260206004820152601760248201527f496e76616c69642073747564656e7420616464726573730000000000000000006044820152606490fd5b6044906040519063e2517d3f60e01b82523360048301526024820152fd5b346101f75760203660031901126101f7576004356000526007602052602060ff604060002054166040519015158152f35b346101f75760403660031901126101f757612930612e44565b336001600160a01b0382160361294c576104a0906004356131cb565b60405163334bd91960e11b8152600490fd5b346101f75760403660031901126101f7576104a060043561297d612e44565b9080600052600060205261299860016040600020015461308c565b613152565b346101f75760203660031901126101f75760043560005260006020526020600160406000200154604051908152f35b346101f75760003660031901126101f75760206040516000805160206138268339815191528152f35b346101f757612a0336612e12565b90612a0c61325e565b612a14613240565b806000527f88dd5bfcd1480d8239680a502b1605b86fc91d0b0751a8793e970bd485c364cb612ac160209360038552612a536040600020541515613365565b8360005260038552612a7660018060a01b036002604060002001541633146133b1565b8360005260088552612a8f60ff60406000205416613704565b8360005260088552604060002060ff198154169055612aae8433613750565b6040519182918683523396830190612ece565b0390a360018055005b346101f7576020806003193601126101f75760043590612ae861325e565b612af0613240565b8160005260038152612b086040600020541515613365565b7f0ce23c3e399818cfee81a7ab0880f714e53d7672b08df0fa62f2843416e1ea098060005260008252604060002033600052825260ff60406000205416156128c8575081600052600381526040600020906001600c8301916006835491612b7260ff841615613416565b838060a01b0360028701541660005252612b9360ff60406000205416613281565b60ff1916179055600e4291015533907f5b344dc7b483e6cfe223e5bb202682da9df87815336ffaa3f244b14ba318cf6b600080a360018055005b346101f7576020806003193601126101f75760043590612beb61325e565b612bf3613240565b8160005260038152612c0b6040600020541515613365565b8160005260038152612c2e60018060a01b036002604060002001541633146133b1565b8160005260088152612c4760ff60406000205416613704565b8160005260038152612c6460ff600c604060002001541615613416565b81600052600381526008604060002091600c83019260ff1993600185825416179055600e42910155526040600020908154169055612ca28133613750565b33817fb0362fc6491538fb6678490452845f8ad657e21a73e47a0ee8d96382b743c164600080a333907f5b344dc7b483e6cfe223e5bb202682da9df87815336ffaa3f244b14ba318cf6b600080a360018055005b346101f75760203660031901126101f7576004359063ffffffff60e01b82168092036101f757602091637965db0b60e01b8114908115612d38575b5015158152f35b6301ffc9a760e01b14905083612d31565b61020081019081106001600160401b038211176108d057604052565b60e081019081106001600160401b038211176108d057604052565b604081019081106001600160401b038211176108d057604052565b90601f801991011681019081106001600160401b038211176108d057604052565b81601f820112156101f7578035906001600160401b0382116108d05760405192612df0601f8401601f191660200185612d9b565b828452602083830101116101f757816000926020809301838601378301015290565b9060406003198301126101f75760043591602435906001600160401b0382116101f757612e4191600401612dbc565b90565b602435906001600160a01b03821682036101f757565b600435906001600160a01b03821682036101f757565b6020908160408183019282815285518094520193019160005b828110612e97575050505090565b835185529381019392810192600101612e89565b60005b838110612ebe5750506000910152565b8181015183820152602001612eae565b90602091612ee781518092818552858086019101612eab565b601f01601f1916010190565b600b54811015612f2a57600b6000527f0175b7a638427703f0dbe7bb9bbf987a2551717b34e79f33b5b1008d1fa01db90190600090565b634e487b7160e01b600052603260045260246000fd5b8054821015612f2a5760005260206000200190600090565b90600182811c92168015612f88575b6020831014612f7257565b634e487b7160e01b600052602260045260246000fd5b91607f1691612f67565b9060405191826000825492612fa684612f58565b9081845260019485811690816000146130155750600114612fd2575b5050612fd092500383612d9b565b565b9093915060005260209081600020936000915b818310612ffd575050612fd093508201013880612fc2565b85548884018501529485019487945091830191612fe5565b915050612fd094506020925060ff191682840152151560051b8201013880612fc2565b90600a821015611b085752565b906004821015611b085752565b3360009081527fad3228b676f7d3cd4284a5443f17f1962b36e491b30a40b2405849e597ba5fb5602052604081205460ff16156128c85750565b80600052600060205260406000203360005260205260ff60406000205416156128c85750565b6001600160a01b031660008181527f6e5b6ea180bfa34b9e2cec8a38343dd4c56148361307ce1b217a55dac3e7354060205260408120549091906000805160206138268339815191529060ff1661314d57808352826020526040832082845260205260408320600160ff198254161790557f2f8788117e7eff1d82e926ec794901d17c78024a50270940304540a733656f0d339380a4600190565b505090565b9060009180835282602052604083209160018060a01b03169182845260205260ff6040842054161560001461314d57808352826020526040832082845260205260408320600160ff198254161790557f2f8788117e7eff1d82e926ec794901d17c78024a50270940304540a733656f0d339380a4600190565b9060009180835282602052604083209160018060a01b03169182845260205260ff60408420541660001461314d5780835282602052604083208284526020526040832060ff1981541690557ff6391f5c32d9c69d2a47ea670b442974b53935d1edc7fd64eb21e047a839171b339380a4600190565b60ff6002541661324c57565b60405163d93c066560e01b8152600490fd5b60026001541461326f576002600155565b604051633ee5aeb560e01b8152600490fd5b1561328857565b60405162461bcd60e51b815260206004820152601a60248201527f496e737469747574696f6e206e6f7420726567697374657265640000000000006044820152606490fd5b60001981146132dc5760010190565b634e487b7160e01b600052601160045260246000fd5b600a821015611b085752565b6004821015611b085752565b906004811015611b085761ff0082549160081b169061ff001916179055565b90815491600160401b8310156108d0578261334c916001612fd095018155612f40565b90919082549060031b91821b91600019901b1916179055565b1561336c57565b60405162461bcd60e51b815260206004820152601f60248201527f456475636174696f6e207265636f726420646f6573206e6f74206578697374006044820152606490fd5b156133b857565b60405162461bcd60e51b815260206004820152603060248201527f4f6e6c792069737375696e6720696e737469747574696f6e2063616e2070657260448201526f3337b936903a3434b99030b1ba34b7b760811b6064820152608490fd5b1561341d57565b60405162461bcd60e51b815260206004820152601760248201527f5265636f726420616c72656164792076657269666965640000000000000000006044820152606490fd5b600a811015611b085780156135f957600181146135d557600281146135af5760038114613587576004811461355d5760058114613538576006811461351457600781146134f4576008146134d1576040516134bc81612d80565b600581526427ba3432b960d91b602082015290565b6040516134dd81612d80565b6007815266506f7374646f6360c81b602082015290565b5060405161350181612d80565b6003815262141a1160ea1b602082015290565b5060405161352181612d80565b60078152664d61737465727360c81b602082015290565b5060405161354581612d80565b6008815267477261647561746560c01b602082015290565b5060405161356a81612d80565b600d81526c556e646572677261647561746560981b602082015290565b5060405161359481612d80565b600b81526a121a59da0814d8da1bdbdb60aa1b602082015290565b506040516135bc81612d80565b60098152685365636f6e6461727960b81b602082015290565b506040516135e281612d80565b60078152665072696d61727960c81b602082015290565b5060405161360681612d80565b600c81526b25b4b73232b933b0b93a32b760a11b602082015290565b6004811015611b085780156136dc57600181146136b657600281146136925760031461366b5760405161365481612d80565b60078152662ab735b737bbb760c91b602082015290565b60405161367781612d80565b600b81526a151c985b9cd9995c9c995960aa1b602082015290565b5060405161369f81612d80565b6007815266111c9bdc1c195960ca1b602082015290565b506040516136c381612d80565b600981526810dbdb5c1b195d195960ba1b602082015290565b506040516136e981612d80565b600b81526a496e2050726f677265737360a81b602082015290565b1561370b57565b60405162461bcd60e51b815260206004820152601a60248201527f566572696669636174696f6e206e6f74207265717565737465640000000000006044820152606490fd5b6001600160a01b03166000908152600960205260408120909190825b81548082101561381e5783906137828385612f40565b929054600393841b1c146137a057505061379b906132cd565b61376c565b92935093906000199283810190811161380a579061334c6137c46137d19387612f40565b905490881b1c9186612f40565b82549081156137f657508101926137e88484612f40565b81939154921b1b1916905555565b634e487b7160e01b81526031600452602490fd5b634e487b7160e01b83526011600452602483fd5b505050505056fe01f18e249044142f95a61b39bad5f99f3c70699c83bb85a1ad87fe9e68bd85d1a26469706673582212200df886e1a379c43badd41e4dffb3a192123f17c34ebe22dca31cff15b600635b64736f6c634300081400332f8788117e7eff1d82e926ec794901d17c78024a50270940304540a733656f0d",
  "linkReferences": {},
  "deployedLinkReferences": {}
}