{
  "_format": "hh-sol-artifact-1",
  "contractName": "ExperienceContract",
  "sourceName": "contracts/ExperienceContract.sol",
  "abi": [
    {
      "inputs": [],
      "stateMutability": "nonpayable",
      "type": "constructor"
    },
    {
      "inputs": [],
      "name": "AccessControlBadConfirmation",
      "type": "error"
    },
    {
      "inputs": [
        {
          "internalType": "address",
          "name": "account",
          "type": "address"
        },
        {
          "internalType": "bytes32",
          "name": "neededRole",
          "type": "bytes32"
        }
      ],
      "name": "AccessControlUnauthorizedAccount",
      "type": "error"
    },
    {
      "inputs": [],
      "name": "EnforcedPause",
      "type": "error"
    },
    {
      "inputs": [],
      "name": "ExpectedPause",
      "type": "error"
    },
    {
      "inputs": [],
      "name": "ReentrancyGuardReentrantCall",
      "type": "error"
    },
    {
      "anonymous": false,
      "inputs": [
        {
          "indexed": true,
          "internalType": "address",
          "name": "employer",
          "type": "address"
        },
        {
          "indexed": false,
          "internalType": "string",
          "name": "companyName",
          "type": "string"
        },
        {
          "indexed": false,
          "internalType": "uint256",
          "name": "timestamp",
          "type": "uint256"
        }
      ],
      "name": "EmployerRegistered",
      "type": "event"
    },
    {
      "anonymous": false,
      "inputs": [
        {
          "indexed": true,
          "internalType": "uint256",
          "name": "experienceId",
          "type": "uint256"
        },
        {
          "indexed": true,
          "internalType": "address",
          "name": "employee",
          "type": "address"
        },
        {
          "indexed": true,
          "internalType": "address",
          "name": "employer",
          "type": "address"
        }
      ],
      "name": "ExperienceAdded",
      "type": "event"
    },
    {
      "anonymous": false,
      "inputs": [
        {
          "indexed": true,
          "internalType": "uint256",
          "name": "experienceId",
          "type": "uint256"
        },
        {
          "indexed": false,
          "internalType": "enum ExperienceContract.EmploymentStatus",
          "name": "newStatus",
          "type": "uint8"
        }
      ],
      "name": "ExperienceUpdated",
      "type": "event"
    },
    {
      "anonymous": false,
      "inputs": [
        {
          "indexed": true,
          "internalType": "uint256",
          "name": "experienceId",
          "type": "uint256"
        },
        {
          "indexed": true,
          "internalType": "address",
          "name": "verifier",
          "type": "address"
        }
      ],
      "name": "ExperienceVerified",
      "type": "event"
    },
    {
      "anonymous": false,
      "inputs": [
        {
          "indexed": false,
          "internalType": "address",
          "name": "account",
          "type": "address"
        }
      ],
      "name": "Paused",
      "type": "event"
    },
    {
      "anonymous": false,
      "inputs": [
        {
          "indexed": true,
          "internalType": "uint256",
          "name": "experienceId",
          "type": "uint256"
        },
        {
          "indexed": true,
          "internalType": "address",
          "name": "reviewer",
          "type": "address"
        }
      ],
      "name": "PerformanceReviewAdded",
      "type": "event"
    },
    {
      "anonymous": false,
      "inputs": [
        {
          "indexed": true,
          "internalType": "uint256",
          "name": "experienceId",
          "type": "uint256"
        },
        {
          "indexed": true,
          "internalType": "address",
          "name": "referenceGiver",
          "type": "address"
        }
      ],
      "name": "ReferenceAdded",
      "type": "event"
    },
    {
      "anonymous": false,
      "inputs": [
        {
          "indexed": true,
          "internalType": "bytes32",
          "name": "role",
          "type": "bytes32"
        },
        {
          "indexed": true,
          "internalType": "bytes32",
          "name": "previousAdminRole",
          "type": "bytes32"
        },
        {
          "indexed": true,
          "internalType": "bytes32",
          "name": "newAdminRole",
          "type": "bytes32"
        }
      ],
      "name": "RoleAdminChanged",
      "type": "event"
    },
    {
      "anonymous": false,
      "inputs": [
        {
          "indexed": true,
          "internalType": "bytes32",
          "name": "role",
          "type": "bytes32"
        },
        {
          "indexed": true,
          "internalType": "address",
          "name": "account",
          "type": "address"
        },
        {
          "indexed": true,
          "internalType": "address",
          "name": "sender",
          "type": "address"
        }
      ],
      "name": "RoleGranted",
      "type": "event"
    },
    {
      "anonymous": false,
      "inputs": [
        {
          "indexed": true,
          "internalType": "bytes32",
          "name": "role",
          "type": "bytes32"
        },
        {
          "indexed": true,
          "internalType": "address",
          "name": "account",
          "type": "address"
        },
        {
          "indexed": true,
          "internalType": "address",
          "name": "sender",
          "type": "address"
        }
      ],
      "name": "RoleRevoked",
      "type": "event"
    },
    {
      "anonymous": false,
      "inputs": [
        {
          "indexed": false,
          "internalType": "address",
          "name": "account",
          "type": "address"
        }
      ],
      "name": "Unpaused",
      "type": "event"
    },
    {
      "anonymous": false,
      "inputs": [
        {
          "indexed": true,
          "internalType": "uint256",
          "name": "experienceId",
          "type": "uint256"
        },
        {
          "indexed": true,
          "internalType": "address",
          "name": "employer",
          "type": "address"
        }
      ],
      "name": "VerificationApproved",
      "type": "event"
    },
    {
      "anonymous": false,
      "inputs": [
        {
          "indexed": true,
          "internalType": "uint256",
          "name": "experienceId",
          "type": "uint256"
        },
        {
          "indexed": true,
          "internalType": "address",
          "name": "employer",
          "type": "address"
        },
        {
          "indexed": false,
          "internalType": "string",
          "name": "reason",
          "type": "string"
        }
      ],
      "name": "VerificationRejected",
      "type": "event"
    },
    {
      "anonymous": false,
      "inputs": [
        {
          "indexed": true,
          "internalType": "uint256",
          "name": "experienceId",
          "type": "uint256"
        },
        {
          "indexed": true,
          "internalType": "address",
          "name": "employee",
          "type": "address"
        },
        {
          "indexed": true,
          "internalType": "address",
          "name": "employer",
          "type": "address"
        }
      ],
      "name": "VerificationRequested",
      "type": "event"
    },
    {
      "inputs": [],
      "name": "DEFAULT_ADMIN_ROLE",
      "outputs": [
        {
          "internalType": "bytes32",
          "name": "",
          "type": "bytes32"
        }
      ],
      "stateMutability": "view",
      "type": "function"
    },
    {
      "inputs": [],
      "name": "EMPLOYER_ROLE",
      "outputs": [
        {
          "internalType": "bytes32",
          "name": "",
          "type": "bytes32"
        }
      ],
      "stateMutability": "view",
      "type": "function"
    },
    {
      "inputs": [],
      "name": "VERIFIER_ROLE",
      "outputs": [
        {
          "internalType": "bytes32",
          "name": "",
          "type": "bytes32"
        }
      ],
      "stateMutability": "view",
      "type": "function"
    },
    {
      "inputs": [
        {
          "internalType": "uint256",
          "name": "_experienceId",
          "type": "uint256"
        },
        {
          "internalType": "string",
          "name": "_reviewPeriod",
          "type": "string"
        },
        {
          "internalType": "uint8",
          "name": "_overallRating",
          "type": "uint8"
        },
        {
          "internalType": "string[]",
          "name": "_strengths",
          "type": "string[]"
        },
        {
          "internalType": "string[]",
          "name": "_improvementAreas",
          "type": "string[]"
        },
        {
          "internalType": "string",
          "name": "_comments",
          "type": "string"
        }
      ],
      "name": "addPerformanceReview",
      "outputs": [],
      "stateMutability": "nonpayable",
      "type": "function"
    },
    {
      "inputs": [
        {
          "internalType": "uint256",
          "name": "_experienceId",
          "type": "uint256"
        },
        {
          "internalType": "string",
          "name": "_referenceName",
          "type": "string"
        },
        {
          "internalType": "string",
          "name": "_position",
          "type": "string"
        },
        {
          "internalType": "string",
          "name": "_email",
          "type": "string"
        },
        {
          "internalType": "string",
          "name": "_comments",
          "type": "string"
        },
        {
          "internalType": "uint8",
          "name": "_rating",
          "type": "uint8"
        }
      ],
      "name": "addReference",
      "outputs": [],
      "stateMutability": "nonpayable",
      "type": "function"
    },
    {
      "inputs": [
        {
          "internalType": "address",
          "name": "_employee",
          "type": "address"
        },
        {
          "internalType": "string",
          "name": "_position",
          "type": "string"
        },
        {
          "internalType": "string",
          "name": "_department",
          "type": "string"
        },
        {
          "internalType": "string",
          "name": "_jobDescription",
          "type": "string"
        },
        {
          "internalType": "string[]",
          "name": "_skills",
          "type": "string[]"
        },
        {
          "internalType": "string[]",
          "name": "_responsibilities",
          "type": "string[]"
        },
        {
          "internalType": "enum ExperienceContract.EmploymentType",
          "name": "_empType",
          "type": "uint8"
        },
        {
          "internalType": "uint256",
          "name": "_startDate",
          "type": "uint256"
        },
        {
          "internalType": "uint256",
          "name": "_endDate",
          "type": "uint256"
        },
        {
          "internalType": "string",
          "name": "_salary",
          "type": "string"
        },
        {
          "internalType": "string",
          "name": "_location",
          "type": "string"
        },
        {
          "internalType": "string",
          "name": "_documentHash",
          "type": "string"
        }
      ],
      "name": "addWorkExperience",
      "outputs": [],
      "stateMutability": "nonpayable",
      "type": "function"
    },
    {
      "inputs": [
        {
          "internalType": "uint256",
          "name": "",
          "type": "uint256"
        }
      ],
      "name": "allEmployers",
      "outputs": [
        {
          "internalType": "address",
          "name": "",
          "type": "address"
        }
      ],
      "stateMutability": "view",
      "type": "function"
    },
    {
      "inputs": [
        {
          "internalType": "uint256",
          "name": "_experienceId",
          "type": "uint256"
        }
      ],
      "name": "approveRecordVerification",
      "outputs": [],
      "stateMutability": "nonpayable",
      "type": "function"
    },
    {
      "inputs": [
        {
          "internalType": "string",
          "name": "",
          "type": "string"
        },
        {
          "internalType": "uint256",
          "name": "",
          "type": "uint256"
        }
      ],
      "name": "companyExperiences",
      "outputs": [
        {
          "internalType": "uint256",
          "name": "",
          "type": "uint256"
        }
      ],
      "stateMutability": "view",
      "type": "function"
    },
    {
      "inputs": [
        {
          "internalType": "address",
          "name": "_employer",
          "type": "address"
        }
      ],
      "name": "deactivateEmployer",
      "outputs": [],
      "stateMutability": "nonpayable",
      "type": "function"
    },
    {
      "inputs": [
        {
          "internalType": "address",
          "name": "",
          "type": "address"
        },
        {
          "internalType": "uint256",
          "name": "",
          "type": "uint256"
        }
      ],
      "name": "employeeExperiences",
      "outputs": [
        {
          "internalType": "uint256",
          "name": "",
          "type": "uint256"
        }
      ],
      "stateMutability": "view",
      "type": "function"
    },
    {
      "inputs": [
        {
          "internalType": "address",
          "name": "",
          "type": "address"
        },
        {
          "internalType": "uint256",
          "name": "",
          "type": "uint256"
        }
      ],
      "name": "employerPendingVerifications",
      "outputs": [
        {
          "internalType": "uint256",
          "name": "",
          "type": "uint256"
        }
      ],
      "stateMutability": "view",
      "type": "function"
    },
    {
      "inputs": [
        {
          "internalType": "address",
          "name": "",
          "type": "address"
        }
      ],
      "name": "employers",
      "outputs": [
        {
          "internalType": "address",
          "name": "employerAddress",
          "type": "address"
        },
        {
          "internalType": "string",
          "name": "companyName",
          "type": "string"
        },
        {
          "internalType": "string",
          "name": "industry",
          "type": "string"
        },
        {
          "internalType": "string",
          "name": "registrationNumber",
          "type": "string"
        },
        {
          "internalType": "string",
          "name": "website",
          "type": "string"
        },
        {
          "internalType": "string",
          "name": "country",
          "type": "string"
        },
        {
          "internalType": "bool",
          "name": "isVerified",
          "type": "bool"
        },
        {
          "internalType": "bool",
          "name": "isActive",
          "type": "bool"
        },
        {
          "internalType": "uint256",
          "name": "registeredAt",
          "type": "uint256"
        }
      ],
      "stateMutability": "view",
      "type": "function"
    },
    {
      "inputs": [
        {
          "internalType": "uint256",
          "name": "",
          "type": "uint256"
        },
        {
          "internalType": "uint256",
          "name": "",
          "type": "uint256"
        }
      ],
      "name": "experienceReferences",
      "outputs": [
        {
          "internalType": "uint256",
          "name": "experienceId",
          "type": "uint256"
        },
        {
          "internalType": "address",
          "name": "referenceGiver",
          "type": "address"
        },
        {
          "internalType": "string",
          "name": "referenceName",
          "type": "string"
        },
        {
          "internalType": "string",
          "name": "position",
          "type": "string"
        },
        {
          "internalType": "string",
          "name": "email",
          "type": "string"
        },
        {
          "internalType": "string",
          "name": "comments",
          "type": "string"
        },
        {
          "internalType": "uint8",
          "name": "rating",
          "type": "uint8"
        },
        {
          "internalType": "uint256",
          "name": "referenceDate",
          "type": "uint256"
        }
      ],
      "stateMutability": "view",
      "type": "function"
    },
    {
      "inputs": [],
      "name": "getAllEmployers",
      "outputs": [
        {
          "internalType": "address[]",
          "name": "",
          "type": "address[]"
        }
      ],
      "stateMutability": "view",
      "type": "function"
    },
    {
      "inputs": [
        {
          "internalType": "string",
          "name": "_companyName",
          "type": "string"
        }
      ],
      "name": "getCompanyExperiences",
      "outputs": [
        {
          "internalType": "uint256[]",
          "name": "",
          "type": "uint256[]"
        }
      ],
      "stateMutability": "view",
      "type": "function"
    },
    {
      "inputs": [
        {
          "internalType": "address",
          "name": "_employee",
          "type": "address"
        }
      ],
      "name": "getEmployeeExperiences",
      "outputs": [
        {
          "internalType": "uint256[]",
          "name": "",
          "type": "uint256[]"
        }
      ],
      "stateMutability": "view",
      "type": "function"
    },
    {
      "inputs": [
        {
          "internalType": "address",
          "name": "_employer",
          "type": "address"
        }
      ],
      "name": "getEmployerInfo",
      "outputs": [
        {
          "components": [
            {
              "internalType": "address",
              "name": "employerAddress",
              "type": "address"
            },
            {
              "internalType": "string",
              "name": "companyName",
              "type": "string"
            },
            {
              "internalType": "string",
              "name": "industry",
              "type": "string"
            },
            {
              "internalType": "string",
              "name": "registrationNumber",
              "type": "string"
            },
            {
              "internalType": "string",
              "name": "website",
              "type": "string"
            },
            {
              "internalType": "string",
              "name": "country",
              "type": "string"
            },
            {
              "internalType": "bool",
              "name": "isVerified",
              "type": "bool"
            },
            {
              "internalType": "bool",
              "name": "isActive",
              "type": "bool"
            },
            {
              "internalType": "uint256",
              "name": "registeredAt",
              "type": "uint256"
            }
          ],
          "internalType": "struct ExperienceContract.Employer",
          "name": "",
          "type": "tuple"
        }
      ],
      "stateMutability": "view",
      "type": "function"
    },
    {
      "inputs": [
        {
          "internalType": "address",
          "name": "_employer",
          "type": "address"
        }
      ],
      "name": "getEmployerPendingVerifications",
      "outputs": [
        {
          "internalType": "uint256[]",
          "name": "",
          "type": "uint256[]"
        }
      ],
      "stateMutability": "view",
      "type": "function"
    },
    {
      "inputs": [
        {
          "internalType": "enum ExperienceContract.EmploymentStatus",
          "name": "_status",
          "type": "uint8"
        }
      ],
      "name": "getEmploymentStatusString",
      "outputs": [
        {
          "internalType": "string",
          "name": "",
          "type": "string"
        }
      ],
      "stateMutability": "pure",
      "type": "function"
    },
    {
      "inputs": [
        {
          "internalType": "enum ExperienceContract.EmploymentType",
          "name": "_type",
          "type": "uint8"
        }
      ],
      "name": "getEmploymentTypeString",
      "outputs": [
        {
          "internalType": "string",
          "name": "",
          "type": "string"
        }
      ],
      "stateMutability": "pure",
      "type": "function"
    },
    {
      "inputs": [
        {
          "internalType": "uint256",
          "name": "_experienceId",
          "type": "uint256"
        }
      ],
      "name": "getExperienceReferences",
      "outputs": [
        {
          "components": [
            {
              "internalType": "uint256",
              "name": "experienceId",
              "type": "uint256"
            },
            {
              "internalType": "address",
              "name": "referenceGiver",
              "type": "address"
            },
            {
              "internalType": "string",
              "name": "referenceName",
              "type": "string"
            },
            {
              "internalType": "string",
              "name": "position",
              "type": "string"
            },
            {
              "internalType": "string",
              "name": "email",
              "type": "string"
            },
            {
              "internalType": "string",
              "name": "comments",
              "type": "string"
            },
            {
              "internalType": "uint8",
              "name": "rating",
              "type": "uint8"
            },
            {
              "internalType": "uint256",
              "name": "referenceDate",
              "type": "uint256"
            }
          ],
          "internalType": "struct ExperienceContract.Reference[]",
          "name": "",
          "type": "tuple[]"
        }
      ],
      "stateMutability": "view",
      "type": "function"
    },
    {
      "inputs": [
        {
          "internalType": "uint256",
          "name": "_experienceId",
          "type": "uint256"
        }
      ],
      "name": "getPerformanceReviews",
      "outputs": [
        {
          "components": [
            {
              "internalType": "uint256",
              "name": "experienceId",
              "type": "uint256"
            },
            {
              "internalType": "address",
              "name": "reviewer",
              "type": "address"
            },
            {
              "internalType": "string",
              "name": "reviewPeriod",
              "type": "string"
            },
            {
              "internalType": "uint8",
              "name": "overallRating",
              "type": "uint8"
            },
            {
              "internalType": "string[]",
              "name": "strengths",
              "type": "string[]"
            },
            {
              "internalType": "string[]",
              "name": "improvementAreas",
              "type": "string[]"
            },
            {
              "internalType": "string",
              "name": "comments",
              "type": "string"
            },
            {
              "internalType": "uint256",
              "name": "reviewDate",
              "type": "uint256"
            }
          ],
          "internalType": "struct ExperienceContract.PerformanceReview[]",
          "name": "",
          "type": "tuple[]"
        }
      ],
      "stateMutability": "view",
      "type": "function"
    },
    {
      "inputs": [
        {
          "internalType": "bytes32",
          "name": "role",
          "type": "bytes32"
        }
      ],
      "name": "getRoleAdmin",
      "outputs": [
        {
          "internalType": "bytes32",
          "name": "",
          "type": "bytes32"
        }
      ],
      "stateMutability": "view",
      "type": "function"
    },
    {
      "inputs": [
        {
          "internalType": "uint256",
          "name": "_experienceId",
          "type": "uint256"
        }
      ],
      "name": "getWorkExperience",
      "outputs": [
        {
          "components": [
            {
              "internalType": "uint256",
              "name": "id",
              "type": "uint256"
            },
            {
              "internalType": "address",
              "name": "employee",
              "type": "address"
            },
            {
              "internalType": "address",
              "name": "employer",
              "type": "address"
            },
            {
              "internalType": "string",
              "name": "companyName",
              "type": "string"
            },
            {
              "internalType": "string",
              "name": "position",
              "type": "string"
            },
            {
              "internalType": "string",
              "name": "department",
              "type": "string"
            },
            {
              "internalType": "string",
              "name": "jobDescription",
              "type": "string"
            },
            {
              "internalType": "string[]",
              "name": "skills",
              "type": "string[]"
            },
            {
              "internalType": "string[]",
              "name": "responsibilities",
              "type": "string[]"
            },
            {
              "internalType": "enum ExperienceContract.EmploymentType",
              "name": "empType",
              "type": "uint8"
            },
            {
              "internalType": "enum ExperienceContract.EmploymentStatus",
              "name": "status",
              "type": "uint8"
            },
            {
              "internalType": "uint256",
              "name": "startDate",
              "type": "uint256"
            },
            {
              "internalType": "uint256",
              "name": "endDate",
              "type": "uint256"
            },
            {
              "internalType": "string",
              "name": "salary",
              "type": "string"
            },
            {
              "internalType": "string",
              "name": "location",
              "type": "string"
            },
            {
              "internalType": "string",
              "name": "documentHash",
              "type": "string"
            },
            {
              "internalType": "bool",
              "name": "isVerified",
              "type": "bool"
            },
            {
              "internalType": "uint256",
              "name": "createdAt",
              "type": "uint256"
            },
            {
              "internalType": "uint256",
              "name": "updatedAt",
              "type": "uint256"
            }
          ],
          "internalType": "struct ExperienceContract.WorkExperience",
          "name": "",
          "type": "tuple"
        }
      ],
      "stateMutability": "view",
      "type": "function"
    },
    {
      "inputs": [
        {
          "internalType": "bytes32",
          "name": "role",
          "type": "bytes32"
        },
        {
          "internalType": "address",
          "name": "account",
          "type": "address"
        }
      ],
      "name": "grantRole",
      "outputs": [],
      "stateMutability": "nonpayable",
      "type": "function"
    },
    {
      "inputs": [
        {
          "internalType": "bytes32",
          "name": "role",
          "type": "bytes32"
        },
        {
          "internalType": "address",
          "name": "account",
          "type": "address"
        }
      ],
      "name": "hasRole",
      "outputs": [
        {
          "internalType": "bool",
          "name": "",
          "type": "bool"
        }
      ],
      "stateMutability": "view",
      "type": "function"
    },
    {
      "inputs": [
        {
          "internalType": "address",
          "name": "",
          "type": "address"
        }
      ],
      "name": "isRegisteredEmployer",
      "outputs": [
        {
          "internalType": "bool",
          "name": "",
          "type": "bool"
        }
      ],
      "stateMutability": "view",
      "type": "function"
    },
    {
      "inputs": [],
      "name": "pause",
      "outputs": [],
      "stateMutability": "nonpayable",
      "type": "function"
    },
    {
      "inputs": [],
      "name": "paused",
      "outputs": [
        {
          "internalType": "bool",
          "name": "",
          "type": "bool"
        }
      ],
      "stateMutability": "view",
      "type": "function"
    },
    {
      "inputs": [
        {
          "internalType": "uint256",
          "name": "",
          "type": "uint256"
        },
        {
          "internalType": "uint256",
          "name": "",
          "type": "uint256"
        }
      ],
      "name": "performanceReviews",
      "outputs": [
        {
          "internalType": "uint256",
          "name": "experienceId",
          "type": "uint256"
        },
        {
          "internalType": "address",
          "name": "reviewer",
          "type": "address"
        },
        {
          "internalType": "string",
          "name": "reviewPeriod",
          "type": "string"
        },
        {
          "internalType": "uint8",
          "name": "overallRating",
          "type": "uint8"
        },
        {
          "internalType": "string",
          "name": "comments",
          "type": "string"
        },
        {
          "internalType": "uint256",
          "name": "reviewDate",
          "type": "uint256"
        }
      ],
      "stateMutability": "view",
      "type": "function"
    },
    {
      "inputs": [
        {
          "internalType": "string",
          "name": "_companyName",
          "type": "string"
        },
        {
          "internalType": "string",
          "name": "_industry",
          "type": "string"
        },
        {
          "internalType": "string",
          "name": "_registrationNumber",
          "type": "string"
        },
        {
          "internalType": "string",
          "name": "_website",
          "type": "string"
        },
        {
          "internalType": "string",
          "name": "_country",
          "type": "string"
        }
      ],
      "name": "registerEmployer",
      "outputs": [],
      "stateMutability": "nonpayable",
      "type": "function"
    },
    {
      "inputs": [
        {
          "internalType": "uint256",
          "name": "_experienceId",
          "type": "uint256"
        },
        {
          "internalType": "string",
          "name": "_reason",
          "type": "string"
        }
      ],
      "name": "rejectRecordVerification",
      "outputs": [],
      "stateMutability": "nonpayable",
      "type": "function"
    },
    {
      "inputs": [
        {
          "internalType": "bytes32",
          "name": "role",
          "type": "bytes32"
        },
        {
          "internalType": "address",
          "name": "callerConfirmation",
          "type": "address"
        }
      ],
      "name": "renounceRole",
      "outputs": [],
      "stateMutability": "nonpayable",
      "type": "function"
    },
    {
      "inputs": [
        {
          "internalType": "uint256",
          "name": "_experienceId",
          "type": "uint256"
        }
      ],
      "name": "requestRecordVerification",
      "outputs": [],
      "stateMutability": "nonpayable",
      "type": "function"
    },
    {
      "inputs": [
        {
          "internalType": "bytes32",
          "name": "role",
          "type": "bytes32"
        },
        {
          "internalType": "address",
          "name": "account",
          "type": "address"
        }
      ],
      "name": "revokeRole",
      "outputs": [],
      "stateMutability": "nonpayable",
      "type": "function"
    },
    {
      "inputs": [
        {
          "internalType": "bytes4",
          "name": "interfaceId",
          "type": "bytes4"
        }
      ],
      "name": "supportsInterface",
      "outputs": [
        {
          "internalType": "bool",
          "name": "",
          "type": "bool"
        }
      ],
      "stateMutability": "view",
      "type": "function"
    },
    {
      "inputs": [],
      "name": "unpause",
      "outputs": [],
      "stateMutability": "nonpayable",
      "type": "function"
    },
    {
      "inputs": [
        {
          "internalType": "uint256",
          "name": "_experienceId",
          "type": "uint256"
        },
        {
          "internalType": "enum ExperienceContract.EmploymentStatus",
          "name": "_newStatus",
          "type": "uint8"
        },
        {
          "internalType": "uint256",
          "name": "_endDate",
          "type": "uint256"
        }
      ],
      "name": "updateExperienceStatus",
      "outputs": [],
      "stateMutability": "nonpayable",
      "type": "function"
    },
    {
      "inputs": [
        {
          "internalType": "uint256",
          "name": "",
          "type": "uint256"
        }
      ],
      "name": "verificationRequested",
      "outputs": [
        {
          "internalType": "bool",
          "name": "",
          "type": "bool"
        }
      ],
      "stateMutability": "view",
      "type": "function"
    },
    {
      "inputs": [
        {
          "internalType": "address",
          "name": "_employer",
          "type": "address"
        }
      ],
      "name": "verifyEmployer",
      "outputs": [],
      "stateMutability": "nonpayable",
      "type": "function"
    },
    {
      "inputs": [
        {
          "internalType": "uint256",
          "name": "_experienceId",
          "type": "uint256"
        }
      ],
      "name": "verifyWorkExperience",
      "outputs": [],
      "stateMutability": "nonpayable",
      "type": "function"
    },
    {
      "inputs": [
        {
          "internalType": "uint256",
          "name": "",
          "type": "uint256"
        }
      ],
      "name": "workExperiences",
      "outputs": [
        {
          "internalType": "uint256",
          "name": "id",
          "type": "uint256"
        },
        {
          "internalType": "address",
          "name": "employee",
          "type": "address"
        },
        {
          "internalType": "address",
          "name": "employer",
          "type": "address"
        },
        {
          "internalType": "string",
          "name": "companyName",
          "type": "string"
        },
        {
          "internalType": "string",
          "name": "position",
          "type": "string"
        },
        {
          "internalType": "string",
          "name": "department",
          "type": "string"
        },
        {
          "internalType": "string",
          "name": "jobDescription",
          "type": "string"
        },
        {
          "internalType": "enum ExperienceContract.EmploymentType",
          "name": "empType",
          "type": "uint8"
        },
        {
          "internalType": "enum ExperienceContract.EmploymentStatus",
          "name": "status",
          "type": "uint8"
        },
        {
          "internalType": "uint256",
          "name": "startDate",
          "type": "uint256"
        },
        {
          "internalType": "uint256",
          "name": "endDate",
          "type": "uint256"
        },
        {
          "internalType": "string",
          "name": "salary",
          "type": "string"
        },
        {
          "internalType": "string",
          "name": "location",
          "type": "string"
        },
        {
          "internalType": "string",
          "name": "documentHash",
          "type": "string"
        },
        {
          "internalType": "bool",
          "name": "isVerified",
          "type": "bool"
        },
        {
          "internalType": "uint256",
          "name": "createdAt",
          "type": "uint256"
        },
        {
          "internalType": "uint256",
          "name": "updatedAt",
          "type": "uint256"
        }
      ],
      "stateMutability": "view",
      "type": "function"
    }
  ],
  "bytecode": "0x6080604052346200003b57600180556001600c556200001e3362000040565b506200002a33620000c0565b50604051615bb29081620001638239f35b600080fd5b6001600160a01b031660008181527fad3228b676f7d3cd4284a5443f17f1962b36e491b30a40b2405849e597ba5fb5602052604081205490919060ff16620000bc57818052816020526040822081835260205260408220600160ff19825416179055339160008051602062005d158339815191528180a4600190565b5090565b6001600160a01b031660008181527f1da0b5176dfe03406af5a6eed66ca01dda9b45ac4da671c3fa379cb93717ef8160205260408120549091907f0ce23c3e399818cfee81a7ab0880f714e53d7672b08df0fa62f2843416e1ea099060ff166200015d57808352826020526040832082845260205260408320600160ff1982541617905560008051602062005d15833981519152339380a4600190565b50509056fe60a080604052600436101561001357600080fd5b60003560e01c90816301ffc9a714614df157508063050ccaa514613d54578063070ab8d614613d2b57806309c91e4214613cca5780630bb73edd14613ba15780630be435bd14613aa157806314c671d6146139d95780631807746a146138df5780632426bb38146138a45780632475886b1461385a578063248a9ca31461382b5780632e6a9b03146136ac5780632f2ff15d1461366d57806336568abe146136265780633bd1fb94146131be5780633f4ba83a146131545780634465fb2c1461292f5780635c975abb1461290c5780635dda2a20146128cf57806360593e15146124fe5780636b365e7c14611caf57806374f752e514611aea578063780a3b6f146112b65780638456cb591461125c57806386fe3d4e1461117957806390c5a9d91461111657806391d14854146110c95780639f5b44c214611087578063a217fddf1461106b578063ae783b8d14611000578063b699eaac14610ec7578063b7a26b0714610d77578063bdb42d5314610ba1578063d547741f14610b60578063ddd6cb4f146109cd578063dfd0bf8114610881578063dfe43d9614610850578063e04dd8021461073d578063e7705db614610714578063edb68423146106bc578063eeaaa28514610612578063f067498c146105d35763f9ab2ddf146101f857600080fd5b346105ce5760203660031901126105ce57600435600052600360205261022460406000205415156155ef565b6004356000526003602052604060002060116040519161024383614e70565b8054835260018101546001600160a01b03908116602085015260028201541660408401526102736003820161506f565b60608401526102846004820161506f565b60808401526102956005820161506f565b60a08401526102a66006820161506f565b60c08401526102b7600782016156e1565b60e08401526102c8600882016156e1565b6101008401526102f660ff60098301546102e8828216610120880161557c565b60081c166101408501615588565b600a810154610160840152600b810154610180840152610318600c820161506f565b6101a084015261032a600d820161506f565b6101c084015261033c600e820161506f565b6101e0840152600f81015460ff1615156102008401526010810154610220840152015461024082015260208101516001600160a01b031633149081156105b7575b508015610591575b1561054257600435600052600760205260406000208054906103a682614f56565b916103b46040519384614edf565b80835260208301809260005260206000206000915b8383106104b357848660405191829160208301906020845251809152604083019060408160051b85010192916000905b82821061040857505050500390f35b919360019193955060208091603f1989820301855287519081518152848060a01b0383830151168382015260e08061049061047e61046c61045a60408801516101006040890152610100880190615010565b60608801518782036060890152615010565b60808701518682036080880152615010565b60a086015185820360a0870152615010565b9360ff60c08201511660c0850152015191015296019201920185949391926103f9565b600860206001926040516104c681614e8c565b85548152848060a01b038587015416838201526104e56002870161506f565b60408201526104f66003870161506f565b60608201526105076004870161506f565b60808201526105186005870161506f565b60a082015260ff60068701541660c0820152600786015460e08201528152019201920191906103c9565b60405162461bcd60e51b815260206004820152602160248201527f4e6f7420617574686f72697a656420746f2076696577207265666572656e63656044820152607360f81b6064820152608490fd5b50336000908152600080516020615b3d833981519152602052604090205460ff16610385565b604001516001600160a01b0316331490503861037d565b600080fd5b346105ce5760203660031901126105ce576001600160a01b036105f4614e44565b166000526006602052602060ff604060002054166040519015158152f35b346105ce57610620366151f0565b90600052600860205260406000209081548110156105ce5761064191615206565b50805460018201546001600160a01b0316916106b26106626002830161506f565b9160ff6003820154169061069f600761067d6006840161506f565b920154946040519788978852602088015260c0604088015260c0870190615010565b9160608601528482036080860152615010565b9060a08301520390f35b346105ce5760403660031901126105ce576106d5614e44565b6001600160a01b03166000908152600460205260409020805460243591908210156105ce5760209161070691615162565b90546040519160031b1c8152f35b346105ce5760003660031901126105ce576020604051600080516020615b5d8339815191528152f35b346105ce576020806003193601126105ce576001600160a01b0361075f614e44565b16338114801561082e575b156107d457600052600b8152604060002090604051908181845491828152019360005281600020916000905b8282106107bd576107b9856107ad81890382614edf565b60405191829182615222565b0390f35b835486529485019460019384019390910190610796565b60405162461bcd60e51b815260048101839052602c60248201527f4e6f7420617574686f72697a656420746f20766965772070656e64696e67207660448201526b6572696669636174696f6e7360a01b6064820152608490fd5b506000805260008252604060002033600052825260ff6040600020541661076a565b346105ce5760203660031901126105ce57600435600052600a602052602060ff604060002054166040519015158152f35b346105ce576020806003193601126105ce576004356001600160401b0381116105ce576108b2903690600401614f00565b600080516020615b5d83398151915260005260008252604060002033600052825260ff6040600020541680156109ab575b156109535781610900918160405193828580945193849201614fed565b8101600981520301902090604051908181845491828152019360005281600020916000905b82821061093c576107b9856107ad81890382614edf565b835486529485019460019384019390910190610925565b60405162461bcd60e51b815260048101839052602a60248201527f4e6f7420617574686f72697a656420746f207669657720636f6d70616e7920656044820152697870657269656e63657360b01b6064820152608490fd5b506000805260008252604060002033600052825260ff604060002054166108e3565b346105ce576020806003193601126105ce576004356109ea615492565b6109f2615474565b8060005260038252610a0a60406000205415156155ef565b60008181526003835260409020600101546001600160a01b039081163303610b0d578160005260038352610a4960ff600f6040600020015416156159cf565b81600052600a835260ff60406000205416610ac857600b9082600052600a84526040600020600160ff198254161790556003845260026040600020015416928360005252610a9b8160406000206155b3565b33907f94ea9519a26f9cef618942be536c77d0af6bd419afe375eeb30875b20b82d294600080a460018055005b60405162461bcd60e51b815260048101849052601e60248201527f566572696669636174696f6e20616c72656164792072657175657374656400006044820152606490fd5b60405162461bcd60e51b815260048101849052602560248201527f4f6e6c7920656d706c6f7965652063616e20706572666f726d2074686973206160448201526431ba34b7b760d91b6064820152608490fd5b346105ce5760403660031901126105ce57610b9f600435610b7f614e5a565b90806000526000602052610b9a600160406000200154615297565b6153e8565b005b346105ce576020806003193601126105ce57610bbb614e44565b9060405191610bc983614ea8565b600083526060808385015280604085015280808501528060808501528060a085015260c084016000905260e084016000905261010080940160009052600160a01b60019003809216806000526006845260406000205460ff16610c2b906154b5565b60005260058352604060002091604051948591610c4783614ea8565b845481168352610c596001860161506f565b83870190815293610c6c6002870161506f565b6040850190815294610c806003880161506f565b858301908152610c926004890161506f565b6080870190815290610ca660058a0161506f565b9260a088019384528a60068b0154968860c08b019c8d60ff8b161515905260e08c019960081c60ff1615158a52600701549a01998a526040519d8e9d8e525116908c01525197610120988960408d01526101408c01610d0491615010565b905190601f1995868d830301908d0152610d1d91615010565b905190848b82030160808c0152610d3391615010565b905190838a82030160a08b0152610d4991615010565b9051918882030160c0890152610d5e91615010565b9451151560e08701525115159085015251908301520390f35b346105ce576020806003193601126105ce5760043590610d95615492565b610d9d615474565b8160005260038152610db560406000205415156155ef565b600080516020615b5d8339815191528060005260008252604060002033600052825260ff6040600020541615610ea957508160005260038152604060002090600f82019081549060ff8216610e6557906006600192838060a01b0360028701541660005252610e2b60ff604060002054166154b5565b60ff191617905560114291015533907f3271d417ec62b5686e3e1c4dc1cc9f843d33f75dd5040fd4eca47dc55db5edbc600080a360018055005b6064906040519062461bcd60e51b82526004820152601b60248201527f457870657269656e636520616c726561647920766572696669656400000000006044820152fd5b6044906040519063e2517d3f60e01b82523360048301526024820152fd5b346105ce576020806003193601126105ce576001600160a01b03610ee9614e44565b163381148015610fd0575b8015610fae575b15610f555760005260048152604060002090604051908181845491828152019360005281600020916000905b828210610f3e576107b9856107ad81890382614edf565b835486529485019460019384019390910190610f27565b60405162461bcd60e51b815260048101839052602b60248201527f4e6f7420617574686f72697a656420746f207669657720656d706c6f7965652060448201526a657870657269656e63657360a81b6064820152608490fd5b506000805260008252604060002033600052825260ff60406000205416610efb565b50600080516020615b5d83398151915260005260008252604060002033600052825260ff60406000205416610ef4565b346105ce5760403660031901126105ce576004356001600160401b0381116105ce57611030903690600401614f00565b61104c6020602435928160405193828580945193849201614fed565b8101600981520301902080548210156105ce5760209161070691615162565b346105ce5760003660031901126105ce57602060405160008152f35b346105ce5760203660031901126105ce57600435600d548110156105ce576110b0602091615115565b905460405160039290921b1c6001600160a01b03168152f35b346105ce5760403660031901126105ce576110e2614e5a565b600435600052600060205260406000209060018060a01b0316600052602052602060ff604060002054166040519015158152f35b346105ce5760203660031901126105ce5761112f614e44565b61113761525d565b6001600160a01b031660008181526006602052604090205461115b9060ff166154b5565b6000908152600560205260409020600601805460ff19166001179055005b346105ce57611187366151f0565b90600052600760205260406000209081548110156105ce576111a891615206565b50805460018201546001600160a01b0316916111c66002820161506f565b61124d6111d56003840161506f565b61123f6111e46004860161506f565b6112316111f36005880161506f565b93611223600760ff60068b015416990154976040519b8c9b8c5260208c01526101008060408d01528b0190615010565b9089820360608b0152615010565b908782036080890152615010565b9085820360a0870152615010565b9160c084015260e08301520390f35b346105ce5760003660031901126105ce5761127561525d565b61127d615474565b600160ff1960025416176002557f62e78cea01bee320cd4e420270b5ea74000d11b0c9f74754ebdbfc544b05a2586020604051338152a1005b346105ce5760c03660031901126105ce576024356001600160401b0381116105ce576112e6903690600401614f00565b60443560ff81168091036105ce576064356001600160401b0381116105ce57611313903690600401614f6d565b6084356001600160401b0381116105ce57611332903690600401614f6d565b60a4356001600160401b0381116105ce57611351903690600401614f00565b9161135a615492565b611362615474565b600435600052600360205261137d60406000205415156155ef565b60043560005260036020526113a360018060a01b0360026040600020015416331461563b565b600184101580611adf575b6113b790615695565b845115611a9a576004356000526008602052604060002093604051956113dc87614e8c565b600435875233602088015260408701526060860152608085015260a084015260c08301524260e08301528054600160401b81101561169b5761142391600182018155615206565b919091611a8457805182556001820160018060a01b036020830151166001600160601b0360a01b82541617905560408101519182516001600160401b03811161169b576114736002830154615035565b601f8111611a4f575b506020601f82116001146119e157819293946000926119d6575b50508160011b916000199060031b1c19161760028201555b6003810160ff60608401511660ff198254161790556080820151805190600160401b821161169b57600483015482600485015580831061195e575b5060200190600483016000526020600020916000905b82821061183e57858560a0820151805190600160401b821161169b5760058301548260058501558083106117c6575b5060200190600583016000526020600020916000905b8282106116b1578585600681019160c08101519283516001600160401b03811161169b576115728254615035565b601f811161165e575b506020601f82116001146115f057908060e0949392600796976000926115e5575b50508160011b916000199060031b1c19161790555b0151910155336004357f304fd5d79b3165d3e00cbfe04502ba78cf0e856384530edb30b95a6865ff6333600080a360018055005b01519050878061159c565b601f198216958360005260206000209660005b818110611646575096600192849260e09796956007999a1061162d575b505050811b0190556115b1565b015160001960f88460031b161c19169055878080611620565b83830151895560019098019760209384019301611603565b61168b90836000526020600020601f840160051c81019160208510611691575b601f0160051c019061545d565b8561157b565b909150819061167e565b634e487b7160e01b600052604160045260246000fd5b80518051906001600160401b03821161169b576116ce8654615035565b601f8111611794575b50602090601f8311600114611724579282600194936020938695600092611719575b5050600019600383901b1c191690841b1787555b01940191019092611544565b015190508b806116f9565b908660005260206000209160005b601f198516811061177c575083602093600196938796938794601f19811610611763575b505050811b01875561170d565b015160001960f88460031b161c191690558b8080611756565b91926020600181928685015181550194019201611732565b6117c090876000526020600020601f850160051c8101916020861061169157601f0160051c019061545d565b886116d7565b600584016000526020600020908382015b81830181106117e757505061152e565b806117f460019254615035565b80611801575b50016117d7565b601f811183146118175750600081555b886117fa565b600090828252611835601f60208420920160051c820185830161545d565b81835555611811565b80518051906001600160401b03821161169b5761185b8654615035565b601f8111611921575b50602090601f83116001146118b15792826001949360209386956000926118a6575b5050600019600383901b1c191690841b1787555b019401910190926114ff565b015190508b80611886565b908660005260206000209160005b601f1985168110611909575083602093600196938796938794601f198116106118f0575b505050811b01875561189a565b015160001960f88460031b161c191690558b80806118e3565b919260206001819286850151815501940192016118bf565b61194e908760005260206000206005601f8601811c82019260208710611954575b601f01901c019061545d565b88611864565b9192508291611942565b600484016000526020600020908382015b818301811061197f5750506114e9565b8061198c60019254615035565b80611999575b500161196f565b601f811183146119af5750600081555b88611992565b6000908282526119cd601f60208420920160051c820185830161545d565b818355556119a9565b015190508480611496565b6002830160005260206000209060005b601f1984168110611a375750600193949583601f19811610611a1e575b505050811b0160028201556114ae565b015160001960f88460031b161c19169055848080611a0e565b9091602060018192858a0151815501930191016119f1565b611a7e90600284016000526020600020601f840160051c8101916020851061169157601f0160051c019061545d565b8461147c565b634e487b7160e01b600052600060045260246000fd5b60405162461bcd60e51b815260206004820152601d60248201527f52657669657720706572696f642063616e6e6f7420626520656d7074790000006044820152606490fd5b50600a8411156113ae565b346105ce5760203660031901126105ce57600435600052600360205260406000208054600160a01b6001900391826001820154169260028201541660038201611b329061506f565b611b3e6004840161506f565b611b4a6005850161506f565b611b566006860161506f565b90600986015491600a87015490600b88015492600c8901611b769061506f565b95611b83600d8b0161506f565b97611b90600e8c0161506f565b99600f8c015460ff169d60108d01549c601101549d60405180608052526080516020015260805160400152610220806080516060015260805101611bd391615010565b6080518082039060800152611be791615010565b6080518082039060a00152611bfb91615010565b6080518082039060c00152611c0f91615010565b9260805160e00160ff821690611c24916151d6565b608051610100019060081c60ff1690611c3c916151e3565b60805161012001526080516101400152608051808203906101600152611c6191615010565b608051808203906101800152611c7691615010565b608051808203906101a00152611c8b91615010565b9215156080516101c001526080516101e00152608051610200015260805180910390f35b346105ce5760a03660031901126105ce576004356001600160401b0381116105ce57611cdf903690600401614f00565b6024356001600160401b0381116105ce57611cfe903690600401614f00565b906044356001600160401b0381116105ce57611d1e903690600401614f00565b6064356001600160401b0381116105ce57611d3d903690600401614f00565b6084356001600160401b0381116105ce57611d5c903690600401614f00565b91611d65615492565b611d6d615474565b33600052600660205260ff604060002054166124b9578351156124745784511561242f5760405194611d9e86614ea8565b33865284602087015260408601526060850152608084015260a0830152600060c0830152600160e083015242610100830152336000526005602052604060002060018060a01b038351166001600160601b0360a01b82541617815560208301519283516001600160401b03811161169b57611e1c6001840154615035565b601f81116123fa575b506020601f821160011461238b578192939495600092612380575b50508160011b916000199060031b1c19161760018301555b60408101519283516001600160401b03811161169b57611e7b6002850154615035565b601f811161234b575b506020601f82116001146122dc5781929394956000926122d1575b50508160011b916000199060031b1c19161760028401555b60608201519283516001600160401b03811161169b57611eda6003830154615035565b601f811161229c575b506020601f821160011461222d578192939495600092612222575b50508160011b916000199060031b1c19161760038201555b60808301519283516001600160401b03811161169b57611f396004840154615035565b601f81116121ed575b506020601f821160011461217e578192939495600092612173575b50508160011b916000199060031b1c19161760048301555b60a08101518051906001600160401b03821161169b57611f986005850154615035565b601f811161213e575b50602090601f83116001146120c857918060079492610100946000926120bd575b50508160011b916000199060031b1c19161760058501555b60068401611ffa60c08301511515829060ff801983541691151516179055565b60e0820151815461ff00191690151560081b61ff00161790550151910155336000908152600660205260409020805460ff19166001179055600d54600160401b81101561169b578060016120519201600d55615115565b81549060031b9033821b9160018060a01b03901b1916179055612073336152bd565b507f6c6ddd94073089bbda90cd908987af6780dda2fb3ac4fa796b74f4c25c668ba96120aa60405192604084526040840190615010565b914260208201528033930390a260018055005b015190508780611fc2565b906005850160005260206000209160005b601f1985168110612126575092600794926001926101009583601f1981161061210d575b505050811b016005850155611fda565b015160001960f88460031b161c191690558780806120fd565b919260206001819286850151815501940192016120d9565b61216d90600586016000526020600020601f850160051c8101916020861061169157601f0160051c019061545d565b85611fa1565b015190508580611f5d565b6004840160005260206000209060005b601f19841681106121d5575060019394959683601f198116106121bc575b505050811b016004830155611f75565b015160001960f88460031b161c191690558580806121ac565b9091602060018192858b01518155019301910161218e565b61221c90600485016000526020600020601f840160051c8101916020851061169157601f0160051c019061545d565b85611f42565b015190508580611efe565b6003830160005260206000209060005b601f1984168110612284575060019394959683601f1981161061226b575b505050811b016003820155611f16565b015160001960f88460031b161c1916905585808061225b565b9091602060018192858b01518155019301910161223d565b6122cb90600384016000526020600020601f840160051c8101916020851061169157601f0160051c019061545d565b85611ee3565b015190508580611e9f565b6002850160005260206000209060005b601f1984168110612333575060019394959683601f1981161061231a575b505050811b016002840155611eb7565b015160001960f88460031b161c1916905585808061230a565b9091602060018192858b0151815501930191016122ec565b61237a90600286016000526020600020601f840160051c8101916020851061169157601f0160051c019061545d565b85611e84565b015190508580611e40565b6001840160005260206000209060005b601f19841681106123e2575060019394959683601f198116106123c9575b505050811b016001830155611e58565b015160001960f88460031b161c191690558580806123b9565b9091602060018192858b01518155019301910161239b565b61242990600185016000526020600020601f840160051c8101916020851061169157601f0160051c019061545d565b85611e25565b60405162461bcd60e51b815260206004820152601860248201527f496e6475737472792063616e6e6f7420626520656d70747900000000000000006044820152606490fd5b60405162461bcd60e51b815260206004820152601c60248201527f436f6d70616e79206e616d652063616e6e6f7420626520656d707479000000006044820152606490fd5b60405162461bcd60e51b815260206004820152601b60248201527f456d706c6f79657220616c7265616479207265676973746572656400000000006044820152606490fd5b346105ce5760203660031901126105ce57600435600052600360205261252a60406000205415156155ef565b6004356000526003602052604060002060116040519161254983614e70565b8054835260018101546001600160a01b03908116602085015260028201541660408401526125796003820161506f565b606084015261258a6004820161506f565b608084015261259b6005820161506f565b60a08401526125ac6006820161506f565b60c08401526125bd600782016156e1565b60e08401526125ce600882016156e1565b6101008401526125ee60ff60098301546102e8828216610120880161557c565b600a810154610160840152600b810154610180840152612610600c820161506f565b6101a0840152612622600d820161506f565b6101c0840152612634600e820161506f565b6101e0840152600f81015460ff1615156102008401526010810154610220840152015461024082015260208101516001600160a01b031633149081156128b8575b508015612892575b1561283a576004356000526008602052604060002080549061269e82614f56565b916126ac6040519384614edf565b80835260208301809260005260206000206000915b8383106127ab57848660405191829160208301906020845251809152604083019060408160051b85010192916000905b82821061270057505050500390f35b919360019193955060208091603f1989820301855287519081518152848060a01b0383830151168382015260e08061279561278361277161275260408801516101006040890152610100880190615010565b60ff60608901511660608801526080880151878203608089015261517a565b60a087015186820360a088015261517a565b60c086015185820360c0870152615010565b93015191015296019201920185949391926126f1565b600860206001926040516127be81614e8c565b85548152848060a01b038587015416838201526127dd6002870161506f565b604082015260ff60038701541660608201526127fb600487016156e1565b608082015261280c600587016156e1565b60a082015261281d6006870161506f565b60c0820152600786015460e08201528152019201920191906126c1565b60405162461bcd60e51b815260206004820152602a60248201527f4e6f7420617574686f72697a656420746f207669657720706572666f726d616e6044820152696365207265766965777360b01b6064820152608490fd5b50336000908152600080516020615b3d833981519152602052604090205460ff1661267d565b604001516001600160a01b03163314905081612675565b346105ce5760203660031901126105ce5760043560058110156105ce576128f86107b9916158df565b604051918291602083526020830190615010565b346105ce5760003660031901126105ce57602060ff600254166040519015158152f35b346105ce5760c03660031901126105ce576024356001600160401b0381116105ce5761295f903690600401614f00565b6044356001600160401b0381116105ce5761297e903690600401614f00565b6064356001600160401b0381116105ce5761299d903690600401614f00565b6084356001600160401b0381116105ce576129bc903690600401614f00565b60a4359060ff821682036105ce576129d2615492565b6129da615474565b60043560005260036020526129f560406000205415156155ef565b600160ff8316101580613146575b612a0c90615695565b8451156131015760043560005260036020526040600020604051612a2f81614e70565b8154815260018201546001600160a01b039081166020830152600283015416604082019081529161024090601190612a696003820161506f565b6060850152612a7a6004820161506f565b6080850152612a8b6005820161506f565b60a0850152612a9c6006820161506f565b60c0850152612aad600782016156e1565b60e0850152612abe600882016156e1565b610100850152612aec60ff6009830154612ade828216610120890161557c565b60081c166101408601615588565b600a810154610160850152600b810154610180850152612b0e600c820161506f565b6101a0850152612b20600d820161506f565b6101c0850152612b32600e820161506f565b6101e0850152600f81015460ff16151561020085015260108101546102208501520154910152516001600160a01b0316331480156130db575b156130825760ff92600435600052600760205260406000209460405196612b9188614e8c565b600435885233602089015260408801526060870152608086015260a08501521660c08301524260e08301528054600160401b81101561169b57612bd991600182018155615206565b919091611a8457805182556001820160018060a01b036020830151166001600160601b0360a01b82541617905560408101519182516001600160401b03811161169b57612c296002830154615035565b601f811161304d575b506020601f8211600114612fdf5781929394600092612fd4575b50508160011b916000199060031b1c19161760028201555b60608201519182516001600160401b03811161169b57612c876003840154615035565b601f8111612f9f575b506020601f8211600114612f315781929394600092612f26575b50508160011b916000199060031b1c19161760038301555b60808101519182516001600160401b03811161169b57612ce56004830154615035565b601f8111612ef1575b506020601f8211600114612e835781929394600092612e78575b50508160011b916000199060031b1c19161760048201555b600581019160a08101519283516001600160401b03811161169b57612d458254615035565b601f8111612e46575b506020601f8211600114612dd857908060e094939260079697600092612dcd575b50508160011b916000199060031b1c19161790555b6006840160ff60c08301511660ff198254161790550151910155336004357f370aa05f20c3b1569e13b6a94e8238a834052f045b60fff4f3aec7e503f10eea600080a360018055005b015190508780612d6f565b601f198216958360005260206000209660005b818110612e2e575096600192849260e09796956007999a10612e15575b505050811b019055612d84565b015160001960f88460031b161c19169055878080612e08565b83830151895560019098019760209384019301612deb565b612e7290836000526020600020601f840160051c8101916020851061169157601f0160051c019061545d565b85612d4e565b015190508480612d08565b6004830160005260206000209060005b601f1984168110612ed95750600193949583601f19811610612ec0575b505050811b016004820155612d20565b015160001960f88460031b161c19169055848080612eb0565b9091602060018192858a015181550193019101612e93565b612f2090600484016000526020600020601f840160051c8101916020851061169157601f0160051c019061545d565b84612cee565b015190508480612caa565b6003840160005260206000209060005b601f1984168110612f875750600193949583601f19811610612f6e575b505050811b016003830155612cc2565b015160001960f88460031b161c19169055848080612f5e565b9091602060018192858a015181550193019101612f41565b612fce90600385016000526020600020601f840160051c8101916020851061169157601f0160051c019061545d565b84612c90565b015190508480612c4c565b6002830160005260206000209060005b601f19841681106130355750600193949583601f1981161061301c575b505050811b016002820155612c64565b015160001960f88460031b161c1916905584808061300c565b9091602060018192858a015181550193019101612fef565b61307c90600284016000526020600020601f840160051c8101916020851061169157601f0160051c019061545d565b84612c32565b60405162461bcd60e51b815260206004820152602b60248201527f4f6e6c7920656d706c6f796572206f722076657269666965722063616e20616460448201526a64207265666572656e636560a81b6064820152608490fd5b50336000908152600080516020615b3d833981519152602052604090205460ff16612b6b565b60405162461bcd60e51b815260206004820152601e60248201527f5265666572656e6365206e616d652063616e6e6f7420626520656d70747900006044820152606490fd5b50600a60ff83161115612a03565b346105ce5760003660031901126105ce5761316d61525d565b60025460ff8116156131ac5760ff19166002557f5db9ee0a495bf2e6ff9c91a7834c1ba4fdd244a5e8aa4e537bd38aeae4b073aa6020604051338152a1005b604051638dfc202b60e01b8152600490fd5b346105ce5760203660031901126105ce5760006102406040516131e081614e70565b82815282602082015282604082015260608082015260606080820152606060a0820152606060c0820152606060e082015260606101008201528261012082015282610140820152826101608201528261018082015260606101a082015260606101c082015260606101e08201528261020082015282610220820152015260043580600052600360205261327960406000205415156155ef565b6000526003602052604060002060116040519161329583614e70565b8054835260018101546001600160a01b03908116602085015260028201541660408401526132c56003820161506f565b60608401526132d66004820161506f565b60808401526132e76005820161506f565b60a08401526132f86006820161506f565b60c0840152613309600782016156e1565b60e084015261331a600882016156e1565b61010084015261333a60ff60098301546102e8828216610120880161557c565b600a810154610160840152600b81015461018084015261335c600c820161506f565b6101a084015261336e600d820161506f565b6101c0840152613380600e820161506f565b6101e0840152600f81015460ff1615156102008401526010810154610220840152015461024082015260208101516001600160a01b031633148015613610575b80156135ea575b80156135b2575b1561355e576060816102406135396135216135096134b161349961348261346c61345661344060809c6102606040519e8f9e8f93602085528051602086015260018060a01b03602082015116604086015260018060a01b036040820151168286015201519201526102808d0190615010565b60808b01518c8203601f190160a08e0152615010565b60a08a01518b8203601f190160c08d0152615010565b60c08901518a8203601f190160e08c0152615010565b60e0880151898203601f19016101008b015261517a565b610100870151888203601f19016101208a015261517a565b6134c56101208701516101408901906151d6565b6134d96101408701516101608901906151e3565b6101608601516101808801526101808601516101a08801526101a0860151601f19888303016101c0890152615010565b6101c0850151868203601f19016101e0880152615010565b6101e0840151858203601f1901610200870152615010565b9161020081015115156102208501526102208101518285015201516102608301520390f35b60405162461bcd60e51b815260206004820152602660248201527f4e6f7420617574686f72697a656420746f2076696577207468697320657870656044820152657269656e636560d01b6064820152608490fd5b503360009081527fad3228b676f7d3cd4284a5443f17f1962b36e491b30a40b2405849e597ba5fb5602052604090205460ff166133ce565b50336000908152600080516020615b3d833981519152602052604090205460ff166133c7565b5060408101516001600160a01b031633146133c0565b346105ce5760403660031901126105ce5761363f614e5a565b336001600160a01b0382160361365b57610b9f906004356153e8565b60405163334bd91960e11b8152600490fd5b346105ce5760403660031901126105ce57610b9f60043561368c614e5a565b908060005260006020526136a7600160406000200154615297565b61536f565b346105ce5760603660031901126105ce5760043560243560058110156105ce576044356136d7615492565b6136df615474565b8260005260036020526136f860406000205415156155ef565b82600052600360205261371c60018060a01b0360026040600020015416331461563b565b826000526003602052604060002091600983019160ff835460081c1660058110156138155782146137c4577f28454a3f99d50957a96dfa846847a86954083f923da441895aef7a4dc5866d989361377583602095615594565b426011820155821515806137bb575b61379f575b505061379860405180926151e3565ba260018055005b806137b2600a600b930154841015615501565b01558480613789565b50811515613784565b60405162461bcd60e51b815260206004820152602360248201527f53746174757320697320616c72656164792073657420746f20746869732076616044820152626c756560e81b6064820152608490fd5b634e487b7160e01b600052602160045260246000fd5b346105ce5760203660031901126105ce5760043560005260006020526020600160406000200154604051908152f35b346105ce5760403660031901126105ce57613873614e44565b6001600160a01b03166000908152600b60205260409020805460243591908210156105ce5760209161070691615162565b346105ce5760003660031901126105ce5760206040517ffc7c36207174f786648d2e624616a4b40e15fd7f0268b4e36af5057f0c43c8358152f35b346105ce5760403660031901126105ce576004356024356001600160401b0381116105ce57613912903690600401614f00565b9061391b615492565b613923615474565b806000527f88dd5bfcd1480d8239680a502b1605b86fc91d0b0751a8793e970bd485c364cb6139d06020936003855261396260406000205415156155ef565b836000526003855261398560018060a01b0360026040600020015416331461563b565b83600052600a855261399e60ff60406000205416615a1b565b83600052600a8552604060002060ff1981541690556139bd8433615a67565b6040519182918683523396830190615010565b0390a360018055005b346105ce5760003660031901126105ce5760405180600d5480835260208093018091600d6000527fd7b6990105719101dabeb77144f2a3385c8033acd3af97e9423a695e81ad1eb59060005b86828210613a84578686613a3b82880383614edf565b604051928392818401908285525180915260408401929160005b828110613a6457505050500390f35b83516001600160a01b031685528695509381019392810192600101613a55565b83546001600160a01b031685529093019260019283019201613a25565b346105ce5760203660031901126105ce576001600160a01b0380613ac3614e44565b166000526005602052604060002090815416613ae16001830161506f565b91613aee6002820161506f565b60ff613b81613aff6003850161506f565b613b73613b0e6004870161506f565b613b65613b1d6005890161506f565b93613b57600760068b01549a015498613b496040519d8e9d8e528d610120908160208201520190615010565b8c810360408e015290615010565b908a820360608c0152615010565b9088820360808a0152615010565b9086820360a0880152615010565b92818116151560c086015260081c16151560e08401526101008301520390f35b346105ce576020806003193601126105ce5760043590613bbf615492565b613bc7615474565b8160005260038152613bdf60406000205415156155ef565b8160005260038152613c0260018060a01b0360026040600020015416331461563b565b81600052600a8152613c1b60ff60406000205416615a1b565b8160005260038152613c3860ff600f6040600020015416156159cf565b8160005260038152600a604060002091600f83019260ff1993600185825416179055601142910155526040600020908154169055613c768133615a67565b33817fb0362fc6491538fb6678490452845f8ad657e21a73e47a0ee8d96382b743c164600080a333907f3271d417ec62b5686e3e1c4dc1cc9f843d33f75dd5040fd4eca47dc55db5edbc600080a360018055005b346105ce5760203660031901126105ce57613ce3614e44565b613ceb61525d565b6001600160a01b0316600081815260066020526040902054613d0f9060ff166154b5565b6000908152600560205260409020600601805461ff0019169055005b346105ce5760203660031901126105ce5760043560088110156105ce576128f86107b991615759565b346105ce576101803660031901126105ce57613d6e614e44565b6024356001600160401b0381116105ce57613d8d903690600401614f00565b6044356001600160401b0381116105ce57613dac903690600401614f00565b906064356001600160401b0381116105ce57613dcc903690600401614f00565b6084356001600160401b0381116105ce57613deb903690600401614f6d565b9160a4356001600160401b0381116105ce57613e0b903690600401614f6d565b91600860c43510156105ce57610124356001600160401b0381116105ce57613e37903690600401614f00565b90610144356001600160401b0381116105ce57613e58903690600401614f00565b92610164356001600160401b0381116105ce57613e79903690600401614f00565b94613e82615492565b613e8a615474565b3360009081527f9750accf27f3aaa2ee9af8a0d75778e5f1905b9db8fe4b539d9e6ecc553b7f74602052604090205460ff1615614db3576001600160a01b03891615614d6e57336000526006602052613eea60ff604060002054166154b5565b815115614d295760e435151580614d1d575b15614ce3578896613fb093613f1860e435610104351015615501565b600c5499613f258b615557565b600c5533600090815260056020526040902060010194426101043511614cd857613f776001965b8d60206040519e8f92613f5e84614e70565b83526001600160a01b03169101523360408e015261506f565b60608c015260808b015260a08a015260c089015260e0880152610100870152613fa660c435610120880161557c565b6101408601615588565b60e435610160850152610104356101808501526101a08401526101c08301526101e082015260006102008201524261022082015242610240820152816000526003602052604060002090805182556001820160018060a01b03602083015116906001600160601b0360a01b9182825416179055600283019060018060a01b036040840151169082541617905560608101518051906001600160401b03821161169b5781906140616003860154615035565b601f8111614ca3575b50602090601f8311600114614c3157600092614c26575b50508160011b916000199060031b1c19161760038301555b60808101518051906001600160401b03821161169b5781906140be6004860154615035565b601f8111614bf1575b50602090601f8311600114614b7f57600092614b74575b50508160011b916000199060031b1c19161760048301555b60a08101518051906001600160401b03821161169b57819061411b6005860154615035565b601f8111614b3f575b50602090601f8311600114614acd57600092614ac2575b50508160011b916000199060031b1c19161760058301555b60c08101518051906001600160401b03821161169b5781906141786006860154615035565b601f8111614a8d575b50602090601f8311600114614a1b57600092614a10575b50508160011b916000199060031b1c19161760068301555b60e0810151805190600160401b821161169b576007840154826007860155808310614998575b5060200190600784016000526020600020916000905b8282106148835750505050610100810151805190600160401b821161169b57600884015482600886015580831061480b575b5060200190600884016000526020600020916000905b8282106146f6575050505061012081015160088110156138155760ff8019600985015416911617600983015561014081015160058110156138155761427c9060098401615594565b610160810151600a830155610180810151600b8301556101a08101518051906001600160401b03821161169b5781906142b8600c860154615035565b601f81116146c1575b50602090601f831160011461464f57600092614644575b50508160011b916000199060031b1c191617600c8301555b6101c08101518051906001600160401b03821161169b578190614316600d860154615035565b601f811161460f575b50602090601f831160011461459d57600092614592575b50508160011b916000199060031b1c191617600d8301555b6101e08101518051906001600160401b03821161169b57614372600e850154615035565b601f811161455d575b50602090601f83116001146144e757918060119492610240946000926144dc575b50508160011b916000199060031b1c191617600e8501555b6143d46102008201511515600f86019060ff801983541691151516179055565b6102208101516010850155015191015560018060a01b03821660005260046020526144038160406000206155b3565b3360005260056020526001604060002001816040519160009080549061442882615035565b91600181169081156144c4575060011461448b575b5050916020818460096144549652030190206155b3565b33916001600160a01b0316907f4bd575369a1e2e62028c09861f3f430311840cdcf4b2be3463bb59a6d381fe20600080a460018055005b90915060005260206000206000905b8282106144ad575050820160208361443d565b80548286015285935060209091019060010161449a565b60ff191686525050801515028301905060208361443d565b01519050888061439c565b90600e850160005260206000209160005b601f1985168110614545575092601194926001926102409583601f1981161061452c575b505050811b01600e8501556143b4565b015160001960f88460031b161c1916905588808061451c565b919260206001819286850151815501940192016144f8565b61458c90600e86016000526020600020601f850160051c8101916020861061169157601f0160051c019061545d565b8661437b565b015190508680614336565b9250600d85016000526020600020906000935b601f19841685106145f4576001945083601f198116106145db575b505050811b01600d83015561434e565b015160001960f88460031b161c191690558680806145cb565b818101518355602094850194600190930192909101906145b0565b61463e90600d87016000526020600020601f850160051c8101916020861061169157601f0160051c019061545d565b8761431f565b0151905086806142d8565b9250600c85016000526020600020906000935b601f19841685106146a6576001945083601f1981161061468d575b505050811b01600c8301556142f0565b015160001960f88460031b161c1916905586808061467d565b81810151835560209485019460019093019290910190614662565b6146f090600c87016000526020600020601f850160051c8101916020861061169157601f0160051c019061545d565b876142c1565b80518051906001600160401b03821161169b576147138654615035565b601f81116147d9575b50602090601f831160011461476957928260019493602093869560009261475e575b5050600019600383901b1c191690841b1787555b01940191019092614234565b015190508d8061473e565b908660005260206000209160005b601f19851681106147c1575083602093600196938796938794601f198116106147a8575b505050811b018755614752565b015160001960f88460031b161c191690558d808061479b565b91926020600181928685015181550194019201614777565b61480590876000526020600020601f850160051c8101916020861061169157601f0160051c019061545d565b8a61471c565b600885016000526020600020908382015b818301811061482c57505061421e565b8061483960019254615035565b80614846575b500161481c565b601f8111831461485c5750600081555b8a61483f565b60009082825261487a601f60208420920160051c820185830161545d565b81835555614856565b80518051906001600160401b03821161169b576148a08654615035565b601f8111614966575b50602090601f83116001146148f65792826001949360209386956000926148eb575b5050600019600383901b1c191690841b1787555b019401910190926141ec565b015190508d806148cb565b908660005260206000209160005b601f198516811061494e575083602093600196938796938794601f19811610614935575b505050811b0187556148df565b015160001960f88460031b161c191690558d8080614928565b91926020600181928685015181550194019201614904565b61499290876000526020600020601f850160051c8101916020861061169157601f0160051c019061545d565b8a6148a9565b600785016000526020600020908382015b81830181106149b95750506141d6565b806149c660019254615035565b806149d3575b50016149a9565b601f811183146149e95750600081555b8a6149cc565b600090828252614a07601f60208420920160051c820185830161545d565b818355556149e3565b015190508680614198565b9250600685016000526020600020906000935b601f1984168510614a72576001945083601f19811610614a59575b505050811b0160068301556141b0565b015160001960f88460031b161c19169055868080614a49565b81810151835560209485019460019093019290910190614a2e565b614abc90600687016000526020600020601f850160051c8101916020861061169157601f0160051c019061545d565b87614181565b01519050868061413b565b9250600585016000526020600020906000935b601f1984168510614b24576001945083601f19811610614b0b575b505050811b016005830155614153565b015160001960f88460031b161c19169055868080614afb565b81810151835560209485019460019093019290910190614ae0565b614b6e90600587016000526020600020601f850160051c8101916020861061169157601f0160051c019061545d565b87614124565b0151905086806140de565b9250600485016000526020600020906000935b601f1984168510614bd6576001945083601f19811610614bbd575b505050811b0160048301556140f6565b015160001960f88460031b161c19169055868080614bad565b81810151835560209485019460019093019290910190614b92565b614c2090600487016000526020600020601f850160051c8101916020861061169157601f0160051c019061545d565b876140c7565b015190508680614081565b9250600385016000526020600020906000935b601f1984168510614c88576001945083601f19811610614c6f575b505050811b016003830155614099565b015160001960f88460031b161c19169055868080614c5f565b81810151835560209485019460019093019290910190614c44565b614cd290600387016000526020600020601f850160051c8101916020861061169157601f0160051c019061545d565b8761406a565b613f77600096613f4c565b60405162461bcd60e51b8152602060048201526012602482015271496e76616c6964207374617274206461746560701b6044820152606490fd5b504260e4351115613efc565b60405162461bcd60e51b815260206004820152601860248201527f506f736974696f6e2063616e6e6f7420626520656d70747900000000000000006044820152606490fd5b60405162461bcd60e51b815260206004820152601860248201527f496e76616c696420656d706c6f796565206164647265737300000000000000006044820152606490fd5b60405163e2517d3f60e01b81523360048201527ffc7c36207174f786648d2e624616a4b40e15fd7f0268b4e36af5057f0c43c8356024820152604490fd5b346105ce5760203660031901126105ce576004359063ffffffff60e01b82168092036105ce57602091637965db0b60e01b8114908115614e33575b5015158152f35b6301ffc9a760e01b14905083614e2c565b600435906001600160a01b03821682036105ce57565b602435906001600160a01b03821682036105ce57565b61026081019081106001600160401b0382111761169b57604052565b61010081019081106001600160401b0382111761169b57604052565b61012081019081106001600160401b0382111761169b57604052565b604081019081106001600160401b0382111761169b57604052565b90601f801991011681019081106001600160401b0382111761169b57604052565b81601f820112156105ce578035906001600160401b03821161169b5760405192614f34601f8401601f191660200185614edf565b828452602083830101116105ce57816000926020809301838601378301015290565b6001600160401b03811161169b5760051b60200190565b9080601f830112156105ce57813590614f8582614f56565b92614f936040519485614edf565b828452602092838086019160051b830101928084116105ce57848301915b848310614fc15750505050505090565b82356001600160401b0381116105ce578691614fe284848094890101614f00565b815201920191614fb1565b60005b8381106150005750506000910152565b8181015183820152602001614ff0565b9060209161502981518092818552858086019101614fed565b601f01601f1916010190565b90600182811c92168015615065575b602083101461504f57565b634e487b7160e01b600052602260045260246000fd5b91607f1691615044565b906040519182600082549261508384615035565b9081845260019485811690816000146150f257506001146150af575b50506150ad92500383614edf565b565b9093915060005260209081600020936000915b8183106150da5750506150ad9350820101388061509f565b855488840185015294850194879450918301916150c2565b9150506150ad94506020925060ff191682840152151560051b820101388061509f565b600d5481101561514c57600d6000527fd7b6990105719101dabeb77144f2a3385c8033acd3af97e9423a695e81ad1eb50190600090565b634e487b7160e01b600052603260045260246000fd5b805482101561514c5760005260206000200190600090565b908082519081815260208091019281808460051b8301019501936000915b8483106151a85750505050505090565b90919293949584806151c6600193601f198682030187528a51615010565b9801930193019194939290615198565b9060088210156138155752565b9060058210156138155752565b60409060031901126105ce576004359060243590565b805482101561514c5760005260206000209060031b0190600090565b6020908160408183019282815285518094520193019160005b828110615249575050505090565b83518552938101939281019260010161523b565b3360009081527fad3228b676f7d3cd4284a5443f17f1962b36e491b30a40b2405849e597ba5fb5602052604081205460ff1615610ea95750565b80600052600060205260406000203360005260205260ff6040600020541615610ea95750565b6001600160a01b031660008181527f9750accf27f3aaa2ee9af8a0d75778e5f1905b9db8fe4b539d9e6ecc553b7f7460205260408120549091907ffc7c36207174f786648d2e624616a4b40e15fd7f0268b4e36af5057f0c43c8359060ff1661536a57808352826020526040832082845260205260408320600160ff198254161790557f2f8788117e7eff1d82e926ec794901d17c78024a50270940304540a733656f0d339380a4600190565b505090565b9060009180835282602052604083209160018060a01b03169182845260205260ff6040842054161560001461536a57808352826020526040832082845260205260408320600160ff198254161790557f2f8788117e7eff1d82e926ec794901d17c78024a50270940304540a733656f0d339380a4600190565b9060009180835282602052604083209160018060a01b03169182845260205260ff60408420541660001461536a5780835282602052604083208284526020526040832060ff1981541690557ff6391f5c32d9c69d2a47ea670b442974b53935d1edc7fd64eb21e047a839171b339380a4600190565b818110615468575050565b6000815560010161545d565b60ff6002541661548057565b60405163d93c066560e01b8152600490fd5b6002600154146154a3576002600155565b604051633ee5aeb560e01b8152600490fd5b156154bc57565b60405162461bcd60e51b815260206004820152601760248201527f456d706c6f796572206e6f7420726567697374657265640000000000000000006044820152606490fd5b1561550857565b60405162461bcd60e51b815260206004820152602160248201527f456e642064617465206d757374206265206166746572207374617274206461746044820152606560f81b6064820152608490fd5b60001981146155665760010190565b634e487b7160e01b600052601160045260246000fd5b60088210156138155752565b60058210156138155752565b9060058110156138155761ff0082549160081b169061ff001916179055565b90815491600160401b83101561169b57826155d69160016150ad95018155615162565b90919082549060031b91821b91600019901b1916179055565b156155f657565b60405162461bcd60e51b815260206004820152601e60248201527f576f726b20657870657269656e636520646f6573206e6f7420657869737400006044820152606490fd5b1561564257565b60405162461bcd60e51b815260206004820152602560248201527f4f6e6c7920656d706c6f7965722063616e20706572666f726d2074686973206160448201526431ba34b7b760d91b6064820152608490fd5b1561569c57565b60405162461bcd60e51b815260206004820152601f60248201527f526174696e67206d757374206265206265747765656e203120616e64203130006044820152606490fd5b9081546156ed81614f56565b926156fb6040519485614edf565b818452600090815260208082208186015b84841061571a575050505050565b60018381926157288561506f565b81520192019301929061570c565b6040519061574382614ec4565b60078252662ab735b737bbb760c91b6020830152565b60088110156138155780156158b95760018114615893576002811461586e5760038114615848576004811461582157600581146157f657600681146157d0576007146157aa576157a7615736565b90565b6040516157b681614ec4565b600a815269436f6e73756c74696e6760b01b602082015290565b506040516157dd81614ec4565b60098152682b37b63ab73a32b2b960b91b602082015290565b5060405161580381614ec4565b600e81526d041707072656e74696365736869760941b602082015290565b5060405161582e81614ec4565b600a8152690496e7465726e736869760b41b602082015290565b5060405161585581614ec4565b6009815268467265656c616e636560b81b602082015290565b5060405161587b81614ec4565b600881526710dbdb9d1c9858dd60c21b602082015290565b506040516158a081614ec4565b6009815268506172742054696d6560b81b602082015290565b506040516158c681614ec4565b600981526846756c6c2054696d6560b81b602082015290565b60058110156138155780156159ab5760018114615985576002811461595e576003811461593957600414615915576157a7615736565b60405161592181614ec4565b60088152672630b4b21027b33360c11b602082015290565b5060405161594681614ec4565b600881526714995cda59db995960c21b602082015290565b5060405161596b81614ec4565b600a81526915195c9b5a5b985d195960b21b602082015290565b5060405161599281614ec4565b600981526810dbdb5c1b195d195960ba1b602082015290565b506040516159b881614ec4565b600781526610dd5c9c995b9d60ca1b602082015290565b156159d657565b60405162461bcd60e51b815260206004820152601760248201527f5265636f726420616c72656164792076657269666965640000000000000000006044820152606490fd5b15615a2257565b60405162461bcd60e51b815260206004820152601a60248201527f566572696669636174696f6e206e6f74207265717565737465640000000000006044820152606490fd5b6001600160a01b03166000908152600b60205260408120909190825b815480821015615b35578390615a998385615162565b929054600393841b1c14615ab7575050615ab290615557565b615a83565b929350939060001992838101908111615b2157906155d6615adb615ae89387615162565b905490881b1c9186615162565b8254908115615b0d5750810192615aff8484615162565b81939154921b1b1916905555565b634e487b7160e01b81526031600452602490fd5b634e487b7160e01b83526011600452602483fd5b505050505056fe1da0b5176dfe03406af5a6eed66ca01dda9b45ac4da671c3fa379cb93717ef810ce23c3e399818cfee81a7ab0880f714e53d7672b08df0fa62f2843416e1ea09a2646970667358221220ca819131cc6683a72f10a9098c5d6042cb87a77a6cf65fa7d1dcba3c165e38bb64736f6c634300081400332f8788117e7eff1d82e926ec794901d17c78024a50270940304540a733656f0d",
  "linkReferences": {},
  "deployedLinkReferences": {}
}