{
  "_format": "hh-sol-artifact-1",
  "contractName": "UserRegistry",
  "sourceName": "contracts/UserRegistry.sol",
  "abi": [
    {
      "inputs": [],
      "stateMutability": "nonpayable",
      "type": "constructor"
    },
    {
      "inputs": [],
      "name": "AccessControlBadConfirmation",
      "type": "error"
    },
    {
      "inputs": [
        {
          "internalType": "address",
          "name": "account",
          "type": "address"
        },
        {
          "internalType": "bytes32",
          "name": "neededRole",
          "type": "bytes32"
        }
      ],
      "name": "AccessControlUnauthorizedAccount",
      "type": "error"
    },
    {
      "inputs": [],
      "name": "EnforcedPause",
      "type": "error"
    },
    {
      "inputs": [],
      "name": "ExpectedPause",
      "type": "error"
    },
    {
      "inputs": [],
      "name": "ReentrancyGuardReentrantCall",
      "type": "error"
    },
    {
      "anonymous": false,
      "inputs": [
        {
          "indexed": false,
          "internalType": "address",
          "name": "account",
          "type": "address"
        }
      ],
      "name": "Paused",
      "type": "event"
    },
    {
      "anonymous": false,
      "inputs": [
        {
          "indexed": true,
          "internalType": "bytes32",
          "name": "role",
          "type": "bytes32"
        },
        {
          "indexed": true,
          "internalType": "bytes32",
          "name": "previousAdminRole",
          "type": "bytes32"
        },
        {
          "indexed": true,
          "internalType": "bytes32",
          "name": "newAdminRole",
          "type": "bytes32"
        }
      ],
      "name": "RoleAdminChanged",
      "type": "event"
    },
    {
      "anonymous": false,
      "inputs": [
        {
          "indexed": true,
          "internalType": "bytes32",
          "name": "role",
          "type": "bytes32"
        },
        {
          "indexed": true,
          "internalType": "address",
          "name": "account",
          "type": "address"
        },
        {
          "indexed": true,
          "internalType": "address",
          "name": "sender",
          "type": "address"
        }
      ],
      "name": "RoleGranted",
      "type": "event"
    },
    {
      "anonymous": false,
      "inputs": [
        {
          "indexed": true,
          "internalType": "bytes32",
          "name": "role",
          "type": "bytes32"
        },
        {
          "indexed": true,
          "internalType": "address",
          "name": "account",
          "type": "address"
        },
        {
          "indexed": true,
          "internalType": "address",
          "name": "sender",
          "type": "address"
        }
      ],
      "name": "RoleRevoked",
      "type": "event"
    },
    {
      "anonymous": false,
      "inputs": [
        {
          "indexed": false,
          "internalType": "address",
          "name": "account",
          "type": "address"
        }
      ],
      "name": "Unpaused",
      "type": "event"
    },
    {
      "anonymous": false,
      "inputs": [
        {
          "indexed": true,
          "internalType": "address",
          "name": "userAddress",
          "type": "address"
        },
        {
          "indexed": false,
          "internalType": "uint256",
          "name": "timestamp",
          "type": "uint256"
        }
      ],
      "name": "UserDeactivated",
      "type": "event"
    },
    {
      "anonymous": false,
      "inputs": [
        {
          "indexed": true,
          "internalType": "address",
          "name": "userAddress",
          "type": "address"
        },
        {
          "indexed": false,
          "internalType": "uint256",
          "name": "timestamp",
          "type": "uint256"
        }
      ],
      "name": "UserReactivated",
      "type": "event"
    },
    {
      "anonymous": false,
      "inputs": [
        {
          "indexed": true,
          "internalType": "address",
          "name": "userAddress",
          "type": "address"
        },
        {
          "indexed": false,
          "internalType": "enum UserRegistry.UserRole",
          "name": "role",
          "type": "uint8"
        },
        {
          "indexed": false,
          "internalType": "string",
          "name": "name",
          "type": "string"
        },
        {
          "indexed": false,
          "internalType": "uint256",
          "name": "timestamp",
          "type": "uint256"
        }
      ],
      "name": "UserRegistered",
      "type": "event"
    },
    {
      "anonymous": false,
      "inputs": [
        {
          "indexed": true,
          "internalType": "address",
          "name": "userAddress",
          "type": "address"
        },
        {
          "indexed": false,
          "internalType": "enum UserRegistry.UserRole",
          "name": "newRole",
          "type": "uint8"
        },
        {
          "indexed": false,
          "internalType": "uint256",
          "name": "timestamp",
          "type": "uint256"
        }
      ],
      "name": "UserUpdated",
      "type": "event"
    },
    {
      "inputs": [],
      "name": "ADMIN_ROLE",
      "outputs": [
        {
          "internalType": "bytes32",
          "name": "",
          "type": "bytes32"
        }
      ],
      "stateMutability": "view",
      "type": "function"
    },
    {
      "inputs": [],
      "name": "DEFAULT_ADMIN_ROLE",
      "outputs": [
        {
          "internalType": "bytes32",
          "name": "",
          "type": "bytes32"
        }
      ],
      "stateMutability": "view",
      "type": "function"
    },
    {
      "inputs": [
        {
          "internalType": "uint256",
          "name": "",
          "type": "uint256"
        }
      ],
      "name": "allUsers",
      "outputs": [
        {
          "internalType": "address",
          "name": "",
          "type": "address"
        }
      ],
      "stateMutability": "view",
      "type": "function"
    },
    {
      "inputs": [
        {
          "internalType": "address[]",
          "name": "_addresses",
          "type": "address[]"
        },
        {
          "internalType": "enum UserRegistry.UserRole[]",
          "name": "_roles",
          "type": "uint8[]"
        },
        {
          "internalType": "string[]",
          "name": "_names",
          "type": "string[]"
        },
        {
          "internalType": "string[]",
          "name": "_organizationNames",
          "type": "string[]"
        },
        {
          "internalType": "string[]",
          "name": "_emails",
          "type": "string[]"
        }
      ],
      "name": "batchRegisterUsers",
      "outputs": [],
      "stateMutability": "nonpayable",
      "type": "function"
    },
    {
      "inputs": [
        {
          "internalType": "address",
          "name": "_userAddress",
          "type": "address"
        }
      ],
      "name": "deactivateUser",
      "outputs": [],
      "stateMutability": "nonpayable",
      "type": "function"
    },
    {
      "inputs": [],
      "name": "getAllStudents",
      "outputs": [
        {
          "internalType": "address[]",
          "name": "",
          "type": "address[]"
        }
      ],
      "stateMutability": "view",
      "type": "function"
    },
    {
      "inputs": [],
      "name": "getAllUsers",
      "outputs": [
        {
          "internalType": "address[]",
          "name": "",
          "type": "address[]"
        }
      ],
      "stateMutability": "view",
      "type": "function"
    },
    {
      "inputs": [
        {
          "internalType": "bytes32",
          "name": "role",
          "type": "bytes32"
        }
      ],
      "name": "getRoleAdmin",
      "outputs": [
        {
          "internalType": "bytes32",
          "name": "",
          "type": "bytes32"
        }
      ],
      "stateMutability": "view",
      "type": "function"
    },
    {
      "inputs": [
        {
          "internalType": "enum UserRegistry.UserRole",
          "name": "_role",
          "type": "uint8"
        }
      ],
      "name": "getRoleName",
      "outputs": [
        {
          "internalType": "string",
          "name": "",
          "type": "string"
        }
      ],
      "stateMutability": "pure",
      "type": "function"
    },
    {
      "inputs": [],
      "name": "getTotalUsers",
      "outputs": [
        {
          "internalType": "uint256",
          "name": "",
          "type": "uint256"
        }
      ],
      "stateMutability": "view",
      "type": "function"
    },
    {
      "inputs": [
        {
          "internalType": "address",
          "name": "_userAddress",
          "type": "address"
        }
      ],
      "name": "getUserProfile",
      "outputs": [
        {
          "components": [
            {
              "internalType": "address",
              "name": "walletAddress",
              "type": "address"
            },
            {
              "internalType": "enum UserRegistry.UserRole",
              "name": "role",
              "type": "uint8"
            },
            {
              "internalType": "string",
              "name": "name",
              "type": "string"
            },
            {
              "internalType": "string",
              "name": "organizationName",
              "type": "string"
            },
            {
              "internalType": "string",
              "name": "email",
              "type": "string"
            },
            {
              "internalType": "bool",
              "name": "isActive",
              "type": "bool"
            },
            {
              "internalType": "uint256",
              "name": "registeredAt",
              "type": "uint256"
            },
            {
              "internalType": "uint256",
              "name": "updatedAt",
              "type": "uint256"
            }
          ],
          "internalType": "struct UserRegistry.UserProfile",
          "name": "",
          "type": "tuple"
        }
      ],
      "stateMutability": "view",
      "type": "function"
    },
    {
      "inputs": [
        {
          "internalType": "address",
          "name": "_userAddress",
          "type": "address"
        }
      ],
      "name": "getUserRole",
      "outputs": [
        {
          "internalType": "enum UserRegistry.UserRole",
          "name": "",
          "type": "uint8"
        }
      ],
      "stateMutability": "view",
      "type": "function"
    },
    {
      "inputs": [
        {
          "internalType": "enum UserRegistry.UserRole",
          "name": "_role",
          "type": "uint8"
        }
      ],
      "name": "getUsersByRole",
      "outputs": [
        {
          "internalType": "address[]",
          "name": "",
          "type": "address[]"
        }
      ],
      "stateMutability": "view",
      "type": "function"
    },
    {
      "inputs": [
        {
          "internalType": "bytes32",
          "name": "role",
          "type": "bytes32"
        },
        {
          "internalType": "address",
          "name": "account",
          "type": "address"
        }
      ],
      "name": "grantRole",
      "outputs": [],
      "stateMutability": "nonpayable",
      "type": "function"
    },
    {
      "inputs": [
        {
          "internalType": "bytes32",
          "name": "role",
          "type": "bytes32"
        },
        {
          "internalType": "address",
          "name": "account",
          "type": "address"
        }
      ],
      "name": "hasRole",
      "outputs": [
        {
          "internalType": "bool",
          "name": "",
          "type": "bool"
        }
      ],
      "stateMutability": "view",
      "type": "function"
    },
    {
      "inputs": [
        {
          "internalType": "address",
          "name": "_userAddress",
          "type": "address"
        },
        {
          "internalType": "enum UserRegistry.UserRole",
          "name": "_role",
          "type": "uint8"
        }
      ],
      "name": "hasRole",
      "outputs": [
        {
          "internalType": "bool",
          "name": "",
          "type": "bool"
        }
      ],
      "stateMutability": "view",
      "type": "function"
    },
    {
      "inputs": [
        {
          "internalType": "address",
          "name": "_userAddress",
          "type": "address"
        }
      ],
      "name": "isActiveUser",
      "outputs": [
        {
          "internalType": "bool",
          "name": "",
          "type": "bool"
        }
      ],
      "stateMutability": "view",
      "type": "function"
    },
    {
      "inputs": [
        {
          "internalType": "address",
          "name": "",
          "type": "address"
        }
      ],
      "name": "isRegistered",
      "outputs": [
        {
          "internalType": "bool",
          "name": "",
          "type": "bool"
        }
      ],
      "stateMutability": "view",
      "type": "function"
    },
    {
      "inputs": [],
      "name": "pause",
      "outputs": [],
      "stateMutability": "nonpayable",
      "type": "function"
    },
    {
      "inputs": [],
      "name": "paused",
      "outputs": [
        {
          "internalType": "bool",
          "name": "",
          "type": "bool"
        }
      ],
      "stateMutability": "view",
      "type": "function"
    },
    {
      "inputs": [
        {
          "internalType": "address",
          "name": "_userAddress",
          "type": "address"
        }
      ],
      "name": "reactivateUser",
      "outputs": [],
      "stateMutability": "nonpayable",
      "type": "function"
    },
    {
      "inputs": [
        {
          "internalType": "address",
          "name": "_userAddress",
          "type": "address"
        },
        {
          "internalType": "enum UserRegistry.UserRole",
          "name": "_role",
          "type": "uint8"
        },
        {
          "internalType": "string",
          "name": "_name",
          "type": "string"
        },
        {
          "internalType": "string",
          "name": "_organizationName",
          "type": "string"
        },
        {
          "internalType": "string",
          "name": "_email",
          "type": "string"
        }
      ],
      "name": "registerUser",
      "outputs": [],
      "stateMutability": "nonpayable",
      "type": "function"
    },
    {
      "inputs": [
        {
          "internalType": "bytes32",
          "name": "role",
          "type": "bytes32"
        },
        {
          "internalType": "address",
          "name": "callerConfirmation",
          "type": "address"
        }
      ],
      "name": "renounceRole",
      "outputs": [],
      "stateMutability": "nonpayable",
      "type": "function"
    },
    {
      "inputs": [
        {
          "internalType": "bytes32",
          "name": "role",
          "type": "bytes32"
        },
        {
          "internalType": "address",
          "name": "account",
          "type": "address"
        }
      ],
      "name": "revokeRole",
      "outputs": [],
      "stateMutability": "nonpayable",
      "type": "function"
    },
    {
      "inputs": [
        {
          "internalType": "bytes4",
          "name": "interfaceId",
          "type": "bytes4"
        }
      ],
      "name": "supportsInterface",
      "outputs": [
        {
          "internalType": "bool",
          "name": "",
          "type": "bool"
        }
      ],
      "stateMutability": "view",
      "type": "function"
    },
    {
      "inputs": [],
      "name": "unpause",
      "outputs": [],
      "stateMutability": "nonpayable",
      "type": "function"
    },
    {
      "inputs": [
        {
          "internalType": "address",
          "name": "_userAddress",
          "type": "address"
        },
        {
          "internalType": "enum UserRegistry.UserRole",
          "name": "_newRole",
          "type": "uint8"
        }
      ],
      "name": "updateUserRole",
      "outputs": [],
      "stateMutability": "nonpayable",
      "type": "function"
    },
    {
      "inputs": [
        {
          "internalType": "address",
          "name": "",
          "type": "address"
        }
      ],
      "name": "users",
      "outputs": [
        {
          "internalType": "address",
          "name": "walletAddress",
          "type": "address"
        },
        {
          "internalType": "enum UserRegistry.UserRole",
          "name": "role",
          "type": "uint8"
        },
        {
          "internalType": "string",
          "name": "name",
          "type": "string"
        },
        {
          "internalType": "string",
          "name": "organizationName",
          "type": "string"
        },
        {
          "internalType": "string",
          "name": "email",
          "type": "string"
        },
        {
          "internalType": "bool",
          "name": "isActive",
          "type": "bool"
        },
        {
          "internalType": "uint256",
          "name": "registeredAt",
          "type": "uint256"
        },
        {
          "internalType": "uint256",
          "name": "updatedAt",
          "type": "uint256"
        }
      ],
      "stateMutability": "view",
      "type": "function"
    },
    {
      "inputs": [
        {
          "internalType": "enum UserRegistry.UserRole",
          "name": "",
          "type": "uint8"
        },
        {
          "internalType": "uint256",
          "name": "",
          "type": "uint256"
        }
      ],
      "name": "usersByRole",
      "outputs": [
        {
          "internalType": "address",
          "name": "",
          "type": "address"
        }
      ],
      "stateMutability": "view",
      "type": "function"
    }
  ],
  "bytecode": "0x604060808152346200070a57600180556200001a336200072f565b506200002633620007af565b50805161010081016001600160401b038111828210176200050f5782523381526020810160018152620000586200070f565b90601482527f53797374656d2041646d696e6973747261746f720000000000000000000000006020830152838301918252620000936200070f565b600681526553797374656d60d01b6020820152606084015283516020810181811060018060401b038211176200050f578552600081526080840152600160a084015260c08301914283524260e0850152336000526003602052846000209160018060a01b03855116835491516007811015620006f4576001600160a81b03199092161760a09190911b60ff60a01b16178255518051906001600160401b0382116200050f57600183015490600182811c92168015620006e9575b6020831014620004ee5781601f84931162000691575b50602090601f83116001146200061a576000926200060e575b50508160011b916000199060031b1c19161760018201555b60608301518051906001600160401b0382116200050f57600283015490600182811c9216801562000603575b6020831014620004ee5781601f849311620005a8575b50602090601f8311600114620005315760009262000525575b50508160011b916000199060031b1c19161760028201555b6080830151805160038301916001600160401b0382116200050f57825490600182811c9216801562000504575b6020831014620004ee5781601f84931162000496575b50602090601f83116001146200042b576000926200041f575b50508160011b916000199060031b1c19161790555b600660e06004948584019460a082015115159560ff199660ff88835416911617905551600585015501519101553360005281602052600183600020918254161790556005546801000000000000000090818110156200040a576001810180600555811015620003f5577f036b6384b5eca791c62761152d0c79bb0604c104a5fb6f4eb0703f3154bb3db00180546001600160a01b03199081163317909155600160009081526006602052849020805491939192909190831015620003e05760018301808355831015620003cb575060005260206000200190339082541617905580516001815260606020820152601460608201527f53797374656d2041646d696e6973747261746f72000000000000000000000000608082015242828201527f726667a5f20e9b31dc33e05c22e9c75635a2b28353c1e1758ef024205927f70260a03392a2516127389081620008528239f35b603290634e487b7160e01b6000525260246000fd5b604190634e487b7160e01b6000525260246000fd5b603283634e487b7160e01b6000525260246000fd5b604183634e487b7160e01b6000525260246000fd5b01519050388062000263565b6000858152602081209350601f198516905b8181106200047d575090846001959493921062000463575b505050811b01905562000278565b015160001960f88460031b161c1916905538808062000455565b929360206001819287860151815501950193016200043d565b909150836000526020600020601f840160051c81019160208510620004e3575b90601f859493920160051c01905b818110620004d357506200024a565b60008155849350600101620004c4565b9091508190620004b6565b634e487b7160e01b600052602260045260246000fd5b91607f169162000234565b634e487b7160e01b600052604160045260246000fd5b015190503880620001ef565b9250600284016000526020600020906000935b601f19841685106200058c576001945083601f1981161062000572575b505050811b01600282015562000207565b015160001960f88460031b161c1916905538808062000561565b8181015183556020948501946001909301929091019062000544565b909150600284016000526020600020601f840160051c81019160208510620005f8575b90601f859493920160051c01905b818110620005e85750620001d6565b60008155849350600101620005d9565b9091508190620005cb565b91607f1691620001c0565b0151905038806200017c565b9250600184016000526020600020906000935b601f198416851062000675576001945083601f198116106200065b575b505050811b01600182015562000194565b015160001960f88460031b161c191690553880806200064a565b818101518355602094850194600190930192909101906200062d565b909150600184016000526020600020601f840160051c810160208510620006e1575b90849392915b601f830160051c82018110620006d157505062000163565b60008155859450600101620006b9565b5080620006b3565b91607f16916200014d565b634e487b7160e01b600052602160045260246000fd5b600080fd5b60408051919082016001600160401b038111838210176200050f57604052565b6001600160a01b031660008181527fad3228b676f7d3cd4284a5443f17f1962b36e491b30a40b2405849e597ba5fb5602052604081205490919060ff16620007ab57818052816020526040822081835260205260408220600160ff19825416179055339160008051602062002f8a8339815191528180a4600190565b5090565b6001600160a01b031660008181527f7d7ffb7a348e1c6a02869081a26547b49160dd3df72d1d75a570eb9b698292ec60205260408120549091907fa49807205ce4d355092ef5a8a18f56e8913cf4a201fbe287825b095693c217759060ff166200084c57808352826020526040832082845260205260408320600160ff1982541617905560008051602062002f8a833981519152339380a4600190565b50509056fe608080604052600436101561001357600080fd5b60003560e01c90816301ffc9a714611c3c575080631a47767b14611afb578063248a9ca314611acc5780632782085114611a9a5780632f2ff15d14611a5b57806336568abe14611a145780633f4ba83a146119aa5780634202d2141461194e5780635c975abb1461192b57806372441c60146111c557806375b238fc1461119c57806381a29457146110b05780638456cb5914611056578063916dfe62146109cd57806391d148541461098057806395a8c58d146108f3578063987ee156146107685780639be572f61461074a578063a217fddf1461072e578063a2bdedf4146106d3578063a87430ba146105fd578063c25bd0d2146105a6578063c291fe621461033c578063c3c5a547146102fd578063d547741f146102bc578063d5afdbb01461027f578063ddb7a4de14610246578063e2842d79146101ba5763e9e309271461015e57600080fd5b346101b55760003660031901126101b557600260005260066020526101b16101a57f8819ef417987f8ae7a81f42cdfb18815282fe989326fbff903d13cf0e03ace2961252a565b60405191829182611fa3565b0390f35b600080fd5b346101b55760003660031901126101b5576101d3611fe7565b604051806005549182815260208091019260056000527f036b6384b5eca791c62761152d0c79bb0604c104a5fb6f4eb0703f3154bb3db0916000905b828210610226576101b1856101a581890382611cff565b83546001600160a01b03168652948501946001938401939091019061020f565b346101b55760203660031901126101b55760043560078110156101b5576101a561027a6101b192610275611fe7565b611f8a565b61252a565b346101b55760203660031901126101b55760043560078110156101b5576102a86101b191612582565b604051918291602083526020830190611e3c565b346101b55760403660031901126101b5576102fb6004356102db611ca5565b908060005260006020526102f660016040600020015461204f565b612227565b005b346101b55760203660031901126101b5576001600160a01b0361031e611c8f565b166000526004602052602060ff604060002054166040519015158152f35b346101b55761034a36611e0d565b610352612425565b61035a612407565b610362611fe7565b60018060a01b03908183169283600052600460205261038860ff604060002054166124af565b6007821015806105475761039d83151561229c565b8460005260038060205260406000209060ff825460a01c16916103c08682612333565b6006429101556103cf82611f8a565b60005b8154808210156105985789896103e88486611e7c565b905490871b1c161461040357506103fe9061248c565b6103d2565b600098929394959697981991828201918211610582576104388461042a6104579488611e7c565b905490891b1c169186611e7c565b90919082549060031b9160018060a01b03809116831b921b1916179055565b8254801561056c57019261046b8484611e7c565b81939154921b1b19169055555b61048a8361048586611f8a565b6123bb565b600781101561054757600114808061055d575b156104ec5750507f5bb010dc69d7527dd8427d347a09974d8085a9e2874e9eb9bd28fb234145c3e8916104d160409261218e565b505b6104df82518092611cbb565b426020820152a260018055005b159081610536575b50916040917f5bb010dc69d7527dd8427d347a09974d8085a9e2874e9eb9bd28fb234145c3e893610526575b506104d3565b61052f90612075565b5084610520565b9050610547576001821460406104f4565b634e487b7160e01b600052602160045260246000fd5b5060009150600184141561049d565b634e487b7160e01b600052603160045260246000fd5b634e487b7160e01b600052601160045260246000fd5b505050509091929350610478565b346101b55760403660031901126101b55760043560078110156101b5576105cf60243591611f8a565b80548210156101b5576020916105e491611e7c565b905460405160039290921b1c6001600160a01b03168152f35b346101b55760203660031901126101b5576001600160a01b038061061f611c8f565b16600052600360205260406000209081549161063d60018201611ee4565b61064960028301611ee4565b916106bd61065960038301611ee4565b6106af60ff600485015416956106a160066005870154960154966106906040519b8c9b81168c5260ff60208d019160a01c16611cbb565b6101008060408c01528a0190611e3c565b9088820360608a0152611e3c565b908682036080880152611e3c565b92151560a085015260c084015260e08301520390f35b346101b55760203660031901126101b5576004356005548110156101b55760056000527f036b6384b5eca791c62761152d0c79bb0604c104a5fb6f4eb0703f3154bb3db001546040516001600160a01b039091168152602090f35b346101b55760003660031901126101b557602060405160008152f35b346101b55760003660031901126101b5576020600554604051908152f35b346101b5576020806003193601126101b557610782611c8f565b60405161078e81611cc8565b60008152600083820152600060e060609283604082015283808201528360808201528260a08201528260c0820152015260018060a01b0380921680600052600484526107e160ff604060002054166124af565b600052600383526040600020906040516107fa81611cc8565b825492848416825261081560ff8784019560a01c168561231a565b6108db61082460018301611ee4565b6040840190815261083760028401611ee4565b8585019081526108ca6108b461084f60038701611ee4565b93608088019485526108a060ff6004890154169a60a08a019b15158c52600660058a01549960c08c019a8b5201549960e081019a8b526040519e8f9e8f9282845251169101525160408d0190611cbb565b5161010080998c01526101208b0190611e3c565b915191601f1992838b83030160808c0152611e3c565b9151908883030160a0890152611e3c565b9351151560c08601525160e085015251908301520390f35b346101b55761090136611e0d565b9060018060a01b03169081600052600460205260ff604060002054169081610954575b5080610938575b6020906040519015158152f35b506000526003602052602060ff6004604060002001541661092b565b9050600360205260ff60406000205460a01c166007821015610547576007811015610547571482610924565b346101b55760403660031901126101b557610999611ca5565b600435600052600060205260406000209060018060a01b0316600052602052602060ff604060002054166040519015158152f35b346101b55760a03660031901126101b5576109e6611c8f565b600760243510156101b5576044356001600160401b0381116101b557610a10903690600401611d37565b906064356001600160401b0381116101b557610a30903690600401611d37565b6084356001600160401b0381116101b557610a4f903690600401611d37565b610a57612425565b610a5f612407565b610a67611fe7565b6001600160a01b0383161561101f576001600160a01b03831660009081526004602052604090205460ff16610fda57610aa3602435151561229c565b610aaf845115156122d7565b60405191610abc83611cc8565b6001600160a01b0384168352610ad76024356020850161231a565b84604084015260608301526080820152600160a08201524260c08201524260e082015260018060a01b038216600052600360205260406000209060018060a01b038151166bffffffffffffffffffffffff60a01b8354161782556020810151600781101561054757610b499083612333565b60408101518051906001600160401b038211610e24578190610b6e6001860154611eaa565b601f8111610f87575b50602090601f8311600114610f1557600092610f0a575b50508160011b916000199060031b1c19161760018301555b60608101518051906001600160401b038211610e24578190610bcb6002860154611eaa565b601f8111610eb7575b50602090601f8311600114610e4557600092610e3a575b50508160011b916000199060031b1c19161760028301555b60808101518051906001600160401b038211610e2457610c266003850154611eaa565b601f8111610ddd575b50602090601f8311600114610d42577f726667a5f20e9b31dc33e05c22e9c75635a2b28353c1e1758ef024205927f702959383610d1f969460069460e094600092610d37575b50508160011b916000199060031b1c19161760038501555b610cac60a08201511515600486019060ff801983541691151516179055565b60c0810151600585015501519101556001600160a01b0381166000908152600460205260409020805460ff19166001179055610ce781612357565b610cf681610485602435611f8a565b600160243514610d28575b6040516001600160a01b0390911693909182914290602435846123de565b0390a260018055005b610d3181612075565b50610d01565b015190508a80610c75565b906003850160005260206000209160005b601f1985168110610dc557509360018460069460e0947f726667a5f20e9b31dc33e05c22e9c75635a2b28353c1e1758ef024205927f7029a98610d1f9a98601f19811610610dac575b505050811b016003850155610c8d565b015160001960f88460031b161c191690558a8080610d9c565b91926020600181928685015181550194019201610d53565b600385016000526020600020601f840160051c810160208510610e1d575b601f830160051c82018110610e11575050610c2f565b60008155600101610dfb565b5080610dfb565b634e487b7160e01b600052604160045260246000fd5b015190508680610beb565b9250600285016000526020600020906000935b601f1984168510610e9c576001945083601f19811610610e83575b505050811b016002830155610c03565b015160001960f88460031b161c19169055868080610e73565b81810151835560209485019460019093019290910190610e58565b909150600285016000526020600020601f840160051c810160208510610f03575b90849392915b601f830160051c82018110610ef4575050610bd4565b60008155859450600101610ede565b5080610ed8565b015190508680610b8e565b9250600185016000526020600020906000935b601f1984168510610f6c576001945083601f19811610610f53575b505050811b016001830155610ba6565b015160001960f88460031b161c19169055868080610f43565b81810151835560209485019460019093019290910190610f28565b909150600185016000526020600020601f840160051c810160208510610fd3575b90849392915b601f830160051c82018110610fc4575050610b77565b60008155859450600101610fae565b5080610fa8565b60405162461bcd60e51b815260206004820152601760248201527f5573657220616c726561647920726567697374657265640000000000000000006044820152606490fd5b60405162461bcd60e51b815260206004820152600f60248201526e496e76616c6964206164647265737360881b6044820152606490fd5b346101b55760003660031901126101b55761106f611fe7565b611077612407565b600160ff1960025416176002557f62e78cea01bee320cd4e420270b5ea74000d11b0c9f74754ebdbfc544b05a2586020604051338152a1005b346101b55760203660031901126101b5576110c9611c8f565b6110d1612425565b6110d9612407565b6110e1611fe7565b6001600160a01b03166000818152600460205260409020546111059060ff166124af565b806000526003602052604060002060048101805460ff81166111615760019060ff19161790556006429101557f1566df92c3f944bd6fa96ebabfea3d13c56bc93e11c3b918837ae010d7d2146a6020604051428152a260018055005b60405162461bcd60e51b81526020600482015260136024820152725573657220616c72656164792061637469766560681b6044820152606490fd5b346101b55760003660031901126101b55760206040516000805160206126e38339815191528152f35b346101b55760a03660031901126101b5576004356001600160401b0381116101b557366023820112156101b557806004013561120081611d20565b9161120e6040519384611cff565b8183526024602084019260051b820101903682116101b557602401915b81831061190b57602435846001600160401b0382116101b557366023830112156101b557816004013561125d81611d20565b9261126b6040519485611cff565b8184526024602085019260051b820101903682116101b557602401915b8183106118f2575050506044356001600160401b0381116101b5576112b1903690600401611d8d565b916064356001600160401b0381116101b5576112d1903690600401611d8d565b906084356001600160401b0381116101b5576112f1903690600401611d8d565b916112fa612425565b611302612407565b61130a611fe7565b6113178451835114612448565b6113248451865114612448565b6113318451825114612448565b61133e8451845114612448565b60005b84518110156118ec576001600160a01b0361135c828761249b565b51169081600052600460205260ff6040600020541680156118e4575b6118da5761138e611389828661249b565b612326565b6007811015610547576113a290151561229c565b6113b86113af828961249b565b515115156122d7565b6113c5611389828661249b565b6113cf828961249b565b516113da838661249b565b51906113e6848961249b565b51604051926113f484611cc8565b86845261140560208501958661231a565b6040840192835260608401526080830152600160a08301524260c08301524260e083015284600052600360205260406000209260018060a01b038351166bffffffffffffffffffffffff60a01b8554161784555160078110156105475761146c9084612333565b518051906001600160401b038211610e2457819061148d6001860154611eaa565b601f8111611887575b50602090601f83116001146118155760009261180a575b50508160011b916000199060031b1c19161760018301555b60608101518051906001600160401b038211610e245781906114ea6002860154611eaa565b601f81116117b7575b50602090601f83116001146117455760009261173a575b50508160011b916000199060031b1c19161760028301555b60808101518051906001600160401b038211610e24576115456003850154611eaa565b601f81116116f3575b50602090601f831160011461167e5791806006949260e094600092611673575b50508160011b916000199060031b1c19161760038501555b6115a560a08201511515600486019060ff801983541691151516179055565b60c0810151600585015501519101558160005260046020526040600020600160ff198254161790556115d682612357565b6115ea82610485610275611389858961249b565b6115f7611389828661249b565b91600783101561054757600161165f9314611664575b7f726667a5f20e9b31dc33e05c22e9c75635a2b28353c1e1758ef024205927f70261163b611389848861249b565b611645848b61249b565b516116576040519283924291846123de565b0390a261248c565b611341565b61166d81612075565b5061160d565b015190508d8061156e565b906003850160005260206000209160005b601f19851681106116db5750926006949260019260e09583601f198116106116c2575b505050811b016003850155611586565b015160001960f88460031b161c191690558d80806116b2565b9192602060018192868501518155019401920161168f565b600385016000526020600020601f840160051c810160208510611733575b601f830160051c8201811061172757505061154e565b60008155600101611711565b5080611711565b015190508b8061150a565b9250600285016000526020600020906000935b601f198416851061179c576001945083601f19811610611783575b505050811b016002830155611522565b015160001960f88460031b161c191690558b8080611773565b81810151835560209485019460019093019290910190611758565b909150600285016000526020600020601f840160051c810160208510611803575b90849392915b601f830160051c820181106117f45750506114f3565b600081558594506001016117de565b50806117d8565b015190508b806114ad565b9250600185016000526020600020906000935b601f198416851061186c576001945083601f19811610611853575b505050811b0160018301556114c5565b015160001960f88460031b161c191690558b8080611843565b81810151835560209485019460019093019290910190611828565b909150600185016000526020600020601f840160051c8101602085106118d3575b90849392915b601f830160051c820181106118c4575050611496565b600081558594506001016118ae565b50806118a8565b61165f915061248c565b508115611378565b60018055005b823560078110156101b557815260209283019201611288565b82356001600160a01b03811681036101b55781526020928301920161122b565b346101b55760003660031901126101b557602060ff600254166040519015158152f35b346101b55760203660031901126101b5576001600160a01b0361196f611c8f565b16600052600460205260ff6040600020541680611993576020906040519015158152f35b50600360205260406000206004015460ff1661092b565b346101b55760003660031901126101b5576119c3611fe7565b60025460ff811615611a025760ff19166002557f5db9ee0a495bf2e6ff9c91a7834c1ba4fdd244a5e8aa4e537bd38aeae4b073aa6020604051338152a1005b604051638dfc202b60e01b8152600490fd5b346101b55760403660031901126101b557611a2d611ca5565b336001600160a01b03821603611a49576102fb90600435612227565b60405163334bd91960e11b8152600490fd5b346101b55760403660031901126101b5576102fb600435611a7a611ca5565b90806000526000602052611a9560016040600020015461204f565b612115565b346101b55760203660031901126101b5576020611abd611ab8611c8f565b6124f1565b611aca6040518092611cbb565bf35b346101b55760203660031901126101b55760043560005260006020526020600160406000200154604051908152f35b346101b5576020806003193601126101b557611b15611c8f565b611b1d612425565b611b25612407565b611b2d611fe7565b6001600160a01b03166000818152600483526040902054611b509060ff166124af565b338114611bf7578060005260038252604060002091600483019283549360ff851615611bb2577f0a3c4dd3ee5277d6eada470cf9b47a480953120ecafcbbdc14bde6f8a6248930939460ff19169055600642910155604051428152a260018055005b60405162461bcd60e51b815260048101849052601860248201527f5573657220616c726561647920646561637469766174656400000000000000006044820152606490fd5b60405162461bcd60e51b815260048101839052601a60248201527f43616e6e6f74206465616374697661746520796f757273656c660000000000006044820152606490fd5b346101b55760203660031901126101b5576004359063ffffffff60e01b82168092036101b557602091637965db0b60e01b8114908115611c7e575b5015158152f35b6301ffc9a760e01b14905083611c77565b600435906001600160a01b03821682036101b557565b602435906001600160a01b03821682036101b557565b9060078210156105475752565b61010081019081106001600160401b03821117610e2457604052565b604081019081106001600160401b03821117610e2457604052565b90601f801991011681019081106001600160401b03821117610e2457604052565b6001600160401b038111610e245760051b60200190565b81601f820112156101b5578035906001600160401b038211610e245760405192611d6b601f8401601f191660200185611cff565b828452602083830101116101b557816000926020809301838601378301015290565b9080601f830112156101b557813590611da582611d20565b92611db36040519485611cff565b828452602092838086019160051b830101928084116101b557848301915b848310611de15750505050505090565b82356001600160401b0381116101b5578691611e0284848094890101611d37565b815201920191611dd1565b60409060031901126101b5576004356001600160a01b03811681036101b5579060243560078110156101b55790565b919082519283825260005b848110611e68575050826000602080949584010152601f8019910116010190565b602081830181015184830182015201611e47565b8054821015611e945760005260206000200190600090565b634e487b7160e01b600052603260045260246000fd5b90600182811c92168015611eda575b6020831014611ec457565b634e487b7160e01b600052602260045260246000fd5b91607f1691611eb9565b9060405191826000825492611ef884611eaa565b908184526001948581169081600014611f675750600114611f24575b5050611f2292500383611cff565b565b9093915060005260209081600020936000915b818310611f4f575050611f2293508201013880611f14565b85548884018501529485019487945091830191611f37565b915050611f2294506020925060ff191682840152151560051b8201013880611f14565b6007811015610547576000526006602052604060002090565b6020908160408183019282815285518094520193019160005b828110611fca575050505090565b83516001600160a01b031685529381019392810192600101611fbc565b3360009081527f7d7ffb7a348e1c6a02869081a26547b49160dd3df72d1d75a570eb9b698292ec60205260409020546000805160206126e38339815191529060ff16156120315750565b6044906040519063e2517d3f60e01b82523360048301526024820152fd5b80600052600060205260406000203360005260205260ff60406000205416156120315750565b6001600160a01b031660008181527f7d7ffb7a348e1c6a02869081a26547b49160dd3df72d1d75a570eb9b698292ec60205260408120549091906000805160206126e38339815191529060ff1661211057808352826020526040832082845260205260408320600160ff198254161790557f2f8788117e7eff1d82e926ec794901d17c78024a50270940304540a733656f0d339380a4600190565b505090565b9060009180835282602052604083209160018060a01b03169182845260205260ff6040842054161560001461211057808352826020526040832082845260205260408320600160ff198254161790557f2f8788117e7eff1d82e926ec794901d17c78024a50270940304540a733656f0d339380a4600190565b6001600160a01b031660008181527f7d7ffb7a348e1c6a02869081a26547b49160dd3df72d1d75a570eb9b698292ec60205260408120549091906000805160206126e38339815191529060ff16156121105780835282602052604083208284526020526040832060ff1981541690557ff6391f5c32d9c69d2a47ea670b442974b53935d1edc7fd64eb21e047a839171b339380a4600190565b9060009180835282602052604083209160018060a01b03169182845260205260ff6040842054166000146121105780835282602052604083208284526020526040832060ff1981541690557ff6391f5c32d9c69d2a47ea670b442974b53935d1edc7fd64eb21e047a839171b339380a4600190565b156122a357565b60405162461bcd60e51b815260206004820152600c60248201526b496e76616c696420726f6c6560a01b6044820152606490fd5b156122de57565b60405162461bcd60e51b81526020600482015260146024820152734e616d652063616e6e6f7420626520656d70747960601b6044820152606490fd5b60078210156105475752565b5160078110156105475790565b90600781101561054757815460ff60a01b191660a09190911b60ff60a01b16179055565b600554600160401b811015610e24576001810180600555811015611e945760056000527f036b6384b5eca791c62761152d0c79bb0604c104a5fb6f4eb0703f3154bb3db00180546001600160a01b0319166001600160a01b03909216919091179055565b90815491600160401b831015610e245782610438916001611f2295018155611e7c565b939291612402906123f186604094611cbb565b606060208701526060860190611e3c565b930152565b60ff6002541661241357565b60405163d93c066560e01b8152600490fd5b600260015414612436576002600155565b604051633ee5aeb560e01b8152600490fd5b1561244f57565b60405162461bcd60e51b8152602060048201526015602482015274082e4e4c2f240d8cadccee8d040dad2e6dac2e8c6d605b1b6044820152606490fd5b60001981146105825760010190565b8051821015611e945760209160051b010190565b156124b657565b60405162461bcd60e51b8152602060048201526013602482015272155cd95c881b9bdd081c9959da5cdd195c9959606a1b6044820152606490fd5b6001600160a01b031660009081526004602052604090205460ff161561252557600360205260ff60406000205460a01c1690565b600090565b9060405191828154918282526020928383019160005283600020936000905b82821061255f57505050611f2292500383611cff565b85546001600160a01b031684526001958601958895509381019390910190612549565b60078110156105475780156126c1576001811461269f576002811461267b5760038114612653576004811461262d5760058114612608576006146125e3576040516125cc81611ce4565b60078152662ab735b737bbb760c91b602082015290565b6040516125ef81611ce4565b600981526827b933b0b734bd32b960b91b602082015290565b5060405161261581611ce4565b600881526722b6b83637bcb2b960c11b602082015290565b5060405161263a81611ce4565b600981526821b2b93a34b334b2b960b91b602082015290565b5060405161266081611ce4565b600b81526a24b739ba34ba3aba34b7b760a91b602082015290565b5060405161268881611ce4565b600781526614dd1d59195b9d60ca1b602082015290565b506040516126ac81611ce4565b600581526420b236b4b760d91b602082015290565b506040516126ce81611ce4565b60048152634e6f6e6560e01b60208201529056fea49807205ce4d355092ef5a8a18f56e8913cf4a201fbe287825b095693c21775a264697066735822122015cce2b9469b29d72288f43c4f07f37d072333030fda2bc0993a241417d176ae64736f6c634300081400332f8788117e7eff1d82e926ec794901d17c78024a50270940304540a733656f0d",
  "linkReferences": {},
  "deployedLinkReferences": {}
}